:020000040800F2
:1000000080CE0120A10500088505000887050008AD
:100010008B0500088F05000893050008000000000C
:10002000000000000000000000000000970500082C
:1000300099050008000000009B0500089D050008C8
:10004000BB050008BB050008BB050008171E00081B
:10005000BB050008BB050008BB050008BB05000880
:10006000BB050008BB050008BB050008BB05000870
:10007000BB050008BB050008BB050008BB05000860
:10008000BB050008BB050008BB050008BB05000850
:10009000BB050008BB050008BB050008BB05000840
:1000A000BB050008BB050008BB050008BB05000830
:1000B000BB050008BB050008BB050008BB05000820
:1000C000BB050008BB050008BB050008BB05000810
:1000D000BB0500082D3B00085F3600085B200008C8
:1000E000BB050008E31E0008BB050008BB050008AF
:1000F000BB050008BB050008BB050008BB050008E0
:10010000BB050008BB050008BB050008BB050008CF
:10011000E9330008BB050008BB050008BB05000863
:10012000BB050008BB050008BB050008BB050008AF
:10013000BB050008BB050008BB050008BB0500089F
:10014000BB050008BB050008BB050008BB0500088F
:10015000BB050008BB050008BB050008452A0008D0
:10016000BB050008BB050008BB050008BB0500086F
:10017000BB050008BB050008BB050008BB0500085F
:10018000BB050008BB05000800F002F800F092F87B
:100190000AA090E8000C82448344AAF10107DA45E2
:1001A00001D100F087F8AFF2090EBAE80F0013F0A2
:1001B000010F18BFFB1A43F001031847E4F00000D9
:1001C00004F10000103A24BF78C878C1FAD8520769
:1001D00024BF30C830C144BF04680C6070470000C1
:1001E0000023002400250026103A28BF78C1FBD840
:1001F000520728BF30C148BF0B6070476E290AF014
:100200006A82702909F05C8766290DF0DC82652915
:100210000DF0D98267290DF0D68261290DF0D582C3
:1002200003681B0A28BF41F08001692909F0CA86CA
:10023000642909F0C786752909F0C4866F290AF078
:100240006385782909F02887E9290AF0FB84E429E5
:100250000AF0F884F5290AF0F584EF290AF06085A0
:10026000F82909F027870368DB0928BF41F08001DE
:1002700063290AF07C8473290AF08184E3290AF057
:100280009587F3290AF09A87002070471FB50DF073
:1002900090FA0AF071FD0400002000210CF0E6FB4A
:1002A000401C6060002000210CF0F6FBE0601FBDE8
:1002B00010B510BD0BF01CF81146FFF7E7FF00F07A
:1002C0006CF80BF03AF803B4FFF7F2FF03BC0BF045
:1002D0003BF800001CB58BA31022DC211E2001F08E
:1002E00038FC01201021CDE900108A48C278022391
:1002F000DC21562001F09DFB01201021CDE90010EA
:10030000844842780223DC216E2001F092FB012018
:100310001021CDE900107F4882780223DC2186205D
:1003200001F087FB7CA31022F0211E2001F011FCBC
:1003300001201021CDE900107B4802780223F02132
:10034000462001F076FB01201021CDE9001076480F
:1003500042780223F0215E2001F06BFB0120102186
:10036000CDE90010704882780223F021762001F058
:1003700060FB6EA310224FF482711E2001F0E9FB96
:1003800064480078401E6D4951F8203010224FF427
:100390008271462001F0DDFB1CBD2DED068B84B083
:1003A0000024002001900290039000BF4FF4A06051
:1003B00006F0AEFD09F0F2FC00F00EFA00F090FA43
:1003C00001F010FC00F058FE01F004FD4FF416504F
:1003D00001F0A0FD02F0E8FF02F0DEFA4FF4E13098
:1003E00003F038FB03F060F803F00AFA03F046FA72
:1003F00003F082FA03F0BEFA4FF4165003F0C4F88B
:1004000003F06AFE03F0C7FF0AE000204C490860D1
:100410004FF4FA7009F01DFD01204A49C1F8BC02F1
:10042000494800680028F0D04FF0000001F05EFC61
:1004300067E046480078E8BBB4F5FA7F5DDD04204C
:1004400003F070F800EE100AB8EE400ADFED400A43
:1004500080EE201A11EE105A28460DF039F941ECC1
:10046000100BB0EE40AAF0EE60AA9FED3A0B53ECF1
:10047000102B51EC1A0B0CF035FE41EC100BB0EECA
:10048000409AF0EE609A9FED350B53EC102B51EC37
:10049000190B0CF011FC41EC100BB0EE408AF0EEA1
:1004A000608A51EC180B0CF019FB2E4908600521ED
:1004B000084600E00AE003F0B2FA00EE100AB8EED7
:1004C000400A294880ED000A002416E01F48007801
:1004D000012812D1002000F095F924480078012865
:1004E00003D1092122A001F084FD204800780228D0
:1004F00003D1092121A001F07CFD052009F0A9FC10
:10050000641C96E7446174653A323020202D202027
:100510002D2020005000002054696D653A20203ABB
:1005200020203A20200000004C0000205765656B19
:100530003A20202020202020200000000000002061
:10054000BC024342000043420402434259000020DF
:10055000000080450000000000E07A40000000003C
:10056000000014401C000020CC00002035000020BA
:100570004C5445205445535400000000205445532A
:1005800054000000704700BFFEE700BFFEE700BF59
:10059000FEE700BFFEE770477047704770470000F6
:1005A0000948804709480047FEE7FEE7FEE7FEE707
:1005B000FEE7FEE7FEE7FEE7FEE7FEE70448054943
:1005C000054A064B70470000A7060008890100088D
:1005D00080C8012080CE012080CA012080CA01206D
:1005E00000210020714A126842F480326F4B1A6079
:1005F00000BF6E4A126802F40030491C10B9B1F510
:10060000A04FF6D1694A126812F4003F01D00120D0
:1006100000E00020012845D1644A4032126842F0CF
:100620008052624B40331A60614A126842F4404281
:100630005F4B1A605D4A083212685C4B08331A60DF
:100640001A46126842F400421A601A46126842F4CE
:10065000A0521A60574A1B1F1A601A1F126842F0F4
:1006600080721B1F1A6000BF504A126812F0007F90
:10067000FAD040F20572504B1A604C4A08321268A8
:1006800022F00302494B08331A601A46126842F0FE
:1006900002021A6000BF454A0832126802F00C02DA
:1006A000082AF8D1704710B54448006840F470003B
:1006B000424908603D48006840F001003B4908603D
:1006C00000203A4908310860384800683C49084031
:1006D000364908603B48091D0860081F006820F47F
:1006E0008020091F0860002030490C310860FFF7A6
:1006F00077FF4FF0006031498039086010BD70B558
:1007000000200022022300240221284D08352D68F4
:1007100005F00C0020B1042806D0082834D107E0E9
:10072000294D2A4E356033E0294D284E35602FE0A3
:100730001E4D2D1D2D68C5F380541C4D2D1D2D689B
:1007400005F03F0154B1224DB5FBF1F5174E361DB2
:100750003668C6F3881605FB06F209E01A4DB5FBAC
:10076000F1F5124E361D3668C6F3881605FB06F203
:100770000E4D2D1D2D68C5F301456D1C6B00B2FBA0
:10078000F3F5124E356003E00F4D104E356000BF9B
:1007900000BF064D08352D68C5F303150D4E705D7D
:1007A0000A4D2D68C540094E356070BD00380240C5
:1007B0000070004008544007003C024088ED00E013
:1007C000FFFFF6FE103000240024F400200000207B
:1007D00000127A00240000201CB50121202006F020
:1007E00021FF4FF47070009000208DF8040003206A
:1007F0008DF8050001208DF8070069462E4806F0A7
:100800007FFC1CBD00212D4A11702D49096849B19A
:100810002C49096831B12C49096819B12B4909687B
:10082000002939D12649096819B90121284A1170CE
:1008300013E02449096819B90221254A11700CE016
:100840002149096819B90321214A117005E01F499E
:10085000096811B904211E4A11701D4909781D4A01
:100860001278914210D11C490988491C1A4A1180FA
:1008700017490978194A1170E8B9174909880129F7
:1008800019DD0021117016E00021134A1180104972
:100890000978104A11700EE00F490988022903DD1A
:1008A0000B490978054A117000210A4A11700A4A59
:1008B00011800A4A11707047001402403500002070
:1008C000188242421C824242208242422482424298
:1008D00038000020390000203600002034000020BD
:1008E0001CB50121402006F09DFE4FF460400090B1
:1008F00001208DF8040000208DF8060003208DF8FB
:10090000050001208DF807006946044806F0F8FB51
:100910004FF46041014806F067FC1CBD001802401E
:10092000FD4A1080921C1180704710B50446FA48A9
:100930000480052009F047FAF748801C008810BDA4
:10094000F6480088F4490880704700BF0100A0F114
:100950000102D0B2FAD1704730B5014601F01F0450
:10096000C1F34513CA0AE50205EB43151544A8B2C5
:1009700030BD10B503460C46E9480088A0F5134188
:10098000413912D1E7480088E34908801812891CD0
:100990000880D8B20880E4480088891E08802012A8
:1009A000891C0880E0B2088012E0E0480078012845
:1009B00004D1DF480088401EC01A83B21946D948C6
:1009C0000088FFF7ADFF2146D7480088FFF7A8FF52
:1009D00010BD2DE9F04105460E4600240027A04633
:1009E000D3480088854203DAD2480088864202DB79
:1009F0000020BDE8F08131462846FFF7BAFFC8481D
:100A00000088A0F51341413903D12E20C249088046
:100A100002E02220C0490880BF48801C008800B145
:100A200000240220FFF791FFBB48801C0488BC48CB
:100A30000088A0F5134141390BD10220FFF785FF53
:100A4000B548801CB0F80080E7B24FF6FF7000EAAE
:100A50000727B3480088A0F51341253901D1204666
:100A6000C7E7AF480088A0F51341413907D1E0122C
:100A7000C002B91240EA411040EAE820B9E7204636
:100A8000FFF76AFFB5E700B5A5480088A0F5134158
:100A9000413903D12920A049088004E040F27311B4
:100AA0000720FFF73DFF00BD00B59D480088A0F579
:100AB0001341413903D128209749088003E00021E0
:100AC0000720FFF72DFF00BDF0B5054600240027E5
:100AD00096480078012818D1082D15D2DFE805F0D6
:100AE0000406080A0C0E101206250DE007250BE07F
:100AF000042509E0052507E0012505E0002503E0C0
:100B0000032501E0022500BF00BF85480088A0F54D
:100B1000134141395ED1082D1CD2DFE805F00406EF
:100B2000090C0F12151800BF14E044F0800411E006
:100B300044F040040EE044F0C0040BE044F0200414
:100B400008E044F0600405E044F0A00402E044F052
:100B5000E00400BF00BF362744F0080421463846B1
:100B6000FFF7DEFE14F0200F0DD0714800887149A8
:100B70000988884207DA6E4806886E4800886C4902
:100B800008806C4806806748008863490880002018
:100B9000891C0880088066480088401EC0F30F202A
:100BA000088063480078401EC0B208805E48008814
:100BB000891E08800020891C088008805D48008804
:100BC000401EC0F30F2008805A480078401EC0B273
:100BD000088026E0082D1CD2DFE805F004070A0D86
:100BE00015180F1244F0300413E044F0100410E024
:100BF00044F020040DE000BF0BE044F0180408E0CE
:100C000044F0080405E044F0380402E044F028040D
:100C100000BF00BF032744F4805421463846FFF745
:100C20007FFEF0BD10B504461CBB00203F49087094
:100C3000F0203F4908804FF4A0703E4908803848B2
:100C40000088A0F51341413909D12C20334908808F
:100C50002A20344908802B20334908802CE02220A8
:100C60002E49088020202F49088021202E49088005
:100C700022E001202D4908704FF4A0702C49088013
:100C8000F0202C49088026480088A0F513414139FE
:100C900009D12C20214908802A20224908802B20B4
:100CA0002149088008E022201C49088021201D4994
:100CB000088020201C4908800020FFF705FF10BD98
:100CC00030B504460D4629462046FFF752FEFFF791
:100CD00037FE194800881049891C088030BD30B59E
:100CE00003460C4615460E480088A0F513414139CD
:100CF00024D10C480088084908801812891C0880F3
:100D0000D8B2088008480088891E08802012891CF3
:100D10000880E0B2088024E0FE1F006C460000203E
:100D20003E000020480000204A0000204000002033
:100D300042000020440000203A000020FE480078D5
:100D4000012804D1FD480088401EC01A83B219460C
:100D5000FB480088FFF7E4FD2146FA480088FFF7CA
:100D6000DFFDF9480088F9490880881C058030BDFE
:100D70002DE9FF4F04460D4616461F46A019401E9A
:100D800086B2E819401E87B2F1480088A0F51341E9
:100D900041391AD1EA480088EC4908802012891CA0
:100DA0000880E0B2088030120880F0B20880E54880
:100DB0000088891E08802812891C0880E8B20880F3
:100DC00038120880F8B2088032E0DB480078012849
:100DD0000ED1A846B946D9480088801B401E1FFA8C
:100DE00080FAD6480088001B401E1FFA80FB03E0F3
:100DF000A046B146AA46BB4650200390512002901F
:100E0000522001905320009041460398FFF788FD3F
:100E100049460298FFF784FD51460198FFF780FD8F
:100E200059460098FFF77CFD29462046FFF7A1FDB3
:100E3000BDE8FF8F00B59FB00121782006F0F2FBDE
:100E40000121084606F026FC4FF480601D90012029
:100E50008DF8780000208DF87A0002208DF8790056
:100E600001208DF87B001DA9BA4806F049F94CF223
:100E700033701D9002208DF8780000208DF87A00E4
:100E800003208DF8790001208DF87B001DA9B24860
:100E900006F036F94FF680701D9002208DF878002C
:100EA00000208DF87A0003208DF8790001208DF85C
:100EB0007B001DA9A94806F023F904201D900220FB
:100EC0008DF8780000208DF87A0003208DF87900E5
:100ED00001208DF87B001DA9A14806F011F94FF4FF
:100EE00080501D9002208DF8780000208DF87A0047
:100EF00003208DF8790001208DF87B001DA998480A
:100F000006F0FEF80C220021934806F07CF90C2232
:100F10000121914806F077F90C2204218E4806F051
:100F200072F90C2205218C4806F06DF90C2208217B
:100F3000894806F068F90C220921874806F063F910
:100F40000C220A21844806F05EF90C220E21824808
:100F500006F059F90C220F217F4806F054F90C22B3
:100F600007217E4806F04FF90C2208217B4806F045
:100F70004AF90C220921794806F045F90C220A2188
:100F8000764806F040F90C220B21744806F03BF934
:100F90000C221146714806F036F90C220D216F48DB
:100FA00006F031F90C220E216C4806F02CF90C22C7
:100FB0000F216A4806F027F90C220221684806F042
:100FC00022F90C221146664806F01DF90F20079001
:100FD000002008903C20099000200A900B900C9073
:100FE0000D90092000900020019008200290002020
:100FF000039004900590069006200E9000200F901C
:1010000010901020119000201290149013901590C1
:1010100016904FF480501790002018904FF48040A5
:10102000199000201A9007A81B90CDF870D00EA838
:1010300006F092FE0121062006F016FF322008F08D
:1010400008FF1FB000BD70B50446002500263B48D0
:1010500000884449098800FB01F600210846FFF793
:1010600088FCFFF76DFC00BF03E03848801C04805B
:101070006D1CB542F9D370BD10B50024FFF7DAFE40
:1010800001210020FFF74CFC322008F0E2FE002096
:10109000FFF74BFC2E49088008460088FF280ADB32
:1010A00008460088A0F57F41FF3904D02848008811
:1010B000B0F5134F1DD1D32024490880881C008827
:1010C000234908802148801C008808801F48801C14
:1010D00000880880084600884FF6FF7101EA00206A
:1010E0001B4908801948801C008809880843184952
:1010F000088017480088A0F51341413938D11A48B3
:10110000006820F00F004FF02041C1F81C01084694
:10111000D0F81C0120F47060C1F81C010846D0F81A
:101120001C0140F00300C1F81C010846D0F81C0166
:1011300040F400701AE0000040000020420000204F
:10114000480000204A00002046000020FE1F006CDE
:101150003E00002000140240000C0240001002403B
:1011600000180240440000201C0100A0C1F81C012E
:10117000FE480088A0F5134128397DD141F28F0146
:10118000EC20FFF7CDFB41F23421EF20FFF7C8FB45
:101190004FF480710120FFF7C3FB4FF4E0610220A0
:1011A000FFF7BEFB41F230010320FFF7B9FB00213E
:1011B0000420FFF7B5FB40F202210820FFF7B0FB47
:1011C00000210920FFF7ACFB00210A20FFF7A8FB54
:1011D00001210C20FFF7A4FB00210D20FFF7A0FB4D
:1011E00000210F20FFF79CFB00211020FFF798FB48
:1011F00007211120FFF794FB00211220FFF790FB3D
:1012000000211320FFF78CFB01210720FFF788FB4B
:10121000322008F01EFE41F290411020FFF780FBC3
:1012200040F227211120FFF77BFB322008F011FE4E
:101230008A211220FFF774FB322008F00AFE4FF4D7
:10124000D0511320FFF76CFB06212920FFF768FB24
:101250000D212B20FFF764FB322008F0FAFD00215E
:101260002020FFF75DFB00212120FFF759FB3220F2
:1012700008F0EFFD002100E075E03020FFF750FBA3
:1012800040F204613120FFF74BFB40F20531322080
:10129000FFF746FB00213520FFF742FB40F60941EE
:1012A0003620FFF73DFB4FF401713720FFF738FB85
:1012B00040F201313820FFF733FB40F2077139204B
:1012C000FFF72EFB00213C20FFF72AFB40F60A2106
:1012D0003D20FFF725FB322008F0BBFD0021502008
:1012E000FFF71EFBEF215120FFF71AFB00215220D0
:1012F000FFF716FB40F23F115320FFF711FB4FF4AD
:1013000027416020FFF70CFB01216120FFF708FB5C
:1013100000216A20FFF704FB00218020FFF700FB7B
:1013200000218120FFF7FCFA00218220FFF7F8FA64
:1013300000218320FFF7F4FA00218420FFF7F0FA60
:1013400000218520FFF7ECFA10219020FFF7E8FA42
:101350004FF4C0619220FFF7E3FA40F23311072007
:10136000FFF7DEFAC2E181480088A0F51341253974
:101370007ED147F6F001E520FFF7D2FA4FF48071F5
:101380000120FFF7CDFA4FF4E0610220FFF7C8FA21
:1013900041F230010320FFF7C3FA00210420FFF7D8
:1013A000BFFA40F202210820FFF7BAFA0021092013
:1013B000FFF7B6FA00210A20FFF7B2FA00210C204D
:1013C000FFF7AEFA00210D20FFF7AAFA00210F2047
:1013D000FFF7A6FA00211020FFF7A2FA072111203B
:1013E000FFF79EFA00211220FFF79AFA002113203E
:1013F000FFF796FA00210720FFF792FA41F2906179
:101400001020FFF78DFA40F227211120FFF788FA0C
:101410009D211220FFF784FA4FF4C8511320FFF7E3
:101420007FFA25212920FFF77BFA0D212B20FFF7DA
:1014300077FA07213020FFF773FA40F203313120A9
:10144000FFF76EFA03213220FFF76AFA40F2062115
:101450003520FFF765FA08213620FFF761FA40F2E0
:1014600006413720FFF75CFA4FF44171382000E065
:1014700057E0FFF755FA07213920FFF751FA40F2FC
:1014800002613C20FFF74CFA08213D20FFF748FAA3
:1014900000215020FFF744FAEF215120FFF740FAD6
:1014A00000215220FFF73CFA40F23F115320FFF792
:1014B00037FA4FF427416020FFF732FA012161200B
:1014C000FFF72EFA00216A20FFF72AFA0021802078
:1014D000FFF726FA00218120FFF722FA002182205F
:1014E000FFF71EFA00218320FFF71AFA002184205B
:1014F000FFF716FA00218520FFF712FA102190203D
:10150000FFF70EFA4FF4C0619220FFF709FA40F29C
:1015100033110720FFF704FA22210020FFF700FA19
:10152000E4E012480088A0F513414139F8D1CF20FA
:101530000F4908800020891C0880C12008803020C5
:101540000880ED20891E08806420891C0880032003
:1015500008801220088081200880E820891E0880E9
:101560008520891C08801020088003E03E000020B0
:10157000FE1F006C7A200880CB20891E088039204D
:10158000891C08802C2008800020088034200880D6
:1015900002200880F720891E08802020891C0880EE
:1015A000EA20891E08800020891C08800880C0204D
:1015B000891E08801B20891C0880C120891E088084
:1015C0000120891C0880C520891E08803020891CC4
:1015D00008800880C720891E0880B720891C0880E1
:1015E0003620891E08804820891C08803A20891EE0
:1015F00008805520891C0880B120891E08800020A1
:10160000891C08801A200880B620891E08800A20BC
:10161000891C0880A2200880F220891E08800020F2
:10162000891C08802620891E08800120891C0880CA
:10163000E020891E08800F20891C08802A2008804D
:1016400028200880082008800E20088008200880B4
:1016500054200880A9200880432008800A200880A0
:101660000F20088000200880088008800880E12082
:10167000891E08800020891C0880152008801720FA
:1016800008800720088011200880062008802B2071
:101690000880562008803C20088005200880102003
:1016A00008800F2008803F20088008800F200880D5
:1016B0002B20891E08800020891C088008800120BA
:1016C00008803F2008802A20891E08800020891C6D
:1016D000088008800880EF2008801120891E08807B
:1016E000782008F0B6FB2920FD4908800020FFF78C
:1016F00099FA0120FB4908604FF6FF70FFF7A3FC41
:1017000010BD2DE9F04F05460E4617469846DDF808
:1017100024A04FF0000B781B401C1FFA80FB3446BE
:1017200014E021462846FFF724F9FFF709F94FF0A6
:10173000000907E0EA48801CA0F800A009F10100B8
:101740001FFA80F9D945F5DB601C84B24445E8DD19
:10175000BDE8F08F2DE9F84F07460D4690469946B3
:10176000DDF828B0A8EB0700401C80B20090A9EB80
:101770000500401C1FFA80FA002416E0281981B2E7
:101780003846FFF7F6F8FFF7DBF8002608E004FB21
:101790000A603BF81000D249891C0880701C86B290
:1017A00000988642F3DB601C84B25445E6DBBDE85A
:1017B000F88F2DE9FF4F84B081468A4600200390C0
:1017C00002900698A0EB09050798A0EB0A06CDF851
:1017D0000490CDF800A0002D01DD012705E00DB932
:1017E000002702E04FF0FF376D42002E02DD4FF080
:1017F000010806E016B94FF0000802E04FF0FF388C
:101800007642B54201DD2C4600E034464FF0000B35
:1018100021E0009A91B2019A90B2FFF751FA039831
:10182000284403900298304402900398A04205DDBA
:101830000398001B03900198384401900298A0423D
:1018400005DD0298001B02900098404400900BF1C7
:1018500001001FFA80FB601C8345DADD08B0BDE89B
:10186000F08FF0B504460D4616461F462B4632460D
:1018700029462046FFF79DFF3B4622462946204643
:10188000FFF797FF3B46324639462046FFF791FF68
:101890003B46324629463046FFF78BFFF0BD2DE927
:1018A000F04306460F469046002445460320A0EB31
:1018B00048093CE07A1B91B2321990B2FFF700FA66
:1018C0003A1B91B2721990B2FFF7FAF93A1991B234
:1018D000721990B2FFF7F4F97A1991B2321990B2F5
:1018E000FFF7EEF97A1991B2321B90B2FFF7E8F9DF
:1018F0003A1991B2721B90B2FFF7E2F97A1B91B2DA
:10190000321B90B2FFF7DCF93A1B91B2721B90B216
:10191000FFF7D6F9641CB9F1000F03DAA000801DAF
:10192000814404E0601B80000A3081446D1EAC429B
:10193000C0DDBDE8F0832DE9F84F81460E4617461D
:101940001C4600960C2C01D198460AE0102C01D1BF
:10195000A04606E0182C02D14FF0240801E0BDE8B3
:10196000F88FA7F12000C7B2002553E00C2C07D157
:1019700007EB47005C4901EB800010F805A012E07E
:10198000102C05D1594800EB071010F805A00AE00B
:10199000182C07D107EBC700554901EB800010F860
:1019A00005A000E0DBE74FF0000B2DE01AF0800F00
:1019B00006D05048028831464846FFF790F905E0C6
:1019C0004D48028831464846FFF789F94FEA4A6098
:1019D0004FEA106A701C86B248480088864200DBD5
:1019E000BDE70098301AA0420AD1009E09F101001B
:1019F0001FFA80F942480088814500DBAFE706E026
:101A00000BF1010000F0FF0BBBF1080FCEDB00BFB4
:101A1000681CC5B24545A9DB00BFA0E710B502466A
:101A2000012000E050430B00A1F10104E1B2F9D123
:101A300010BD2DE9FF4F81B0064691461F46DDE9F6
:101A40000E4A00200090002544E0781B401EC1B2E1
:101A50000A20FFF7E3FFB9FBF0F00A21B0FBF1F237
:101A600001FB1208009820BB781EA84221DDB8F1C6
:101A7000000F1CD1BAF1000F0CD0A34604EBDB71B0
:101A8000491011FB056188B2234630220299FFF705
:101A900052FF0BE0A34604EBDB71491011FB05611B
:101AA00088B2234620220299FFF745FF10E001206B
:101AB0000090A34604EBDB71491011FB056188B26D
:101AC00008F13001CAB223460299FFF734FF00BF84
:101AD000681CC5B2BD42B8DB05B0BDE8F08F0000A0
:101AE000FE1F006CA8824242BED8000832DD00080A
:101AF00022E300083A0000203C00002044000020BF
:101B0000420000202DE9FF4F82B004460D461646E4
:101B1000DDE91189109F3048B0F800A02F48B0F8D7
:101B200000B02D48A0F800802C48A0F800900F9835
:101B3000CDE90007324629462046059BFFF779FF8D
:101B40002548A0F800A02548A0F800B006B0BDE8E0
:101B5000F08FF0B506460F4615461C4611E0227878
:101B60002B4639463046FFF7E6FE284605EBD07196
:101B700006EB61018EB21A480088864200DB06E05F
:101B8000641C20787E2802DC20782028E7DA00BF59
:101B9000F0BD2DE9F04F04460D4616461F46DDE91F
:101BA00009890D48B0F800A00C48B0F800B00A4808
:101BB000A0F800800948A0F800903B46324629462C
:101BC0002046FFF7C6FF0448A0F800A00348A0F88D
:101BD00000B0BDE8F08F00003A0000203C0000207B
:101BE000420000201CB50121402005F01BFD802093
:101BF000009001208DF8040000208DF806000320DD
:101C00008DF8050002208DF807006946034805F0AD
:101C100077FA8021014805F0E9FA1CBD001802405E
:101C2000F0B504460B46154604F16400C1B20846FF
:101C3000CE1701EB967601EBA602072092FBF0F699
:101C400000FB162082B25619581EAD4F385C304446
:101C500082B2CE1701EB9676B610B1EB860603D1B1
:101C6000032B01DA501E82B2072092FBF0F600FB34
:101C7000162008B90720F0BD072092FBF0F600FB04
:101C80001620C0B2F7E72DE9FC4705460E46174679
:101C90001C46DDE90A898DF806708DF805603A4624
:101CA00031462846FFF7BCFF8DF804008DF8075039
:101CB0008DF800408DF801808DF802900C2C03DD2A
:101CC00040208DF8030002E000208DF8030001A9F8
:101CD000002006F000FD38B16946002006F064FCE3
:101CE00010B10120BDE8FC870020FBE710B50446D9
:101CF0008449204606F05BFD8349204606F0BEFC81
:101D000010BD10B586B00024012005F028FB0AE0C4
:101D1000601C84B2052008F09CF8B4F5FA7F02DB61
:101D2000012006B010BD412005F0D6FA0028EFD002
:101D30004FF4807005F014FC012005F02CFC7F208E
:101D40000490FF2005900020039003A806F091FB6B
:101D50001E2002210D230B22CDE9001003210F20AC
:101D6000FFF791FF0020DCE77CB505460C4600201C
:101D700006F078FE284606F050FE204606F062FE89
:101D80004FF4804007F037F94FF4800007F07FFAF6
:101D90000121880307F0BEF8012006F063FE4FF42E
:101DA0008000009000208DF8040008208DF80500C8
:101DB00001208DF80600684607F0F8F90320534922
:101DC00008700220487088700120C870084605F02D
:101DD000A4F87CBD10B500240121080705F06BFCB8
:101DE000012007F028F9002007F02AF8A0F5AA4101
:101DF00055390AD0FFF785FF0446012C00D110BDEC
:101E000045F25551002007F014F800210420FFF797
:101E1000ABFF0020F3E710B54FF4806007F0AFF898
:101E200001280AD1800207F0BAF83948006808B9D9
:101E3000012000E00020364908604FF4800007F0E0
:101E400026FA10BDF0B587B004460D4616461F466B
:101E500000214FF4807006F084FD8DF800508DF85D
:101E600001608DF8027000208DF803008DF810409D
:101E70004FF080400390002002900098019001AA4A
:101E80004FF48071002006F0B5FC4FF4805007F04D
:101E9000B2F84FF4003007F0FAF90121080307F017
:101EA00039F80121080206F05CFD4FF4003005907E
:101EB00000208DF8180008208DF8190001208DF8F9
:101EC0001A0005A807F072F92920104908700220AD
:101ED000487088700120C870084605F01EF807B0E9
:101EE000F0BD10B54FF4807007F049F8012802D119
:101EF000000207F054F84FF4003007F0C8F910BDA5
:101F00007EF00008500000204C000020540000200B
:101F1000B402434210B588B004460121022005F006
:101F200081FB0121880405F0C6FB07220A21F7483E
:101F300005F069F907220B21F44805F064F94FF424
:101F40004060069002208DF81C008DF81D000020D6
:101F50008DF81E0001208DF81F0006A9EB4805F042
:101F6000CFF802940020ADF80C00ADF80E00ADF8EB
:101F70001000ADF814000C20ADF8120002A9E448DE
:101F800005F00BFD0121E24805F08FFD4021E048FE
:101F900005F073FE012240F22551DD4805F03BFEBD
:101FA00027208DF8040003208DF805008DF8060029
:101FB00001208DF8070001A804F0AFFF0220069071
:101FC00000208DF81C0003208DF81D0000208DF8E6
:101FD0001F0006A9CF4805F093F808B010BD00BF58
:101FE000CB49098811F0400FFAD0C949091D088072
:101FF000704710B503460C46002200BF985CFFF7FF
:10200000EEFF501C82B2A242F8DB10BD0FB438B50F
:102010000024002505A80090BF48009A049907F005
:1020200057FF00200090BC4808F05CF905460DE021
:1020300000BF4021B64805F013FE0028F9D0204625
:10204000641CB54A115CB24805F05AFD2800A5F1A0
:102050000105EDD138BC5DF814FB2DE9F0432DED01
:10206000068B83B0002440F22551A94805F00EFEEE
:10207000002808D0A64805F047FDC6B2532E03D16C
:102080000120A6490870ACE3452E7DD1A449A5A046
:1020900008F05CFA18B90020A549086009E2A049D7
:1020A000A4A008F053FA18B90120A1490860F5E787
:1020B0009B49A3A008F04AFA18B90020A349086078
:1020C000ECE79749A2A008F041FA18B901209F490E
:1020D0000860E3E79249A1A008F038FA18B9002097
:1020E000A1490860DAE78E49A0A008F02FFA18B9D4
:1020F00001209D490860D1E789499FA008F026FA90
:1021000018B901209F490860D3E185499EA008F0D5
:102110001DFA18B900209B490860FAE380499DA088
:1021200008F014FA20B91E219CA0FFF762FFF0E32B
:102130007B49A2A008F00AFA40B9A24808F0D2F8F8
:102140000446A1B29F4801F0E4FCE2E37448007841
:102150004E2878D14FF0000870480078401E6F4933
:1021600008700846007804281DD108460078C01E73
:102170006B49085C3038642110FB01F16748007836
:10218000801E674A105C00E0E3E3303800EB80001B
:1021900001EB400161480078401E105C0844303873
:1021A00000F0FF0822E05D480078032812D15B4868
:1021B0000078401E5A49095C58480078801E584AE9
:1021C000105C303800EB800001EB4000303800F04C
:1021D000FF080BE051480078022807D14F480078EB
:1021E000401E4F49085C303800F0FF08002001F025
:1021F00077FF0546454503DA7348007800B9A846DD
:1022000001271CE005F1FF00C01BFF2190FBF1F24C
:1022100001FB120000F0FF094FEA0931022250468B
:1022200002F077F9022000EB09315246584602F0DD
:1022300070F951465846FFF7DCFE781CC7B2474597
:10224000E0DD66E3FFE7364960A008F07FF900288B
:102250005AD1614890ED000A10EE101A08460BF0B2
:1022600037FA41EC100BB0EE408AF0EE608A5BA0CA
:1022700053EC182B5BA10090274807F03BFE264843
:1022800008F030F80446A1B22348FFF7B2FE5248E6
:1022900090ED010A10EE101A08460BF019FA41EC05
:1022A000100BB0EE408AF0EE608A4CA053EC182B75
:1022B0004CA10090184807F01DFE174808F012F8CE
:1022C0000446A1B21448FFF794FE434890ED020A79
:1022D00010EE101A08460BF0FBF941EC100BB0EEB3
:1022E000408AF0EE608A3DA053EC182B3DA100908F
:1022F000094807F0FFFD084807F0F4FF0446A1B2C3
:102300000548FFF776FE04E370E000000004024099
:102310000048004000180240100200205800002031
:10232000E00000206F70656E5F6C65643100000036
:10233000B4024342636C6F73655F6C656431000087
:102340006F70656E5F6C656432000000B8024342D6
:10235000636C6F73655F6C65643200006F70656EEF
:102360005F6C656433000000BC024342636C6F73B2
:10237000655F6C65643300006F70656E5F626565F4
:10238000700000009C024342636C6F73655F62657E
:10239000657000007465737400000000636F7272F2
:1023A0006563745F4F4B636F72726563745F4F4B0D
:1023B000636F72726563745F4F4B000044617461B8
:1023C00000000000100D00207200002073656E6494
:1023D0005F616363000000003C0300206D2F7332D7
:1023E00000000000252E336625730000FD49FEA085
:1023F00008F0ACF800285DD1FE4890ED000A10EE20
:10240000101A08460BF064F941EC100BB0EE408A4C
:10241000F0EE608AF8A053EC182BAFF23801009070
:10242000F64807F067FDF54807F05CFF0446A1B2E7
:10243000F248FFF7DEFDEF4890ED010A10EE101AAA
:1024400008460BF045F941EC100BB0EE408AF0EE77
:10245000608AE9A053EC182BAFF278010090E748AE
:1024600007F048FDE54807F03DFF0446A1B2E34808
:10247000FFF7BFFDDF4890ED020A10EE101A084684
:102480000BF026F941EC100BB0EE408AF0EE608ABA
:10249000D9A053EC182BAFF2B4010090D74807F045
:1024A00029FDD64807F01EFF0446A1B2D348FFF726
:1024B000A0FD2EE2CB49D2A008F048F800285DD15B
:1024C000D24890ED000A10EE101A08460BF000F901
:1024D00041EC100BB0EE408AF0EE608ACCA053ECD9
:1024E000182BAFF200110090C44807F003FDC34859
:1024F00007F0F8FE0446A1B2C048FFF77AFDC348D2
:1025000090ED010A10EE101A08460BF0E1F841ECCC
:10251000100BB0EE408AF0EE608ABDA053EC182B91
:10252000AFF240110090B54807F0E4FCB34807F063
:10253000D9FE0446A1B2B148FFF75BFDB34890ED68
:10254000020A10EE101A08460BF0C2F841EC100B0C
:10255000B0EE408AF0EE608AADA053EC182BAFF2DB
:102560007C110090A54807F0C5FCA44807F0BAFE0E
:102570000446A1B2A148FFF73CFDCAE19949A5A0D4
:1025800007F0E4FF18BBA648006808B9012000E086
:102590000020A3490860A34800680BF099F841ECBB
:1025A000100BB0EE408AF0EE608A9FA053EC182B1F
:1025B000AFF2D0110090914807F09CFC8F4807F0D3
:1025C00091FE0446A1B28D48FFF713FDA1E18549B4
:1025D00096A007F0BBFF38BB9148006808B90120FE
:1025E00000E000208E490860934890ED000A10EE4C
:1025F000101A08460BF06CF841EC100BB0EE408A54
:10260000F0EE608A8DA053EC182BAFF228210090D9
:102610007A4807F06FFC794807F064FE0446A1B2DF
:102620007648FFF7E6FC74E16E4985A007F08EFF5F
:10263000F0BB042000F076FF00EE100AB8EE400A6E
:10264000DFED820A80EE201A11EE105A28460BF0B8
:102650003FF841EC100BB0EE40AAF0EE60AA9FEDFF
:102660007C0B53EC102B51EC1A0B0AF03BFD41ECA8
:10267000100BB0EE409AF0EE609A9FED770B53ECA2
:10268000102B51EC190B0AF017FB41EC100BB0EEBC
:10269000408AF0EE608A51EC180B0AF01FFA70497C
:1026A0000860084600680BF013F841EC100B00E0DE
:1026B00015E0B0EE408AF0EE608A6AA053EC182B69
:1026C000AFF2E02100904D4807F014FC4B4807F0B2
:1026D00009FE0446A1B24948FFF78BFC19E14149C4
:1026E00061A007F033FFC8B900206249087062A3F7
:1026F000102282211420FFF72CFA63A310229621C6
:102700001420FFF726FA4FF6FF7040F23F13EF2236
:10271000AA2100900020FEF7F4FFFAE031495FA003
:1027200007F014FFC8B90120524908705EA31022B7
:1027300082211420FFF70DFA5FA3102296211420A6
:10274000FFF707FA4FF6FF7040F23F13EF22AA217E
:1027500000900020FEF7D5FFDBE0224800785428E7
:102760003ED12048007930381E49C978303901EB14
:10277000810100EB41005549C8701A488079303812
:1027800018494979303901EB810100EB41004F498B
:1027900048701448007A30381249C979303901EB51
:1027A000810100EB4100494988700E48807A303839
:1027B0000C49497A303901EB810100EB4100444971
:1027C00008700848007B30380649C97A303901EB77
:1027D000810100EB41003E4948700248807B79E06E
:1027E00097E0C9E0E000002073656E645F70616C83
:1027F0000000000048030020642F73001002002036
:1028000073656E645F616E67000000005403002012
:102810006400000073656E645F74656D0000000005
:10282000BC0243425C0000204300000073656E64FC
:102830005F64697331000000CC000020636D00000C
:1028400073656E645F766F6900000000000080456C
:102850000000000000E07A4000000000000014408A
:102860001C000020644200006170705F6D6F646541
:1028700031000000590000204150505F6D6F6465C9
:102880003A203020200000005761697420415050E8
:1028900020436F6E74726F6C000000006170705F97
:1028A0006D6F6465320000004150505F6D6F64656C
:1028B0003A2031202000000052656365697665206A
:1028C000616E642073656E6400000000500000209B
:1028D0004C00002030382B49497B303901EB810115
:1028E00000EB410028498870084680784978264DD9
:1028F000CDE900102B78254DAA786978E878FFF7A4
:10290000C2F9642007F0A5FA0A21AFF25C50FFF784
:1029100070FB1F480078012805D11A4B1022BE21F8
:102920001E20FFF716F900201A49087009E0002060
:102930001449184A1278885416480078401C1549E2
:102940000870144800782028F1DB00201149087035
:1029500012E01048007800280EDD0E480078B0F52F
:10296000967F09DC0B480078401E06490E54094842
:102970000078401C0749087003B0BDEC068BBDE829
:10298000F0830000E00000204C00002050000020F8
:10299000590000205800002000B587B00121042014
:1029A00004F040FE0121202004F096FE08220621BA
:1029B000FE4804F028FC08220721FC4804F023FC10
:1029C000C020059002208DF818008DF81900002015
:1029D0008DF81A0001208DF81B0005A9F34804F0BA
:1029E0008FFB4FF4165001900020ADF80800ADF8B1
:1029F0000A00ADF80C00ADF810000C20ADF80E0088
:102A000001A9EB4804F0C9FF0121E94805F04DF8A0
:102A10004021E74805F031F9012240F22551E44810
:102A200005F0F9F847208DF8000003208DF801002B
:102A30008DF8020001208DF80300684604F06DFA5D
:102A400007B000BD10B52DED068B40F22551D848DA
:102A500005F01CF958B3D64805F056F8C1B2D54870
:102A6000D54A12688154D4490968405C552805D07C
:102A7000D148006810B9BDEC068B10BDCE48006887
:102A8000401CCD490860084600680B280FD1012082
:102A9000CA4908600020C8490860C949C548026899
:102AA0000A6042684A6002890A81807A8872C34853
:102AB000006801287ED10020C0490860C149C04893
:102AC00002680A6042684A6002890A81807A8872D4
:102AD000084600785528EDD108464078512804D0A2
:102AE000522868D0532867D1B6E1B6498978B54AEB
:102AF000D27841EA022108B20AF0A1FA41EC100BA7
:102B0000B0EE40AAF0EE60AA9FEDAF0B53EC102B95
:102B100051EC1A0B0AF0D0F841EC100BB0EE409AD1
:102B2000F0EE609A9FEDAA0B53EC102B51EC190BB1
:102B30000AF0D8FA41EC100BB0EE408AF0EE608A51
:102B400051EC180B09F0CAFFA34908609D490979A7
:102B50009C4A527941EA022108B20AF070FA41EC2B
:102B6000100BB0EE40AAF0EE60AA9FED970B53EC6D
:102B7000102B51EC1A0B0AF09FF841EC100BB0EE41
:102B8000409AF0EE609A9FED920B53EC102B51ECB3
:102B9000190B0AF0A7FA41EC100BB0EE408AF0EEE8
:102BA000608A51EC180B09F099FF8B494860854900
:102BB000897902E017E261E013E2824AD27941EAC0
:102BC000022108B20AF03BFA41EC100BB0EE40AA29
:102BD000F0EE60AA9FED7C0B53EC102B51EC1A0B1E
:102BE0000AF06AF841EC100BB0EE409AF0EE609AF1
:102BF0009FED770B53EC102B51EC190B0AF072FA86
:102C000041EC100BB0EE408AF0EE608A51EC180BEC
:102C100009F064FF704988606A49097A694A527A02
:102C200041EA022108B20AF00AFA41EC100BB0EEB8
:102C300040AAF0EE60AA9FED690B53EC102B51EC0B
:102C40001A0B0AF039F841EC100BB0EE409AF0EE96
:102C5000609A9FED640B53EC102B51EC190B09F0AB
:102C60006FFF41EC100BB0EE408AF0EE608A51EC41
:102C7000180B09F033FF5D490860B3E151498978C9
:102C8000504AD27841EA022108B20AF0D8F941EC60
:102C9000100BB0EE40AAF0EE60AA9FED4B0B53EC88
:102CA000102B51EC1A0B0AF007F841EC100BB0EEA8
:102CB000409AF0EE609A9FED4E0B53EC102B51ECC6
:102CC000190B0AF00FFA41EC100BB0EE408AF0EE4F
:102CD000608A51EC180B09F001FF47490860394937
:102CE0000979384A527941EA022108B20AF0A7F973
:102CF00041EC100BB0EE40AAF0EE60AA9FED320B53
:102D000053EC102B51EC1A0B09F0D6FF41EC100BD1
:102D1000B0EE409AF0EE609A9FED350B53EC102B1D
:102D200051EC190B0AF0DEF941EC100BB0EE408AC1
:102D3000F0EE608A51EC180B09F0D0FE2E49486085
:102D4000204989791F4AD27941EA022108B20AF062
:102D500076F941EC100BB0EE40AAF0EE60AA9FEDC0
:102D60001A0B53EC102B51EC1A0B09F0A5FF41EC98
:102D7000100BB0EE409AF0EE609A9FED1D0B53ECF5
:102D8000102B51EC190B0AF0ADF941EC100BB0EE21
:102D9000408AF0EE608A51EC180B09F09FFE16494C
:102DA00088600849097A074A527A27E000080240F9
:102DB00000140140A20300206400002060000020F5
:102DC0006003002081030020000000000000E040BC
:102DD00000000000000030403C0300200000000024
:102DE0000040754000000000002042405C000020D0
:102DF0000000000000409F404803002041EA0221FB
:102E000008B20AF01CF941EC100BB0EE40AAF0EE4B
:102E100060AA1FED0E0B53EC102B51EC1A0B09F0AE
:102E20004BFF41EC100BB0EE408AF0EE608A1FEDD4
:102E3000130B53EC102B51EC180B09F081FE41ECF5
:102E4000100BB0EE409AF0EE609A51EC190B09F0BD
:102E500045FE66490860C5E065498978644AD278CC
:102E600041EA022108B20AF0EAF841EC100BB0EE98
:102E700040AAF0EE60AA1FED2C0B53EC102B51EC86
:102E80001A0B09F019FF41EC100BB0EE409AF0EE6E
:102E9000609A9FED580B53EC102B51EC190B0AF074
:102EA00021F941EC100BB0EE408AF0EE608A51EC53
:102EB000180B09F013FE514908604D4909794C4A35
:102EC000527941EA022108B20AF0B9F841EC100B3C
:102ED000B0EE40AAF0EE60AA1FED450B53EC102BAC
:102EE00051EC1A0B09F0E8FE41EC100BB0EE409AE1
:102EF000F0EE609A9FED3F0B53EC102B51EC190B49
:102F00000AF0F0F841EC100BB0EE408AF0EE608A67
:102F100051EC180B09F0E2FD3849486034498979D1
:102F2000334AD27941EA022108B20AF088F841EC2A
:102F3000100BB0EE40AAF0EE60AA1FED5D0B53EC53
:102F4000102B51EC1A0B09F0B7FE41EC100BB0EE50
:102F5000409AF0EE609A9FED270B53EC102B51EC4A
:102F6000190B0AF0BFF841EC100BB0EE408AF0EEFE
:102F7000608A51EC180B09F0B1FD204988601C49AA
:102F8000097A1B4A527A41EA022108B20AF057F83C
:102F900041EC100BB0EE40AAF0EE60AA1FED710BF1
:102FA00053EC102B51EC1A0B09F086FE41EC100B80
:102FB000B0EE409AF0EE609A1FED760B53EC102BBA
:102FC00051EC190B09F0BCFD41EC100BB0EE408A3E
:102FD000F0EE608A51EC180B09F080FD034908609F
:102FE00000E000BF00BF00BF45E500005C0000201E
:102FF0008103002000000000008066405403002090
:1030000000B587B00121C80404F055FB0121084632
:1030100004F008FB08220021FD4804F0F4F808221F
:103020000121FB4804F0EFF80320059002208DF801
:10303000180003208DF8190000208DF81A000120D7
:103040008DF81B0005A9F24804F05AF84FF4E1305E
:1030500001900020ADF80800ADF80A00ADF80C00B2
:10306000ADF810000C20ADF80E0001A9E94804F0FD
:1030700094FC012240F22551E64804F0CCFD0121E8
:10308000E44804F012FD4021E24804F0F6FD34204B
:103090008DF8000001208DF8030002208DF801005A
:1030A0008DF80200684603F038FF07B000BD0FB48A
:1030B00038B50024002505A80090D748009A049947
:1030C00006F006FF00200090D34807F00BF90546F4
:1030D0000DE000BF4021CF4804F0C2FD0028F9D028
:1030E0002046641CCC4A115CCA4804F009FD280043
:1030F000A5F10105EDD138BC5DF814FB70B50446AF
:103100000D4600262146C5A0FFF7D1FF28E0C5A146
:10311000C54807F0B1F880B14FF48061C24807F0AC
:10312000C2F90020C1490860C148006808B90120FF
:1031300000E00020BE49086014E0BEA1BA4807F0D4
:103140009BF860B12146B5A0FFF7B1FF0026002033
:10315000B64908604FF48061B34807F0A4F9761CC3
:10316000AE42D4DB00BF70BD00B52DED068B81B043
:10317000B0EE408AF0EE608AB0EE419AAFA1A7A00F
:10318000FFF795FFC82006F064FEAAA1A64807F045
:1031900073F858B14FF48061A34807F084F9A7A1F0
:1031A0009EA0FFF784FFC82006F053FE18EE100A19
:1031B0000AF08EFA41EC100BB0EE40AAF0EE60AAD5
:1031C000A1A053EC1A2B0090A1A0FFF770FF18EEFE
:1031D000900A0AF07DFA41EC100BB0EE40AAF0EE36
:1031E00060AA99A053EC1A2B009099A0FFF75FFFFB
:1031F00019EE100A0AF06CFA41EC100BB0EE40AA7E
:10320000F0EE60AA90A053EC1A2B009090A0FFF76C
:103210004EFF1A217F4804F073FCC82006F019FE07
:1032200001B0BDEC068B00BD00B52DED068B81B065
:10323000B0EE408AF0EE608AB0EE419A7FA177A0AE
:10324000FFF735FFC82006F004FE7AA1764807F0A4
:1032500013F858B14FF48061734807F024F977A14F
:103260006EA0FFF724FFC82006F0F3FD18EE100A49
:103270000AF02EFA41EC100BB0EE40AAF0EE60AA74
:1032800075A053EC1A2B009071A0FFF710FF18EEF9
:10329000900A0AF01DFA41EC100BB0EE40AAF0EED5
:1032A00060AA6DA053EC1A2B009069A0FFF7FFFEF7
:1032B00019EE100A0AF00CFA41EC100BB0EE40AA1D
:1032C000F0EE60AA64A053EC1A2B009060A0FFF708
:1032D000EEFE1A214F4804F013FCC82006F0B9FD99
:1032E00001B0BDEC068B00BD00B52DED068B81B0A5
:1032F000B0EE408AF0EE608AB0EE419A4FA147A04E
:10330000FFF7D5FEC82006F0A4FD4AA1464806F006
:10331000B3FF58B14FF48061434807F0C4F847A1A8
:103320003EA0FFF7C4FEC82006F093FD18EE100A79
:103330000AF0CEF941EC100BB0EE40AAF0EE60AA14
:1033400047A053EC1A2B009041A0FFF7B0FE18EEF7
:10335000900A0AF0BDF941EC100BB0EE40AAF0EE75
:1033600060AA3FA053EC1A2B009039A0FFF79FFEF4
:1033700019EE100A0AF0ACF941EC100BB0EE40AABD
:10338000F0EE60AA36A053EC1A2B009030A0FFF7A5
:103390008EFE1A211F4804F0B3FBC82006F059FD29
:1033A00001B0BDEC068B00BD10B5FFF729FE41F260
:1033B000883006F06AFD05212BA0FFF79FFE4FF431
:1033C000FA6006F062FD05212AA0FFF797FE4FF490
:1033D000FA6006F05AFD14212AA0FFF78FFE4FF481
:1033E000FA6006F052FD10BD10B540F225510948B3
:1033F00004F04CFC58B1074804F086FB0A490B4A1C
:103400001268885409480068401C0849086010BDCB
:1034100000000240004C0040C807002025730D0A40
:10342000000000004F4B0000C8030020680000208F
:10343000BC0243424552524F5200000041542B43BC
:10344000495053454E4400006D2F73322C2000002C
:10345000252E336625730000E5BAA62F732C2000B5
:10346000E5BAA62C2000000041542B434741545498
:103470003D31000041542B43474143543D312C31F1
:103480000000000041542B43495053544152543DD5
:103490005443502C3232332E332E34382E313530C3
:1034A0002C3832363600000000B58DB001210846B8
:1034B00004F0B8F80121080204F00EF910200B9076
:1034C00003208DF8300000208DF833000BA92C4824
:1034D00003F016FE0121080204F053F900214FF415
:1034E000807004F04EF9002007900A9009904FF484
:1034F0008030089007A805F00DFF002001908DF89E
:1035000008008DF809000390059001208DF818003F
:1035100001A91C4805F0CFFE01211A4805F016FF4D
:103520000DB000BD10B50446072301222146154801
:1035300005F04CFF134805F0A5FF00BF022111481C
:1035400006F0ABF80028F9D00E4805F0D7FF10BD03
:103550002DE9F04107460C460025002608E03846D4
:10356000FFF7E0FF0544052006F073FC701CC6B2AF
:10357000A642F4DBB5FBF4F080B2BDE8F0810000B8
:10358000000002400020014010B588B0044601212F
:10359000084604F047F80121480404F08CF807229B
:1035A0000221834803F02FFE07220321804803F005
:1035B0002AFE0C20069002208DF81C0003208DF8B6
:1035C0001D0000208DF81E0001208DF81F0006A9A7
:1035D000774803F095FD4020069001208DF81C00EF
:1035E00003208DF81D0000208DF81E0001208DF8AD
:1035F0001F0006A96F4803F083FD02940020ADF878
:103600000C00ADF80E00ADF81000ADF814000C2061
:10361000ADF8120002A9684804F0BFF9012166481C
:1036200004F043FA4021644804F027FB012240F2F1
:103630002551614804F0EFFA26208DF8040003209C
:103640008DF805008DF8060001208DF8070001A80F
:1036500003F063FC00205949086008B010BD10B5A4
:1036600040F22551544804F011FB002857D052482D
:1036700004F04AFAC4B2532C03D101205049087017
:103680004DE0452C39D14F494FA006F05FFF18B9E6
:1036900000205049086019E04A494FA006F056FF43
:1036A00018B901204B49086010E046494DA006F0CA
:1036B0004DFF18B901204E49086007E041494DA06F
:1036C00006F044FF10B90020494908604FF000009F
:1036D0003B49087009E000203A49394A1278885479
:1036E00037480078401C3649087035480078202853
:1036F000F1DB00203249087011E0314800780028E1
:103700000DDD2F480078802809DC2D480078401E08
:103710002C490C542A480078401C2949087010BDD7
:1037200070B505460E460120244908604FF000049C
:103730000CE000BF4021204804F092FA0028F9D0A4
:10374000295D1D4804F0DCF9601CC4B2B442F0DB12
:1037500000BF4021184804F083FA0028F9D0002067
:10376000174908701549086070BD2DE9F0410746FA
:103770000D46134806780024002028700A2006F021
:1037800068FB0F48007886420FD176B100BF04E095
:103790000C48005D3855601CC4B2B442F8DB0848E0
:1037A00000782870002006490870BDE8F08100000C
:1037B00000000240001802400044004098024342CA
:1037C0006C000020C80B00204C696768745F6C6552
:1037D00064310000B8024342436C6F73655F6C65EF
:1037E000643100004F70656E5F62656570000000B7
:1037F0009C024342436C6F73655F626565700000B5
:1038000000B58DB00121084603F00CFF012108022C
:1038100003F062FF20200B9003208DF83000002081
:103820008DF833000BA9894803F06AFC01210802D6
:1038300003F0A7FF00214FF4807003F0A2FF0020E7
:1038400007900A9009904FF48030089007A805F07F
:1038500061FD002001908DF808008DF809000390AB
:10386000059001208DF8180001A9794805F023FD85
:103870000121774805F06AFD0DB000BD00B58DB09F
:103880000121084603F0CEFE0121080203F024FFC7
:1038900040200B9003208DF8300000208DF833007D
:1038A0000BA96A4803F02CFC0121080203F069FF10
:1038B00000214FF4807003F064FF002007900A900D
:1038C00009904FF48030089007A805F023FD0020F0
:1038D00001908DF808008DF80900039005900120F3
:1038E0008DF8180001A95A4805F0E5FC0121584857
:1038F00005F02CFD0DB000BD00B58DB001210846CE
:1039000003F090FE0121080203F0E6FE80200B90F8
:1039100003208DF8300000208DF833000BA94B48B0
:1039200003F0EEFB0121080203F02BFF00214FF40E
:10393000807003F026FF002007900A9009904FF452
:103940008030089007A805F0E5FC002001908DF874
:1039500008008DF809000390059001208DF81800EB
:1039600001A93B4805F0A7FC0121394805F0EEFC10
:103970000DB000BD00B58DB00121084603F052FE28
:103980000121080203F0A8FE4FF480700B90032081
:103990008DF8300000208DF833000BA92B4803F080
:1039A000AFFB0121080203F0ECFE00214FF4807010
:1039B00003F0E7FE002007900A9009904FF4803052
:1039C000089007A805F0A6FC002001908DF80800DB
:1039D0008DF809000390059001208DF8180001A9C9
:1039E0001B4805F068FC0121194805F0AFFC0DB03B
:1039F00000BD10B50446072301222146144805F0F6
:103A0000E5FC134805F03EFD00BF0221104805F01B
:103A100044FE0028F9D00E4805F070FD10BD2DE9D8
:103A2000F04107460C460025002608E03846FFF71F
:103A3000E0FF0544052006F00CFA701CC6B2A64251
:103A4000F4DBB5FBF4F080B2BDE8F0810000024089
:103A50000020014010B588B004460121084603F05B
:103A6000E1FD0121102003F037FE07220921E8487B
:103A700003F0C9FB07220A21E54803F0C4FB4FF419
:103A8000C060069002208DF81C008DF81D000020FB
:103A90008DF81E0001208DF81F0006A9DC4803F0F8
:103AA0002FFB02940020ADF80C00ADF80E00ADF82D
:103AB0001000ADF814000C20ADF8120002A9D54892
:103AC00003F06BFF0121D34803F0EFFF4021D14801
:103AD00004F0D3F8012240F22551CE4804F09BF8BF
:103AE00025208DF8040003208DF805008DF80600D0
:103AF00001208DF8070001A803F00FFA08B010BDEF
:103B000000BFC449098811F0400FFAD0C14988802C
:103B1000704710B503460C46002200BF985CFFF7C3
:103B2000EFFF501C82B2A242F8DB10BD2DE9F0413C
:103B300094B00027002440F22551B64804F0A6F8BE
:103B4000002814D0B448006808B9012000E0002023
:103B5000B1490860AF4803F0D7FFC5B27B2D07D14C
:103B6000AE48AF49097845540120AD4908704CE191
:103B70007D2D74D1AB48006808B9012000E0002019
:103B8000A84908604FF020010CA806F08CFC4F20DB
:103B90008DF830004B208DF831000D208DF832006B
:103BA0000A208DF833000CA806F09CFB0746B9B23A
:103BB0000CA8FFF7AEFF002000F092FA9A490870B7
:103BC00008460078FF2804DB002008700120974990
:103BD000087095480078401C9349087008460178A1
:103BE000002000F09BFA90480078FFF789FF8B488F
:103BF0008B49097845548A480078401C88490870E8
:103C000000F075FE8A49086000F07DFE8949086071
:103C1000824801F00AFA864908600846006890ED7B
:103C2000040A8448006880ED030A0846006890EDA5
:103C3000020A8048006880ED010A0846006890ED9D
:103C4000030A7C48006880ED020A0846006890ED8F
:103C5000010A7848006880ED000A00240FE0C3E004
:103C600073480068203000EB840090ED000A714832
:103C70000068103000EB840080ED000A641C032C07
:103C8000EEDB00240EE06A480068143000EB84008C
:103C900090ED000A674800681C3000EB840080ED5E
:103CA000000A641C032CEEDB634890ED000A6148B7
:103CB000006880ED0A0A00240CE0604800EB8400F4
:103CC00090ED000A5B4800682C3000EB840080ED2A
:103CD000000A641C032CF0DB00240CE0584800EBC5
:103CE000840090ED000A53480068383000EB8400EF
:103CF00080ED000A641C032CF0DB00240CE051482A
:103D000000EB840090ED000A4A480068443000EB64
:103D1000840080ED000A641C032CF0DB00240CE01E
:103D2000494800EB840090ED000A4248006850309A
:103D300000EB840080ED000A641C032CF0DB002003
:103D4000FDF7D4FF41488078404949783F4A1278CE
:103D50003F4B9B78CDE90032CDE902103C484378D7
:103D6000C2783CA104A806F0C5F804A806F0BAFA87
:103D700007461E21002003F090F82E4909680866C6
:103D80002C4909683A46086E04A906F0B3FB294895
:103D9000006801F03BF980464146364806F07EFA5D
:103DA000344806F09FFA86B21F480078401E01038F
:103DB0000222304600F08BFC1B480078401E022295
:103DC00002EB003132462B4800F081FC002403E076
:103DD000002012490855641C114800788442F7DB22
:103DE00000200F49087010E00D48007800280CDD15
:103DF0000B480078C82808DC084809490978455468
:103E000007480078401C0649087014B0BDE8F081EE
:103E10000000024000100140B8024342480C00205C
:103E200070000020BC02434271000020720000209C
:103E300074000020780000201C0000203C030020BB
:103E40004803002054030020CC0000204C00002038
:103E5000500000203230253032642F253032642F5C
:103E60002530326420253032643A253032643A25D8
:103E700030326400100D00201CB50121022003F037
:103E8000D1FB4FF44070009001208DF80400002019
:103E90008DF8060003208DF8050001208DF807003D
:103EA0006946DA4803F02CF90120D9490860D9495C
:103EB000C1F8A4021CBD10B5D448006820F440200D
:103EC000D24908600846006840F48020086001205C
:103ED000D1490860CF49C1F8A0024FF0040005F0B5
:103EE00072FF0020CC4908604FF0040005F06BFF22
:103EF0000020C849C1F8A00210BD10B5C348006831
:103F000020F44020C14908600846006840F4802041
:103F100008600020BE490860BE49C1F8A4024FF005
:103F2000040005F050FF0120B9490860B949C1F803
:103F3000A4024FF0040005F046FF10BD10B50024A8
:103F4000B248006820F44020B04908600846006884
:103F500008600120B049086005F035FF0120AD4937
:103F6000C1F8A00205F02FFF07E0601CC4B2FA2CD4
:103F700003DDFFF7C2FF012010BDA848006800283C
:103F8000F3D1A349086000BFF6E710B50020A049AF
:103F900008609E48006820F440209C49086008465C
:103FA000006840F4802008604FF000009949C1F893
:103FB000A4024FF0020005F006FF012094490860BA
:103FC0004FF0020005F0FFFE00209249C1F8A00268
:103FD00010BD10B500208E4908608C48006820F4A0
:103FE00040208A4908600846006840F48020086044
:103FF0004FF001008749C1F8A4024FF0020005F01C
:10400000E2FE0120824908604FF0020005F0DBFE6D
:1040100000208049C1F8A00210BD70B504467B485D
:10402000006820F44020794908600846006840F4A0
:104030008020086000207649086005461AE0E00903
:10404000754908604FEA44604FEA10644FF002007F
:1040500005F0B9FE01206F49C1F8A002022005F069
:10406000B2FE00206A4908604FF0020005F0ABFE86
:10407000681CC5B2082DE2DB70BD70B50546002492
:104080006248006820F440206049086008460068E3
:104090000860002616E000205D4908604FF002002D
:1040A00005F091FE01205B49C1F8A0026006040EF4
:1040B0005A48006808B1601CC4B2012005F083FEB4
:1040C000701CC6B2082EE6DB15B9FFF782FF01E0CF
:1040D000FFF75BFF204670BD10B5FFF7CDFE10BDAA
:1040E00070B504460025FFF7E6FEA020FFF795FF18
:1040F000FFF724FF2046FFF790FFFFF71FFFFFF7B2
:10410000DAFEA120FFF789FFFFF718FF0020FFF775
:10411000B4FF0546FFF7F1FE284670BD70B50546B1
:104120000C46FFF7C8FEA020FFF777FFFFF706FF5A
:104130002846FFF772FFFFF701FF2046FFF76DFFEC
:10414000FFF7FCFEFFF7D9FE0A2005F082FE70BDE6
:1041500010B5FF20FFF7C4FF0446AB2C01D10020AF
:1041600010BDAB21FF20FFF7D9FFFF20FFF7B8FFFD
:104170000446AB2C01D10020F2E70120F0E7F0B5B6
:1041800004460E461D46002365B1002106E0C80026
:1041900026FA00F004F8010B481CC1B29142F6DB8C
:1041A0000020F0BD0026501E0444002105E01B0243
:1041B00014F801793B44481CC1B29142F7DB184620
:1041C000EFE770B505460C46164606E028466A1C21
:1041D000D5B2FFF785FF04F8010B3000A6F101010D
:1041E000CEB2F3D170BD70B505460C46164606E05A
:1041F00021782846FFF792FF681CC5B2641C300086
:10420000A6F10101CEB2F3D170BD0000000402405E
:10421000A082404200804042A48240422482404228
:1042200070B50546002400BF0221484805F076FC21
:104230000028F9D0601CC4B2C82C01DD002070BD7C
:104240002946424805F021FC00BF01213F4805F006
:1042500065FC0028F9D0601CC4B2C82C01DD002028
:10426000EDE73A4805F00EFCC0B2E8E700B587B0CC
:104270000121022003F0D6F90121080303F02CFAF2
:104280003820059002208DF8180000208DF81A00C3
:1042900003208DF8190001208DF81B0005A92C487A
:1042A00002F02EFF05220321294802F0ACFF05226F
:1042B0000421274802F0A7FF05221146244802F0F6
:1042C000A2FF0121080303F05CFA00214FF48050A3
:1042D00003F057FA0020ADF800004FF48270ADF8FB
:1042E00002000020ADF804000220ADF80600012015
:1042F000ADF808004002ADF80A003820ADF80C0017
:104300000020ADF80E000720ADF8100069460F48F8
:1043100005F042FA01210D4805F036FBFF20FFF7BA
:104320007FFF07B000BD10B50446084800884FF66F
:10433000C771084005490880084600882043088066
:104340000121024805F020FB10BD000000300140B3
:104350000004024010B500240020FD4908604FF021
:104360009000FFF75DFF0020FFF75AFF0020FFF7E6
:1043700057FF0020FFF754FFFF20FFF751FF44EAEB
:104380000024FF20FFF74CFF04430120F149C1F84E
:10439000A002204610BD1CB50121402003F042F9C7
:1043A0004FF48070009001208DF8040000208DF8FB
:1043B000060003208DF8050001208DF807006946EE
:1043C000E54802F09DFE0120E1490860FFF74EFF3D
:1043D0000020FFF7A8FFFFF7BDFFE04908801CBDE4
:1043E00010B500240020DA4908604FF00500FFF7FF
:1043F00017FFFF20FFF714FF04460120D549C1F83D
:10440000A002204610BD10B504460020D049086027
:104410004FF00100FFF704FF2046FFF701FF0120E6
:10442000CC49C1F8A00210BD10B50020C8490860F1
:104430004FF00600FFF7F4FE0120C649C1F8A002C4
:1044400010BD10B500BFFFF7CBFF10F0010FFAD180
:1044500010BD10B50020BE4908604FF00400FFF702
:10446000DFFE0120BB49C1F8A00210BD10B5FFF767
:10447000DBFFFFF7E6FF0020B54908604FF0C700FB
:10448000FFF7CEFE0120B349C1F8A002FFF7D9FF24
:1044900010BD10B504462403FFF7C6FFFFF7D1FF98
:1044A0000020AB4908604FF02000FFF7B9FEC4F3CD
:1044B0000740FFF7B5FEC4F30720FFF7B1FEE0B2F7
:1044C000FFF7AEFE0120A349C1F8A002FFF7B9FF34
:1044D00010BD10B500209E4908604FF0B900FFF7ED
:1044E0009FFE01209B49C1F8A002032005F06BFC50
:1044F00010BD10B50020964908604FF0AB00FFF7E3
:104500008FFE01209349C1F8A002032005F05BFC57
:1045100010BD70B505460C46164600208C49086053
:104520004FF00300FFF77CFEC4F30740FFF778FE6F
:10453000C4F30720FFF774FEE0B2FFF771FE04E05A
:10454000FF20FFF76DFE28706D1C3000A6F1010101
:104550008EB2F5D101207E49086070BD70B5054668
:104560000C461646FFF760FF0020794908604FF0BF
:104570000200FFF755FEC4F30740FFF751FEC4F3F6
:104580000720FFF74DFEE0B2FFF74AFE03E0287870
:10459000FFF746FE6D1C3000A6F101018EB2F6D188
:1045A00001206B490860FFF74CFF70BD2DE9F05FFB
:1045B00007460E4614464FF00008C146C246002585
:1045C000AB4606F0FF0ACAF10000C5B22046E1176B
:1045D00004EB1161C1F30728E11704EB1161091223
:1045E000A4EB012101F0FF09BAF1000F20D1B8F1CD
:1045F000000F05D1224631463846FFF7AFFF64E091
:1046000009E04FF4807231463846FFF7A7FF06F500
:10461000807607F580775FEA0800A8F1010101F0D4
:10462000FF08EED14A4631463846FFF797FF4CE087
:10463000B8F1000F18D1A94510DDA9EB050000F075
:10464000FF0B2A4631463846FFF788FF2E442F4499
:104650005A4631463846FFF781FF36E0224631465A
:104660003846FFF77BFF30E0601B84B22046E1173D
:1046700004EB1161C1F30728E11704EB1161091282
:10468000A4EB012101F0FF092A4631463846FFF725
:1046900065FF2E442F4409E04FF4807231463846BE
:1046A000FFF75CFF06F5807607F580775FEA080084
:1046B000A8F1010101F0FF08EED1B9F1000F04D01B
:1046C0004A4631463846FFF749FFBDE8F09F2DE9DD
:1046D000F05F81460F4616460025DFF884B04FEAAA
:1046E0001738C7F30B0ACAF58054A64200DC3446DB
:1046F0004FE04FEA08314FF480525846FFF709FF68
:10470000002504E0681C85B2A54200D105E00AEB53
:1047100005001BF80000FF28F4D000BFA54221DAF5
:104720004046FFF7B6FE002507E019F8050005EB47
:104730000A010BF80100681C85B2A542F5DB4FEABF
:1047400008314FF480525846FFF730FF0FE0000069
:10475000A002434200004342001802407C000020B7
:10476000040F0020224639464846FFF71FFFA642A5
:1047700000D10FE008F101084FF0000AA1442744DE
:10478000301B86B2B6F5805F02DD4FF4805400E046
:104790003446AEE700BFBDE8F09F000000219FED6A
:1047A000FE0A80ED040A9FEDFC0A80ED020A9FEDEF
:1047B000FA0A80ED030A9FEDF80A80ED010AF7A2DC
:1047C000026000BF09E09FEDF40A00F1200202EB55
:1047D000810282ED000A4A1CD1B20329F3DB0021D9
:1047E00009E09FEDED0A00F1140202EB810282ED77
:1047F000000A4A1CD1B20329F3DB704701460020AE
:104800009FEDE50A81ED030A9FEDE30A81ED010AC0
:104810009FEDE10A81ED020A9FEDDF0A81ED000ABA
:10482000DEA20A6600BF09E09FEDDB0A01F110027B
:1048300002EB800282ED000A421CD0B20328F3DBB7
:10484000002009E09FEDD40A01F11C0202EB800276
:1048500082ED000A421CD0B20328F3DB9FEDCE0AA2
:1048600081ED0A0A002009E09FEDCB0A01F12C023C
:1048700002EB800282ED000A421CD0B20328F3DB77
:10488000002009E09FEDC40A01F1380202EB80022A
:1048900082ED000A421CD0B20328F3DB002009E0BD
:1048A0009FEDBD0A01F1440202EB800282ED000A95
:1048B000421CD0B20328F3DB002009E09FEDB60ACA
:1048C00001F1500202EB800282ED000A421CD0B2DC
:1048D0000428F3DB704710B504462046FFF75EFF5F
:1048E00010BD10B504462046FFF788FF10BD10B577
:1048F0002C21002002F0D1FA044614B12046FFF723
:104900004DFF204610BD10B56421002002F0C5FA0D
:10491000044614B12046FFF771FF204610BD10B5C4
:1049200004461CB12146002002F0A7FA10BD10B5C4
:1049300004461CB12146002002F09FFA10BD80ED14
:10494000010A704780ED020A704780ED030A704744
:1049500080ED040A7047016070470246002000BFE6
:104960000BE001EB800393ED000A02F1200303EB5F
:10497000800383ED000A431CD8B20328F1DB7047A3
:104980000246002000BF0BE001EB800393ED000A1C
:1049900002F1140303EB800383ED000A431CD8B239
:1049A0000328F1DB704790ED010A704790ED020A91
:1049B000704790ED030A704790ED040A7047014676
:1049C000086870472DE9F0472DED028B05462C460F
:1049D00002F02AF8814694ED010A10EE101A0846FA
:1049E00008F076FE41EC100BB0EE408AF0EE608AE3
:1049F00001F0EBFF0646324669A1484601F0B9FED8
:104A000094ED020A10EE101A084608F061FE41EC1F
:104A1000100BB0EE408AF0EE608A01F0D6FF064639
:104A2000324662A1484601F0A4FE94ED030A10EE5E
:104A3000101A084608F04CFE41EC100BB0EE408A0C
:104A4000F0EE608A01F0C1FF064632465AA14846A0
:104A500001F08FFE94ED040A10EE101A084608F0DB
:104A600037FE41EC100BB0EE408AF0EE608A01F0A8
:104A7000ACFF0646324652A1484601F07AFE0027B6
:104A800001F0C9FF06460EB319E038467F1C04F159
:104A9000200202EB800090ED000A10EE101A08468A
:104AA00008F016FE41EC100BB0EE408AF0EE608A82
:104AB00001F08BFF80464146304601F045FE032F52
:104AC000E3D3324641A1484601F053FE002701F0EE
:104AD000A2FF06460EB319E038467F1C04F114020B
:104AE00002EB800090ED000A10EE101A084608F064
:104AF000EFFD41EC100BB0EE408AF0EE608A01F061
:104B000064FF80464146304601F01EFE032FE3D38A
:104B1000324630A1484601F02CFE206801F06DFFBE
:104B2000064632462DA1484601F023FE4846BDEC1C
:104B3000028BBDE8F0872DE9F0472DED028B05468D
:104B40002C4601F071FF074694ED000A10EE101A92
:104B5000084608F0BDFD41EC100BB0EE408AF0EEC7
:104B6000608A01F032FF064632460DA1384601F058
:104B700000FE94ED010A10EE101A084608F0A8FD98
:104B800041EC100BB0EE408AF0EE608A01F01DFFA0
:104B90000646324605A125E00000000000000000A6
:104BA00074656D70657261747572650068756D69A4
:104BB00064697479000000006C6967687400000023
:104BC00064697374616E636500000000766F6C74D5
:104BD00061676500416D7065720000006461746515
:104BE00000000000384601F0C4FD94ED020A10EE0A
:104BF000101A084608F06CFD41EC100BB0EE408A2C
:104C0000F0EE608A01F0E1FE06463246AFF258014E
:104C1000384601F0AEFD94ED030A10EE101A084676
:104C200008F056FD41EC100BB0EE408AF0EE608AC1
:104C300001F0CBFE06463246AFF27C01384601F069
:104C400098FD4FF0000801F0E6FE064626B31AE094
:104C5000404608F1010804F1100202EB800090EDDB
:104C6000000A10EE101A084608F032FD41EC100B55
:104C7000B0EE408AF0EE608A01F0A7FE8146494618
:104C8000304601F061FDB8F1030FE1D33246AFF2D7
:104C9000C401384601F06DFD4FF0000801F0BBFE85
:104CA000064626B31AE0404608F1010804F11C024A
:104CB00002EB800090ED000A10EE101A084608F092
:104CC00007FD41EC100BB0EE408AF0EE608A01F077
:104CD0007CFE81464946304601F036FDB8F1030FAF
:104CE000E1D33246AFF21411384601F042FD94EDA3
:104CF0000A0A10EE101A084608F0EAFC41EC100B04
:104D0000B0EE408AF0EE608A01F05FFE0646324661
:104D1000D6A1384601F02DFD4FF0000801F07BFED2
:104D200006461EB31AE0404608F1010804F12C02C1
:104D300002EB800090ED000A10EE101A084608F011
:104D4000C7FC41EC100BB0EE408AF0EE608A01F037
:104D50003CFE81464946304601F0F6FCB8F1030FAF
:104D6000E1D33246C3A1384601F003FD4FF00008FD
:104D700001F051FE06461EB31AE0404608F1010854
:104D800004F1380202EB800090ED000A10EE101AD8
:104D9000084608F09DFC41EC100BB0EE408AF0EEA6
:104DA000608A01F012FE81464946304601F0CCFC93
:104DB000B8F1030FE1D33246AFA1384601F0D9FC78
:104DC0004FF0000801F027FE06461EB31AE04046E9
:104DD00008F1010804F1440202EB800090ED000AA2
:104DE00010EE101A084608F073FC41EC100BB0EE00
:104DF000408AF0EE608A01F0E8FD8146494630467F
:104E000001F0A2FCB8F1030FE1D332469BA1384672
:104E100001F0AFFC4FF0000801F0FDFD06461EB3A7
:104E20001AE0404608F1010804F1500202EB80004C
:104E300090ED000A10EE101A084608F049FC41EC0B
:104E4000100BB0EE408AF0EE608A01F0BEFD8146A4
:104E50004946304601F078FCB8F1040FE1D3324600
:104E600088A1384601F085FC206E01F0C6FD06469B
:104E70003246AFF29821384601F07BFC3846BDEC53
:104E8000028BBDE8F0872DE9F04781467E482C2152
:104E900002680020904705461DB12C21284605F0E8
:104EA00002FBAFF20431484601F013FC044654B152
:104EB00094ED061BB0EE410AF0EE610A51EC100BC6
:104EC00007F00CFE6860AFF21C31484601F001FCAF
:104ED000044654B194ED061BB0EE410AF0EE610AAF
:104EE00051EC100B07F0FAFDA860AFF234314846E0
:104EF00001F0EFFB044654B194ED061BB0EE410AFD
:104F0000F0EE610A51EC100B07F0E8FDE860AFF23B
:104F10005031484601F0DDFB044654B194ED061BC8
:104F2000B0EE410AF0EE610A51EC100B07F0D6FD2D
:104F300028610027BA46AFF26C31484601F0C9FB40
:104F40008046B8F1000F1CD0404601F0B0FB82460D
:104F500015E03946404601F0B3FB06467EB196EDBA
:104F6000061BB0EE410AF0EE610A51EC100B07F09F
:104F7000B5FD39467F1C05F1200242F82100574556
:104F8000E7D30027BA46AFF2B431484601F0A1FB9F
:104F90008046B8F1000F1CD0404601F088FB8246E5
:104FA00015E03946404601F08BFB06467EB196ED92
:104FB000061BB0EE410AF0EE610A51EC100B07F04F
:104FC0008DFD39467F1C05F1140242F8210057453A
:104FD000E7D3AFF2F831484601F07BFB04461CB141
:104FE0002169286805F05AF92846BDE8F08770B5B0
:104FF00004462046FFF7E6FC0646304601F03AFB41
:105000000546304600F095F8284670BD70B5044658
:105010002046FFF790FD0646304601F02BFB054683
:10502000304600F086F8284670BD70B50546284623
:1050300000F026FF044634B12046FFF724FF064661
:10504000204600F076F8304670BD70B5054628461B
:1050500000F016FF044634B12046FFF714FF064661
:10506000204600F066F8304670BD0000766F696338
:10507000650000006163630070616C00616E676CC5
:105080006500000064697300B0000020FC480068FF
:10509000704770B504460D462CB9AC4201D00120D2
:1050A00070BD0020FCE70DB90120F9E705E020788C
:1050B00008B90020F4E7641C6D1C207804F0FAFEA7
:1050C0000646287804F0F6FE8642F0D0207804F0F8
:1050D000F1FE0646287804F0EDFE301AE0E770B5E0
:1050E0000446204605F0FEF8451C29460020E54A06
:1050F00012689047060000D170BD2A46214630460E
:1051000005F05AF93046F7E7DF49DE4A1160DF491A
:10511000DF4A1160704710B528210020D94A126873
:10512000904704461CB12821204605F0BCF92046D2
:1051300010BD70B5044625E02568A08910F4807F75
:1051400004D1A06810B1A068FFF7F3FFA08910F4A4
:10515000807F06D1206920B10020CD4A21691268E4
:105160009047A08910F4007F06D1206A20B100206A
:10517000C74A216A1268904721460020C44A126833
:1051800090472C46002CD7D170BD2DE9F0412DED74
:105190000E8B05460C469FEDBF0BB0EE408AF0EE3D
:1051A000608A9FEDBE0BB0EE40AAF0EE60AA9FEDC4
:1051B000B90BB0EE409AF0EE609A002601272078F5
:1051C0002D2806D19FEDB70BB0EE40AAF0EE60AAF5
:1051D000641C2078302800D1641C207831282FDB13
:1051E000207839282CDC00BF14F8011BA1F1300015
:1051F00007F025FF41EC100BB0EE40BAF0EE60BABC
:105200009FEDAA0B53EC102B51EC180B07F06AFF23
:1052100041EC100BB0EE40CAF0EE60CA53EC1B2B11
:1052200051EC1C0B07F08CFC41EC100BB0EE408AEB
:10523000F0EE608A2078302802DB20783928D3DD30
:1052400020782E2841D1607830283EDB60783928DC
:105250003BDC641C00BF14F8011BA1F1300007F017
:10526000EEFE41EC100BB0EE40BAF0EE60BA9FEDEE
:105270008F0B53EC102B51EC180B07F033FF41EC64
:10528000100BB0EE40CAF0EE60CA53EC1B2B51EC91
:105290001C0B07F055FC41EC100BB0EE408AF0EE11
:1052A000608A9FED7E0B53EC102B51EC190B08F02C
:1052B00025F941EC100BB0EE409AF0EE609A2078A0
:1052C000302802DB20783928C5DD2078652802D017
:1052D0002078452819D1641C20782B2801D1641C22
:1052E00005E020782D2802D14FF0FF37641C06E03E
:1052F00014F8010B303806EB860100EB41062078EC
:10530000302802DB20783928F2DD06FB07F007F0B1
:1053100096FE41EC100BB0EE40EAF0EE60EA53EC82
:10532000192B51EC1E0B07F00BFC41EC100BB0EEEF
:1053300040DAF0EE60DAB0EE4D1AF0EE6D1A9FED45
:105340005B0B06F071FCB0EE40BAF0EE60BA53ECC5
:10535000182B51EC1A0B07F0C5FE41EC100BB0EE08
:1053600040CAF0EE60CA53EC1B2B51EC1C0B07F04B
:10537000B9FE41EC100BB0EE408AF0EE608A85ED8C
:10538000068B51EC180B07F02BFE68610320E860D8
:105390002046BDEC0E8BBDE8F0810146491E41EA76
:1053A000610141EAA10141EA211141EA212141EAD9
:1053B0002141481C70472DE9F04104460E460CB1CE
:1053C000206810B90020BDE8F081A068064460683C
:1053D000B04203DBA16820680844F4E73046FFF7D9
:1053E000DCFF074639460020264A126890470546EA
:1053F00045B90020264A2168126890470020606065
:105400002060E0E725B12846D4E9001204F0D4FF7B
:1054100000201F4A21681268904767602560A068D5
:105420002844D0E770B504460CB1206808B90020C4
:1054300070BDA16820684518284604F053FFA16894
:105440000844F5E770B52DED088B82B006460C4692
:10545000002596ED060BB0EE408AF0EE608A9FEDD7
:105460000D0B53EC102B51EC180B07F07DFD2DD1DB
:105470002CB102212046FFF79EFF054620E019E0EF
:1054800080000020840000209B6E00087B6E0008D6
:105490008800002000000000000000000000000064
:1054A0000000F03F000000000000F0BF000000001E
:1054B0000000244002210020F84A12689047054667
:1054C000002D02D0F6A000882880E3E0706907F084
:1054D000B6FD41EC100BB0EE40BAF0EE60BA53EC02
:1054E000182B51EC1B0B08F009F841EC100BB0EE37
:1054F00040AAF0EE60AA06F001FBB0EE409AF0EE92
:10550000609A9FEDE80B53EC102B51EC190B07F050
:10551000ADFD26D89FEDE50B53EC102B51EC180B8D
:1055200007F0A4FD1DD89FEDE30B53EC102B51ECBD
:10553000180B07F0D5FE14D82CB115212046FFF723
:105540003AFF054605E015210020D44A126890472D
:105550000546002DB9D0D9A12846726904F0CAFCCD
:1055600098E02CB140212046FFF725FF054605E0D5
:1055700040210020C94A126890470546002D16D0E8
:1055800051EC180B06F0A2FA90B18DED008B019949
:10559000C1F30A50A0F5E061FF3902D008B1012142
:1055A00000E0002121B9C6A1284604F0A3FC71E067
:1055B000B0EE480AF0EE680A06F0AAFAB0EE40BA79
:1055C000F0EE60BA53EC182B51EC1B0B07F096FF72
:1055D00041EC100BB0EE409AF0EE609A06F08EFAB5
:1055E000B0EE40AAF0EE60AA9FEDAE0B53EC102B8C
:1055F00051EC1A0B07F03AFD19D8B0EE480AF0EE5C
:10560000680A06F07BFAB0EE409AF0EE609A9FEDE1
:10561000AE0B53EC102B51EC190B07F027FD06D203
:1056200053EC182BAAA1284604F064FC32E0B0EE3B
:10563000480AF0EE680A06F061FAB0EE409AF0EE21
:10564000609A9FEDA50B53EC102B51EC190B07F052
:105650000DFD12D3B0EE480AF0EE680A06F04EFADD
:10566000B0EE409AF0EE609A9FED9D0B53EC102B3C
:1056700051EC190B07F034FE06D253EC182B9AA10B
:10568000284604F037FC05E053EC182B97A1284678
:1056900004F030FC284602B0BDEC088B70BD01461A
:1056A00000220878302806DB0878392803DC0878DF
:1056B0003038024415E00878412806DB087846288F
:1056C00003DC0878373802440BE00878612806DBF1
:1056D0000878662803DC08785738024401E0002087
:1056E00070471201491C0878302806DB08783928F1
:1056F00003DC08783038024415E00878412806DBDE
:105700000878462803DC0878373802440BE008782C
:10571000612806DB0878662803DC087857380244DD
:1057200001E00020DCE71201491C0878302806DB84
:105730000878392803DC08783038024415E0087806
:10574000412806DB0878462803DC0878373802440D
:105750000BE00878612806DB0878662803DC087807
:105760005738024401E00020BAE71201491C0878CA
:10577000302806DB0878392803DC08783038024402
:1057800015E00878412806DB0878462803DC08780D
:10579000373802440BE00878612806DB0878662871
:1057A00003DC08785738024401E0002098E71046EF
:1057B00096E72DE9F05F8346884608F1010400274B
:1057C00098F80000222805D04948C0F80080002041
:1057D000BDE8F09F04E014F8011B5C2900D1641CB3
:1057E0002078222804D0207810B1781C0700F2D14C
:1057F000791C0020294A126890478146B9F1000FB0
:1058000001D10020E4E708F101044D46C9E0207809
:105810005C2804D014F8010B05F8010BC1E0641CEE
:105820002078722818D006DC622809D066280BD0B0
:105830006E2877D10CE0742812D07528F9D113E0C6
:10584000082005F8010BAAE00C2005F8010BA6E0E2
:105850000A2005F8010BA2E00D2005F8010B9EE0DF
:10586000092005F8010B9AE0601CFFF718FF0646B7
:10587000241DB6F55C4F02D3B6F5604F00D306B9D0
:105880008DE0B6F5584F48D3B6F55C4F45D26078F9
:105890005C2802D1A07875282CD080E084000020FC
:1058A00030000000000000000000B03C0000C0FF1D
:1058B000FFFFDF41000000000000E0C125640000A0
:1058C0006E756C6C0000000044F3C2E4E4E9634CC4
:1058D000252E3066000000008DEDB5A0F7C6B03E65
:1058E0000000000065CDCD41256500002566000063
:1058F00080000020E01CFFF7D2FE8246A41DBAF50E
:105900005C4F02D3BAF5604F00D348E0C6F30901FB
:10591000504661F39F2000F580360427802E02D286
:10592000012709E037E0B6F5006F01D2022703E056
:10593000B6F5803F00D203273D44012F20D0022F2F
:1059400015D0032F0AD0042F22D106F0BF0040F05B
:105950008001681E05460170B60900BF06F0BF0051
:1059600040F08001681E05460170B60900BF06F0D0
:10597000BF0040F08001681E05460170B60900BFF7
:10598000F748C05D3043C1B2681E0546017000BFD4
:1059900000BF3D4403E0207805F8010B00BF00BFC5
:1059A000641C2078222803D0207800287FF42FAFB1
:1059B000002028702078222800D1641CCBF8109099
:1059C0000420CBF80C00204602E72DE9F05F80466A
:1059D00089460027BB46454611E02878002802DDAD
:1059E0002878202805DB2878222802D028785C280F
:1059F00001D1012000E0002040EA0B0B6D1C28784B
:105A00000028EAD1BBF1000F23D1A5EB0807B9F1BB
:105A1000000F05D0F91C4846FFF7CDFC064605E00F
:105A2000F91C0020CF4A12689047064616B900209C
:105A3000BDE8F09F3446222004F8010B4146204681
:105A400004F02CFC2220E0550021781C2154304623
:105A5000EEE7B8F1000F17D1B9F1000F05D003211F
:105A60004846FFF7A8FC064605E003210020BD4A92
:105A70001268904706460EB90020D9E7BAA1304611
:105A800004F00CFC3046D3E745460BE05146B7A086
:105A900004F0E8FB08B17F1C03E0BAF1200F00DA44
:105AA0007F1D6D1C95F800A0BAF1000F02D0781C84
:105AB0000700EBD1B9F1000F05D0F91C4846FFF7FC
:105AC0007AFC064605E0F91C0020A64A12689047B9
:105AD00006460EB90020ABE734464546222004F8BE
