:020000040800F2
:1000000060BE0120990500087D0500087F050008F5
:1000100083050008870500088B0500080000000024
:100020000000000000000000000000008F05000834
:1000300091050008000000009305000895050008E0
:10004000B3050008B3050008B30500080F1E00083B
:10005000B3050008B3050008B3050008B3050008A0
:10006000B3050008B3050008B3050008B305000890
:10007000B3050008B3050008B3050008B305000880
:10008000B3050008B3050008B3050008B305000870
:10009000B3050008B3050008B3050008B305000860
:1000A000B3050008B3050008B3050008B305000850
:1000B000B3050008B3050008B3050008B305000840
:1000C000B3050008B3050008B3050008B305000830
:1000D000B3050008113A0008433500085320000812
:1000E000B3050008DB1E0008B3050008B3050008CF
:1000F000B3050008B3050008B3050008B305000800
:10010000B3050008B3050008B3050008B3050008EF
:10011000CD320008B3050008B3050008B305000898
:10012000B3050008B3050008B3050008B3050008CF
:10013000B3050008B3050008B3050008B3050008BF
:10014000B3050008B3050008B3050008B3050008AF
:10015000B3050008B3050008B30500082929000805
:10016000B3050008B3050008B3050008B30500088F
:10017000B3050008B3050008B3050008B30500087F
:10018000B3050008B305000800F002F800F092F88B
:100190000AA090E8000C82448344AAF10107DA45E2
:1001A00001D100F087F8AFF2090EBAE80F0013F0A2
:1001B000010F18BFFB1A43F001031847BCE1000010
:1001C000DCE10000103A24BF78C878C1FAD85207A1
:1001D00024BF30C830C144BF04680C6070470000C1
:1001E0000023002400250026103A28BF78C1FBD840
:1001F000520728BF30C148BF0B6070476E2909F015
:10020000D682702908F0C88766290CF048836529D2
:100210000CF0458367290CF0428361290CF041837F
:1002200003681B0A28BF41F08001692908F036875E
:10023000642908F03387752908F030876F2909F0A1
:10024000CF85782908F09487E92909F06785E429A2
:1002500009F06485F52909F06185EF2909F0CC855D
:10026000F82908F093870368DB0928BF41F0800173
:10027000632909F0E884732909F0ED84E3290AF081
:100280000180F3290AF00680002070471FB50CF0AA
:10029000FCFA09F0DDFD0400002000210BF052FC07
:1002A000401C6060002000210BF062FCE0601FBD7C
:1002B00010B510BD0AF088F81146FFF7E7FF00F00F
:1002C0006CF80AF0A6F803B4FFF7F2FF03BC0AF0DB
:1002D000A7F800001CB589A31022DC211E2001F024
:1002E00034FC01201021CDE900108848C278022397
:1002F000DC21562001F099FB01201021CDE90010EE
:10030000824842780223DC216E2001F08EFB01201E
:100310001021CDE900107D4882780223DC2186205F
:1003200001F083FB7AA31022F0211E2001F00DFCC6
:1003300001201021CDE90010794802780223F02134
:10034000462001F072FB01201021CDE90010744815
:1003500042780223F0215E2001F067FB012010218A
:10036000CDE900106E4882780223F021762001F05A
:100370005CFB6CA310224FF482711E2001F0E5FBA0
:1003800062480078401E6B4951F8203010224FF42B
:100390008271462001F0D9FB1CBD2DED068B84B087
:1003A0000024002001900290039000BF4FF4A06051
:1003B00006F058F808F05EFD00F00AFA00F08CFA3A
:1003C00001F00CFC00F054FE01F000FD4FF416505B
:1003D00001F09CFD02F05AFF02F050FA4FF4E130B8
:1003E00003F0AAFA02F0D2FF03F07CF903F0B8F9A7
:1003F00003F0F4F903F030FA4FF4165003F036F836
:100400000AE000204C4908604FF4FA7008F08DFDB6
:1004100001204A49C1F8BC02494800680028F0D0D0
:100420004FF0000001F05EFC67E046480078E8BB52
:10043000B4F5FA7F5DDD042002F0E6FF00EE100A5D
:10044000B8EE400ADFED400A80EE201A11EE105A95
:1004500028460CF0A9F941EC100BB0EE40AAF0EEE2
:1004600060AA9FED3A0B53EC102B51EC1A0B0BF0DA
:10047000A5FE41EC100BB0EE409AF0EE609A9FEDB5
:10048000350B53EC102B51EC190B0BF081FC41ECAC
:10049000100BB0EE408AF0EE608A51EC180B0BF0B6
:1004A00089FB2E4908600521084600E00AE003F0B8
:1004B00028FA00EE100AB8EE400A294880ED000A3A
:1004C000002416E01F480078012812D1002000F017
:1004D00095F924480078012803D1092122A001F0D0
:1004E00084FD20480078022803D1092121A001F0D1
:1004F0007CFD052008F019FD641C96E744617465D5
:100500003A323020202D20202D20200050000020C5
:1005100054696D653A20203A20203A2020000000DE
:100520004C0000205765656B3A20202020202020B9
:100530002000000000000020BC02434200004342B3
:1005400004024342590000200000804500000000E2
:1005500000E07A4000000000000014401C00002071
:10056000C8000020350000204C5445205445535409
:10057000000000002054455354000000704700BFA5
:10058000FEE700BFFEE700BFFEE700BFFEE77047E3
:100590007047704770470000094880470948004786
:1005A000FEE7FEE7FEE7FEE7FEE7FEE7FEE7FEE723
:1005B000FEE7FEE704480549054A064B7047000080
:1005C0009F0600088901000860B8012060BE012074
:1005D00060BA012060BA012000210020714A12682F
:1005E00042F480326F4B1A6000BF6E4A126802F408
:1005F0000030491C10B9B1F5A04FF6D1694A126814
:1006000012F4003F01D0012000E00020012845D174
:10061000644A4032126842F08052624B40331A60A2
:10062000614A126842F440425F4B1A605D4A0832E8
:1006300012685C4B08331A601A46126842F4004292
:100640001A601A46126842F4A0521A60574A1B1FD9
:100650001A601A1F126842F080721B1F1A6000BFD6
:10066000504A126812F0007FFAD040F20572504BE7
:100670001A604C4A0832126822F00302494B0833D0
:100680001A601A46126842F002021A6000BF454A18
:100690000832126802F00C02082AF8D1704710B52F
:1006A0004448006840F47000424908603D480068D2
:1006B00040F001003B49086000203A4908310860D9
:1006C000384800683C490840364908603B48091DE5
:1006D0000860081F006820F48020091F08600020BF
:1006E00030490C310860FFF777FF4FF00060314967
:1006F0008039086010BD70B500200022022300245C
:100700000221284D08352D6805F00C0020B1042881
:1007100006D0082834D107E0294D2A4E356033E051
:10072000294D284E35602FE01E4D2D1D2D68C5F337
:1007300080541C4D2D1D2D6805F03F0154B1224DF4
:10074000B5FBF1F5174E361D3668C6F3881605FB66
:1007500006F209E01A4DB5FBF1F5124E361D36686A
:10076000C6F3881605FB06F20E4D2D1D2D68C5F348
:1007700001456D1C6B00B2FBF3F5124E356003E0D2
:100780000F4D104E356000BF00BF064D08352D6877
:10079000C5F303150D4E705D0A4D2D68C540094E19
:1007A000356070BD003802400070004008544007BA
:1007B000003C024088ED00E0FFFFF6FE1030002410
:1007C0000024F4002000002000127A002400002001
:1007D0001CB50121202006F0CFF94FF47070009075
:1007E00000208DF8040003208DF8050001208DF80D
:1007F000070069462E4805F02DFF1CBD00212D4A3B
:1008000011702D49096849B12C49096831B12C4949
:10081000096819B12B490968002939D126490968A5
:1008200019B90121284A117013E02449096819B93E
:100830000221254A11700CE02149096819B90321E8
:10084000214A117005E01F49096811B904211E4AA7
:1008500011701D4909781D4A1278914210D11C4926
:100860000988491C1A4A118017490978194A1170D8
:10087000E8B917490988012919DD0021117016E02E
:100880000021134A118010490978104A11700EE0B6
:100890000F490988022903DD0B490978054A1170BF
:1008A00000210A4A11700A4A11800A4A11707047E1
:1008B0000014024035000020188242421C8242424D
:1008C0002082424224824242380000203900002027
:1008D00036000020340000201CB50121402006F025
:1008E0004BF94FF46040009001208DF80400002087
:1008F0008DF8060003208DF8050001208DF8070013
:100900006946044805F0A6FE4FF46041014805F031
:1009100015FF1CBD00180240FD4A1080921C11807A
:10092000704710B50446FA480480052008F0B7FA6D
:10093000F748801C008810BDF6480088F4490880FC
:10094000704700BF0100A0F10102D0B2FAD1704798
:1009500030B5014601F01F04C1F34513CA0AE50290
:1009600005EB43151544A8B230BD10B503460C463F
:10097000E9480088A0F51341413912D1E7480088C1
:10098000E34908801812891C0880D8B20880E4481E
:100990000088891E08802012891C0880E0B2088027
:1009A00012E0E0480078012804D1DF480088401EAA
:1009B000C01A83B21946D9480088FFF7ADFF214617
:1009C000D7480088FFF7A8FF10BD2DE9F041054684
:1009D0000E4600240027A046D3480088854203DA4B
:1009E000D2480088864202DB0020BDE8F081314613
:1009F0002846FFF7BAFFC8480088A0F513414139DF
:100A000003D12E20C249088002E02220C04908807C
:100A1000BF48801C008800B100240220FFF791FF2E
:100A2000BB48801C0488BC480088A0F513414139AC
:100A30000BD10220FFF785FFB548801CB0F800807D
:100A4000E7B24FF6FF7000EA0727B3480088A0F529
:100A50001341253901D12046C7E7AF480088A0F5EA
:100A60001341413907D1E012C002B91240EA4110E6
:100A700040EAE820B9E72046FFF76AFFB5E700B58E
:100A8000A5480088A0F51341413903D12920A04988
:100A9000088004E040F273110720FFF73DFF00BD1E
:100AA00000B59D480088A0F51341413903D12820A5
:100AB0009749088003E000210720FFF72DFF00BDC4
:100AC000F0B505460024002796480078012818D183
:100AD000082D15D2DFE805F00406080A0C0E1012E6
:100AE00006250DE007250BE0042509E0052507E0B4
:100AF000012505E0002503E0032501E0022500BFF4
:100B000000BF85480088A0F5134141395ED1082D0A
:100B10001CD2DFE805F00406090C0F12151800BFFF
:100B200014E044F0800411E044F040040EE044F08E
:100B3000C0040BE044F0200408E044F0600405E049
:100B400044F0A00402E044F0E00400BF00BF3627F8
:100B500044F0080421463846FFF7DEFE14F0200F6B
:100B60000DD07148008871490988884207DA6E48BB
:100B700006886E4800886C4908806C480680674883
:100B80000088634908800020891C08800880664826
:100B90000088401EC0F30F20088063480078401E84
:100BA000C0B208805E480088891E08800020891C29
:100BB000088008805D480088401EC0F30F20088030
:100BC0005A480078401EC0B2088026E0082D1CD28A
:100BD000DFE805F004070A0D15180F1244F0300481
:100BE00013E044F0100410E044F020040DE000BFD6
:100BF0000BE044F0180408E044F0080405E044F079
:100C0000380402E044F0280400BF00BF032744F486
:100C1000805421463846FFF77FFEF0BD10B50446EC
:100C20001CBB00203F490870F0203F4908804FF46A
:100C3000A0703E49088038480088A0F5134141392A
:100C400009D12C20334908802A20344908802B20E0
:100C5000334908802CE022202E49088020202F498B
:100C6000088021202E49088022E001202D490870AB
:100C70004FF4A0702C490880F0202C4908802648A9
:100C80000088A0F51341413909D12C202149088061
:100C90002A20224908802B202149088008E02220B0
:100CA0001C49088021201D49088020201C490880FB
:100CB0000020FFF705FF10BD30B504460D4629465C
:100CC0002046FFF752FEFFF737FE1948008810490B
:100CD000891C088030BD30B503460C4615460E48C9
:100CE0000088A0F51341413924D10C4800880849F7
:100CF00008801812891C0880D8B20880084800882B
:100D0000891E08802012891C0880E0B2088024E037
:100D1000FE1F006C460000203E000020480000201E
:100D20004A00002040000020420000204400002033
:100D30003A000020FE480078012804D1FD480088D0
:100D4000401EC01A83B21946FB480088FFF7E4FD35
:100D50002146FA480088FFF7DFFDF9480088F94985
:100D60000880881C058030BD2DE9FF4F04460D46E4
:100D700016461F46A019401E86B2E819401E87B2CB
:100D8000F1480088A0F5134141391AD1EA4800889A
:100D9000EC4908802012891C0880E0B208803012DB
:100DA0000880F0B20880E5480088891E0880281273
:100DB000891C0880E8B2088038120880F8B20880E0
:100DC00032E0DB48007801280ED1A846B946D94860
:100DD0000088801B401E1FFA80FAD6480088001B3E
:100DE000401E1FFA80FB03E0A046B146AA46BB4660
:100DF00050200390512002905220019053200090E7
:100E000041460398FFF788FD49460298FFF784FDA5
:100E100051460198FFF780FD59460098FFF77CFD89
:100E200029462046FFF7A1FDBDE8FF8F00B59FB022
:100E30000121782005F0A0FE0121084605F0D4FE2E
:100E40004FF480601D9001208DF8780000208DF80F
:100E50007A0002208DF8790001208DF87B001DA911
:100E6000BA4805F0F7FB4CF233701D9002208DF864
:100E7000780000208DF87A0003208DF87900012099
:100E80008DF87B001DA9B24805F0E4FB4FF6807099
:100E90001D9002208DF8780000208DF87A00032044
:100EA0008DF8790001208DF87B001DA9A94805F077
:100EB000D1FB04201D9002208DF8780000208DF8D1
:100EC0007A0003208DF8790001208DF87B001DA9A0
:100ED000A14805F0BFFB4FF480501D9002208DF813
:100EE000780000208DF87A0003208DF87900012029
:100EF0008DF87B001DA9984805F0ACFB0C22002161
:100F0000934805F02AFC0C220121914805F025FCAC
:100F10000C2204218E4805F020FC0C2205218C486F
:100F200005F01BFC0C220821894805F016FC0C2258
:100F30000921874805F011FC0C220A21844805F09C
:100F40000CFC0C220E21824805F007FC0C220F211C
:100F50007F4805F002FC0C2207217E4805F0FDFBCE
:100F60000C2208217B4805F0F8FB0C220921794866
:100F700005F0F3FB0C220A21764805F0EEFB0C226B
:100F80000B21744805F0E9FB0C221146714805F06D
:100F9000E4FB0C220D216F4805F0DFFB0C220E2133
:100FA0006C4805F0DAFB0C220F216A4805F0D5FBEE
:100FB0000C220221684805F0D0FB0C22114666483D
:100FC00005F0CBFB0F200790002008903C200990F3
:100FD00000200A900B900C900D90092000900020AA
:100FE0000190082002900020039004900590069044
:100FF00006200E9000200F901090102011900020DD
:10100000129014901390159016904FF480501790F2
:10101000002018904FF48040199000201A9007A8E3
:101020001B90CDF870D00EA806F040F901210620E3
:1010300006F0C4F9322007F078FF1FB000BD70B58C
:101040000446002500263B4800884449098800FBE7
:1010500001F600210846FFF788FCFFF76DFC00BF92
:1010600003E03848801C04806D1CB542F9D370BD84
:1010700010B50024FFF7DAFE01210020FFF74CFC39
:10108000322007F052FF0020FFF74BFC2E4908806A
:1010900008460088FF280ADB08460088A0F57F4143
:1010A000FF3904D028480088B0F5134F1DD1D32054
:1010B00024490880881C0088234908802148801C16
:1010C000008808801F48801C008808800846008827
:1010D0004FF6FF7101EA00201B4908801948801C67
:1010E0000088098808431849088017480088A0F537
:1010F0001341413938D11A48006820F00F004FF0F1
:101100002041C1F81C010846D0F81C0120F4706091
:10111000C1F81C010846D0F81C0140F00300C1F8DA
:101120001C010846D0F81C0140F400701AE00000D1
:101130004000002042000020480000204A0000201B
:1011400046000020FE1F006C3E00002000140240FC
:10115000000C024000100240001802404400002031
:101160001C0100A0C1F81C01FE480088A0F5134135
:1011700028397DD141F28F01EC20FFF7CDFB41F200
:101180003421EF20FFF7C8FB4FF480710120FFF7F7
:10119000C3FB4FF4E0610220FFF7BEFB41F23001D8
:1011A0000320FFF7B9FB00210420FFF7B5FB40F255
:1011B00002210820FFF7B0FB00210920FFF7ACFB5C
:1011C00000210A20FFF7A8FB01210C20FFF7A4FB58
:1011D00000210D20FFF7A0FB00210F20FFF79CFB53
:1011E00000211020FFF798FB07211120FFF794FB47
:1011F00000211220FFF790FB00211320FFF78CFB4A
:1012000001210720FFF788FB322007F08EFE41F214
:1012100090411020FFF780FB40F227211120FFF7BB
:101220007BFB322007F081FE8A211220FFF774FB3E
:10123000322007F07AFE4FF4D0511320FFF76CFBF9
:1012400006212920FFF768FB0D212B20FFF764FB07
:10125000322007F06AFE00212020FFF75DFB00210D
:101260002120FFF759FB322007F05FFE002100E04C
:1012700075E03020FFF750FB40F204613120FFF7AA
:101280004BFB40F205313220FFF746FB00213520B1
:10129000FFF742FB40F609413620FFF73DFB4FF4D4
:1012A00001713720FFF738FB40F201313820FFF79A
:1012B00033FB40F207713920FFF72EFB00213C2061
:1012C000FFF72AFB40F60A213D20FFF725FB3220DD
:1012D00007F02BFE00215020FFF71EFBEF215120CD
:1012E000FFF71AFB00215220FFF716FB40F23F11D7
:1012F0005320FFF711FB4FF427416020FFF70CFB51
:1013000001216120FFF708FB00216A20FFF704FBA1
:1013100000218020FFF700FB00218120FFF7FCFA6D
:1013200000218220FFF7F8FA00218320FFF7F4FA6A
:1013300000218420FFF7F0FA00218520FFF7ECFA66
:1013400010219020FFF7E8FA4FF4C0619220FFF7D8
:10135000E3FA40F233110720FFF7DEFAC2E18148D9
:101360000088A0F5134125397ED147F6F001E5202C
:10137000FFF7D2FA4FF480710120FFF7CDFA4FF456
:10138000E0610220FFF7C8FA41F230010320FFF7C5
:10139000C3FA00210420FFF7BFFA40F2022108201F
:1013A000FFF7BAFA00210920FFF7B6FA00210A2058
:1013B000FFF7B2FA00210C20FFF7AEFA00210D2052
:1013C000FFF7AAFA00210F20FFF7A6FA002110204C
:1013D000FFF7A2FA07211120FFF79EFA0021122041
:1013E000FFF79AFA00211320FFF796FA0021072051
:1013F000FFF792FA41F290611020FFF78DFA40F268
:1014000027211120FFF788FA9D211220FFF784FA87
:101410004FF4C8511320FFF77FFA25212920FFF749
:101420007BFA0D212B20FFF777FA07213020FFF7F9
:1014300073FA40F203313120FFF76EFA03213220B4
:10144000FFF76AFA40F206213520FFF765FA082116
:101450003620FFF761FA40F206413720FFF75CFAC9
:101460004FF44171382000E057E0FFF755FA0721AB
:101470003920FFF751FA40F202613C20FFF74CFAA5
:1014800008213D20FFF748FA00215020FFF744FAD9
:10149000EF215120FFF740FA00215220FFF73CFADC
:1014A00040F23F115320FFF737FA4FF427416020F5
:1014B000FFF732FA01216120FFF72EFA00216A209E
:1014C000FFF72AFA00218020FFF726FA0021812069
:1014D000FFF722FA00218220FFF71EFA0021832065
:1014E000FFF71AFA00218420FFF716FA0021852061
:1014F000FFF712FA10219020FFF70EFA4FF4C061A7
:101500009220FFF709FA40F233110720FFF704FA9F
:1015100022210020FFF700FAE4E012480088A0F53D
:1015200013414139F8D1CF200F4908800020891C90
:101530000880C120088030200880ED20891E0880A6
:101540006420891C088003200880122008808120E4
:101550000880E820891E08808520891C08801020CA
:10156000088003E03E000020FE1F006C7A20088007
:10157000CB20891E08803920891C08802C200880F7
:10158000002008803420088002200880F720891E6F
:1015900008802020891C0880EA20891E08800020FD
:1015A000891C08800880C020891E08801B20891C97
:1015B0000880C120891E08800120891C0880C52060
:1015C000891E08803020891C08800880C720891E59
:1015D0000880B720891C08803620891E0880482092
:1015E000891C08803A20891E08805520891C0880A3
:1015F000B120891E08800020891C08801A200880DC
:10160000B620891E08800A20891C0880A220088034
:10161000F220891E08800020891C08802620891E4F
:1016200008800120891C0880E020891E08800F2086
:10163000891C08802A20088028200880082008802B
:101640000E2008800820088054200880A9200880E7
:10165000432008800A2008800F200880002008808E
:10166000088008800880E120891E08800020891CED
:101670000880152008801720088007200880112086
:101680000880062008802B200880562008803C20F7
:10169000088005200880102008800F2008803F2047
:1016A000088008800F2008802B20891E08800020D9
:1016B000891C08800880012008803F2008802A209B
:1016C000891E08800020891C088008800880EF207F
:1016D00008801120891E0880782007F026FC292028
:1016E000FD4908800020FFF799FA0120FB490860B6
:1016F0004FF6FF70FFF7A3FC10BD2DE9F04F054634
:101700000E4617469846DDF824A04FF0000B781BD4
:10171000401C1FFA80FB344614E021462846FFF7A0
:1017200024F9FFF709F94FF0000907E0EA48801CA7
:10173000A0F800A009F101001FFA80F9D945F5DBF6
:10174000601C84B24445E8DDBDE8F08F2DE9F84F18
:1017500007460D4690469946DDF828B0A8EB0700ED
:10176000401C80B20090A9EB0500401C1FFA80FAD3
:10177000002416E0281981B23846FFF7F6F8FFF783
:10178000DBF8002608E004FB0A603BF81000D249B1
:10179000891C0880701C86B200988642F3DB601CAE
:1017A00084B25445E6DBBDE8F88F2DE9FF4F84B0E5
:1017B00081468A460020039002900698A0EB090516
:1017C0000798A0EB0A06CDF80490CDF800A0002DF4
:1017D00001DD012705E00DB9002702E04FF0FF37DA
:1017E0006D42002E02DD4FF0010806E016B94FF001
:1017F000000802E04FF0FF387642B54201DD2C468A
:1018000000E034464FF0000B21E0009A91B2019ABB
:1018100090B2FFF751FA039828440390029830449D
:1018200002900398A04205DD0398001B03900198E5
:10183000384401900298A04205DD0298001B0290F6
:101840000098404400900BF101001FFA80FB601CDF
:101850008345DADD08B0BDE8F08FF0B504460D46EB
:1018600016461F462B46324629462046FFF79DFF67
:101870003B46224629462046FFF797FF3B46324625
:1018800039462046FFF791FF3B463246294630460F
:10189000FFF78BFFF0BD2DE9F04306460F4690465B
:1018A000002445460320A0EB48093CE07A1B91B296
:1018B000321990B2FFF700FA3A1B91B2721990B246
:1018C000FFF7FAF93A1991B2721990B2FFF7F4F9E9
:1018D0007A1991B2321990B2FFF7EEF97A1991B2F2
:1018E000321B90B2FFF7E8F93A1991B2721B90B22D
:1018F000FFF7E2F97A1B91B2321B90B2FFF7DCF9E5
:101900003A1B91B2721B90B2FFF7D6F9641CB9F181
:10191000000F03DAA000801D814404E0601B8000FA
:101920000A3081446D1EAC42C0DDBDE8F0832DE974
:10193000F84F81460E4617461C4600960C2C01D1E6
:1019400098460AE0102C01D1A04606E0182C02D1DE
:101950004FF0240801E0BDE8F88FA7F12000C7B2DE
:10196000002553E00C2C07D107EB47005C4901EB45
:10197000800010F805A012E0102C05D1594800EBAA
:10198000071010F805A00AE0182C07D107EBC700D4
:10199000554901EB800010F805A000E0DBE74FF0AF
:1019A000000B2DE01AF0800F06D050480288314617
:1019B0004846FFF790F905E04D4802883146484611
:1019C000FFF789F94FEA4A604FEA106A701C86B245
:1019D00048480088864200DBBDE70098301AA042E4
:1019E0000AD1009E09F101001FFA80F942480088DF
:1019F000814500DBAFE706E00BF1010000F0FF0BD3
:101A0000BBF1080FCEDB00BF681CC5B24545A9DBA2
:101A100000BFA0E710B50246012000E050430B00D4
:101A2000A1F10104E1B2F9D110BD2DE9FF4F81B060
:101A3000064691461F46DDE90E4A0020009000252B
:101A400044E0781B401EC1B20A20FFF7E3FFB9FB58
:101A5000F0F00A21B0FBF1F201FB1208009820BB64
:101A6000781EA84221DDB8F1000F1CD1BAF1000F99
:101A70000CD0A34604EBDB71491011FB056188B261
:101A8000234630220299FFF752FF0BE0A34604EBF6
:101A9000DB71491011FB056188B2234620220299AF
:101AA000FFF745FF10E001200090A34604EBDB7137
:101AB000491011FB056188B208F13001CAB2234612
:101AC0000299FFF734FF00BF681CC5B2BD42B8DB06
:101AD00005B0BDE8F08F0000FE1F006CA8824242F6
:101AE00096C900080ACE0008FAD300083A00002080
:101AF0003C00002044000020420000202DE9FF4F60
:101B000082B004460D461646DDE91189109F304823
:101B1000B0F800A02F48B0F800B02D48A0F8008021
:101B20002C48A0F800900F98CDE9000732462946CE
:101B30002046059BFFF779FF2548A0F800A025481F
:101B4000A0F800B006B0BDE8F08FF0B506460F462D
:101B500015461C4611E022782B4639463046FFF7E1
:101B6000E6FE284605EBD07106EB61018EB21A48FD
:101B70000088864200DB06E0641C20787E2802DCB8
:101B800020782028E7DA00BFF0BD2DE9F04F0446A9
:101B90000D4616461F46DDE909890D48B0F800A03C
:101BA0000C48B0F800B00A48A0F800800948A0F836
:101BB00000903B46324629462046FFF7C6FF0448C0
:101BC000A0F800A00348A0F800B0BDE8F08F000026
:101BD0003A0000203C000020420000201CB50121FA
:101BE000402004F0C9FF8020009001208DF80400FF
:101BF00000208DF8060003208DF8050002208DF8E6
:101C000007006946034804F025FD8021014804F0DF
:101C100097FD1CBD00180240F0B504460B46154662
:101C200004F16400C1B20846CE1701EB967601EBD1
:101C3000A602072092FBF0F600FB162082B256198E
:101C4000581EAD4F385C304482B2CE1701EB967609
:101C5000B610B1EB860603D1032B01DA501E82B217
:101C6000072092FBF0F600FB162008B90720F0BD14
:101C7000072092FBF0F600FB1620C0B2F7E72DE933
:101C8000FC4705460E4617461C46DDE90A898DF8D5
:101C900006708DF805603A4631462846FFF7BCFFCE
:101CA0008DF804008DF807508DF800408DF8018004
:101CB0008DF802900C2C03DD40208DF8030002E02B
:101CC00000208DF8030001A9002005F0AEFF38B117
:101CD0006946002005F012FF10B10120BDE8FC8725
:101CE0000020FBE710B504468449204606F009F8B9
:101CF0008349204605F06CFF10BD10B586B0002466
:101D0000012004F0D6FD0AE0601C84B2052007F033
:101D10000CF9B4F5FA7F02DB012006B010BD4120BA
:101D200004F084FD0028EFD04FF4807004F0C2FE70
:101D3000012004F0DAFE7F200490FF2005900020AF
:101D4000039003A805F03FFE1E2002210D230B2265
:101D5000CDE9001003210F20FFF791FF0020DCE701
:101D60007CB505460C46002006F026F9284606F00C
:101D7000FEF8204606F010F94FF4804006F0E5FB2F
:101D80004FF4800006F02DFD0121880306F06CFB66
:101D9000012006F011F94FF48000009000208DF82A
:101DA000040008208DF8050001208DF80600684623
:101DB00006F0A6FC03205349087002204870887082
:101DC0000120C870084604F052FB7CBD10B5002409
:101DD0000121080704F019FF012006F0D6FB0020BE
:101DE00006F0D8FAA0F5AA4155390AD0FFF785FFC9
:101DF0000446012C00D110BD45F25551002006F0DB
:101E0000C2FA00210420FFF7ABFF0020F3E710B572
:101E10004FF4806006F05DFB01280AD1800206F0D5
:101E200068FB3948006808B9012000E00020364905
:101E300008604FF4800006F0D4FC10BDF0B587B008
:101E400004460D4616461F4600214FF4807006F0EA
:101E500032F88DF800508DF801608DF80270002086
:101E60008DF803008DF810404FF080400390002063
:101E700002900098019001AA4FF48071002005F0B3
:101E800063FF4FF4805006F060FB4FF4003006F023
:101E9000A8FC0121080306F0E7FA0121080206F078
:101EA0000AF84FF40030059000208DF81800082043
:101EB0008DF8190001208DF81A0005A806F020FC05
:101EC0002920104908700220487088700120C870CD
:101ED000084604F0CCFA07B0F0BD10B54FF480709E
:101EE00006F0F7FA012802D1000206F002FB4FF4D7
:101EF000003006F076FC10BD56E1000850000020CE
:101F00004C00002054000020B402434210B588B0B9
:101F100004460121022004F02FFE0121880404F070
:101F200074FE07220A21FD4804F017FC07220B214A
:101F3000FA4804F012FC4FF44060069002208DF83D
:101F40001C008DF81D0000208DF81E0001208DF86A
:101F50001F0006A9F14804F07DFB02940020ADF8B3
:101F60000C00ADF80E00ADF81000ADF814000C2018
:101F7000ADF8120002A9EA4804F0B9FF0121E848CF
:101F800005F03DF84021E64805F021F9012240F234
:101F90002551E34805F0E9F827208DF804000320D7
:101FA0008DF805008DF8060001208DF8070001A8C6
:101FB00004F05DFA0220069000208DF81C0003203A
:101FC0008DF81D0000208DF81F0006A9D54804F0EB
:101FD00041FB08B010BD00BFD149098811F0400F86
:101FE000FAD0CF49091D0880704710B503460C464A
:101FF000002200BF985CFFF7EEFF501C82B2A242A5
:10200000F8DB10BD0FB438B50024002505A80090FA
:10201000C548009A049906F0C7FF00200090C24806
:1020200007F0CCF905460DE000BF4021BC4805F0A3
:10203000C1F80028F9D02046641CBB4A115CB8489E
:1020400005F008F82800A5F10105EDD138BC5DF8D0
:1020500014FB70B52DED068B82B0002440F22551A3
:10206000AF4805F0BDF8002808D0AD4804F0F6FFF1
:10207000C5B2532D03D10120AC49087091E3452D21
:102080007DD1AB49ABA007F0CDFA18B90020AC491F
:10209000086053E3A649ABA007F0C4FA18B90120C1
:1020A000A74908604AE3A249A9A007F0BBFA18B9FA
:1020B0000020AA49086041E39D49A9A007F0B2FAAF
:1020C00018B90120A549086038E39949A7A007F08D
:1020D000A9FA18B90020A84908602FE39449A7A0DD
:1020E00007F0A0FA18B90120A349086026E3904937
:1020F000A5A007F097FA18B90120A64908601DE3CA
:102100008B49A5A007F08EFA18B90020A1490860F4
:1021100014E38749A3A007F085FA20B91E21A3A0E4
:10212000FFF763FF0AE38249A8A007F07BFA40B9F2
:10213000A84807F043F90446A1B2A64801F05BFCA9
:10214000FCE27B49A4A007F06DFA00285CD1A54809
:1021500090ED000A10EE101A08460AF025FB41EC3B
:10216000100BB0EE408AF0EE608A9FA053EC182B63
:102170009FA100906C4806F029FF6B4800E0FDE24B
:1021800007F01CF90446A1B26748FFF72EFF9548F7
:1021900090ED010A10EE101A08460AF005FB41EC1A
:1021A000100BB0EE408AF0EE608A8FA053EC182B33
:1021B0008FA100905C4806F009FF5B4807F0FEF82D
:1021C0000446A1B25848FFF710FF864890ED020A76
:1021D00010EE101A08460AF0E7FA41EC100BB0EEC8
:1021E000408AF0EE608A80A053EC182B80A100900A
:1021F0004D4806F0EBFE4C4807F0E0F80446A1B26B
:102200004948FFF7F2FE99E249497BA007F00AFA34
:1022100000285AD17B4890ED000A10EE101A0846AB
:102220000AF0C2FA41EC100BB0EE408AF0EE608A80
:1022300075A053EC182B6EA100903B4806F0C6FE2B
:10224000394807F0BBF80446A1B23748FFF7CDFE86
:102250006C4890ED010A10EE101A08460AF0A4FA34
:1022600041EC100BB0EE408AF0EE608A66A053ECB1
:10227000182B5FA100902C4806F0A8FE2A4807F012
:102280009DF80446A1B22848FFF7AFFE5D4890EDE7
:10229000020A10EE101A08460AF086FA41EC100BFA
:1022A000B0EE408AF0EE608A57A053EC182B50A194
:1022B00000901D4806F08AFE1B4807F07FF8044690
:1022C000A1B21948FFF791FE38E219494FA007F073
:1022D000A9F9002821D1504890ED000A10EE101AFB
:1022E00008460AF061FA41EC100BB0EE408AF0EEBD
:1022F000608A4AA053EC182B3DA100900A4806F0D2
:1023000065FE094807F05AF80446A1B20648FFF7EF
:102310006CFE414890ED010A82E0BFE000040240FB
:102320000048004000180240080200205800002029
:10233000D80000206F70656E5F6C6564310000002E
:10234000B4024342636C6F73655F6C656431000077
:102350006F70656E5F6C656432000000B8024342C6
:10236000636C6F73655F6C65643200006F70656EDF
:102370005F6C656433000000BC024342636C6F73A2
:10238000655F6C65643300006F70656E5F626565E4
:10239000700000009C024342636C6F73655F62656E
:1023A000657000007465737400000000636F7272E2
:1023B0006563745F4F4B636F72726563745F4F4BFD
:1023C000636F72726563745F4F4B000044617461A8
:1023D00000000000080D002073656E645F61636398
:1023E00000000000340300206D2F73320000000055
:1023F000252E33662573000073656E645F70616C13
:102400000000000040030020642F730073656E64B9
:102410005F616E67000000004C0300206400000054
:1024200010EE101A08460AF0BFF941EC100BB0EE9E
:10243000408AF0EE608AAFF21C0053EC182BAFF22A
:1024400050010090D94806F0C1FDD84806F0B6FF0B
:102450000446A1B2D548FFF7C8FDD54890ED020A61
:1024600010EE101A08460AF09FF941EC100BB0EE7E
:10247000408AF0EE608AAFF25C0053EC182BAFF2AA
:1024800090010090C94806F0A1FDC84806F096FFEB
:102490000446A1B2C548FFF7A8FD4FE1C549C6A053
:1024A00007F0C0F818BBC748006808B9012000E071
:1024B0000020C4490860C44800680AF075F941EC7E
:1024C000100BB0EE408AF0EE608AC0A053EC182BDF
:1024D000AFF2E4010090B54806F078FDB34806F08D
:1024E0006DFF0446A1B2B148FFF77FFD26E1B14977
:1024F000B7A007F097F838BBB248006808B90120C8
:1025000000E00020AF490860B44890ED000A10EEEA
:10251000101A08460AF048F941EC100BB0EE408A58
:10252000F0EE608AAEA053EC182BAFF23C11009095
:102530009E4806F04BFD9D4806F040FF0446A1B2C0
:102540009A48FFF752FDF9E09A49A6A007F06AF809
:10255000F0BB042000F058FF00EE100AB8EE400A6D
:10256000DFEDA30A80EE201A11EE106A30460AF061
:102570001BF941EC100BB0EE40AAF0EE60AA9FED03
:102580009D0B53EC102B51EC1A0B09F017FE41EC8C
:10259000100BB0EE409AF0EE609A9FED980B53EC62
:1025A000102B51EC190B09F0F3FB41EC100BB0EEC2
:1025B000408AF0EE608A51EC180B09F0FBFA914961
:1025C0000860084600680AF0EFF841EC100B00E0E4
:1025D00015E0B0EE408AF0EE608A8BA053EC182B29
:1025E000AFF2F4110090714806F0F0FC6F4806F06D
:1025F000E5FE0446A1B26D48FFF7F7FC9EE06D4989
:1026000082A007F00FF8C8B900208349087083A39F
:10261000102282211420FFF798FA84A31022962119
:102620001420FFF792FA4FF6FF7040F23F13EF22AB
:10263000AA2100900020FFF760F87FE05D4980A0AC
:1026400006F0F0FFC8B90120734908707FA310227B
:1026500082211420FFF779FA80A3102296211420FA
:10266000FFF773FA4FF6FF7040F23F13EF22AA21F3
:1026700000900020FFF741F860E04E4800785428B1
:102680005CD14C48007930384A49C978303901EB7F
:10269000810100EB41007649C870464880793038A6
:1026A00044494979303901EB810100EB410070491F
:1026B00048704048007A30383E49C979303901EBDA
:1026C000810100EB41006A4988703A48807A3038CD
:1026D0003849497A303901EB810100EB4100654905
:1026E00008703448007B30383249C97A303901EB00
:1026F000810100EB41005F4948702E48807B3038F3
:102700002C49497B303901EB810100EB41005949EB
:102710008870084680784978564ECDE900103378A5
:10272000534EB2787178F078FFF7A9FA642006F07A
:10273000FCFB0A21AFF27830FFF757FC36480078EF
:10274000012805D11B4B1022BE211E20FFF7FDF9E9
:1027500000204949087009E000201649464A1278CD
:10276000885445480078401C434908704248007826
:102770002028F1DB00204049087012E03E48007834
:1027800000280EDD3C480078B0F5967F09DC3A4819
:102790000078401E07490D5437480078401C3649E0
:1027A000087002B0BDEC068B70BD0000080200206E
:1027B0004C030020D800002073656E645F74656D63
:1027C00000000000BC0243425C0000204300000007
:1027D00073656E645F64697331000000C800002097
:1027E000636D000073656E645F766F6900000000C2
:1027F000000080450000000000E07A40000000007A
:10280000000014401C000020644200006170705FF2
:102810006D6F646531000000590000204150505F29
:102820006D6F64653A2030202000000057616974A4
:102830002041505020436F6E74726F6C0000000096
:102840006170705F6D6F6465320000004150505FD1
:102850006D6F64653A203120200000005265636589
:1028600069766520616E642073656E640000000007
:10287000500000204C0000205800002000B587B018
:102880000121042004F078F90121202004F0CEF980
:1028900008220621FE4803F060FF08220721FC48B9
:1028A00003F05BFFC020059002208DF818008DF822
:1028B000190000208DF81A0001208DF81B0005A9D1
:1028C000F34803F0C7FE4FF4165001900020ADF816
:1028D0000800ADF80A00ADF80C00ADF810000C20AF
:1028E000ADF80E0001A9EB4804F001FB0121E94815
:1028F00004F085FB4021E74804F069FC012240F226
:102900002551E44804F031FC47208DF800000320F5
:102910008DF801008DF8020001208DF80300684653
:1029200003F0A5FD07B000BD10B52DED068B40F2FC
:102930002551D84804F054FC58B3D64804F08EFB17
:10294000C1B2D548D54A12688154D4490968405C5F
:10295000552805D0D148006810B9BDEC068B10BDD4
:10296000CE480068401CCD490860084600680B2826
:102970000FD10120CA4908600020C8490860C94930
:10298000C54802680A6042684A6002890A81807A02
:102990008872C348006801287ED10020C0490860C1
:1029A000C149C04802680A6042684A6002890A81D7
:1029B000807A8872084600785528EDD1084640781C
:1029C000512804D0522868D0532867D1B6E1B649BF
:1029D0008978B54AD27841EA022108B209F09BFB16
:1029E00041EC100BB0EE40AAF0EE60AA9FEDAF0BE9
:1029F00053EC102B51EC1A0B09F0CAF941EC100BF7
:102A0000B0EE409AF0EE609A9FEDAA0B53EC102BBB
:102A100051EC190B09F0D2FB41EC100BB0EE408ADF
:102A2000F0EE608A51EC180B09F0C4F8A349086075
:102A30009D4909799C4A527941EA022108B209F07C
:102A40006AFB41EC100BB0EE40AAF0EE60AA9FEDDD
:102A5000970B53EC102B51EC1A0B09F099F941EC40
:102A6000100BB0EE409AF0EE609A9FED920B53EC93
:102A7000102B51EC190B09F0A1FB41EC100BB0EE3F
:102A8000408AF0EE608A51EC180B09F093F88B49FC
:102A900048608549897902E017E261E013E2824AE1
:102AA000D27941EA022108B209F035FB41EC100B62
:102AB000B0EE40AAF0EE60AA9FED7C0B53EC102B19
:102AC00051EC1A0B09F064F941EC100BB0EE409A8E
:102AD000F0EE609A9FED770B53EC102B51EC190B35
:102AE00009F06CFB41EC100BB0EE408AF0EE608A0E
:102AF00051EC180B09F05EF8704988606A49097A50
:102B0000694A527A41EA022108B209F004FB41EC19
:102B1000100BB0EE40AAF0EE60AA9FED690B53ECEB
:102B2000102B51EC1A0B09F033F941EC100BB0EEFD
:102B3000409AF0EE609A9FED640B53EC102B51EC31
:102B4000190B09F069F841EC100BB0EE408AF0EE79
:102B5000608A51EC180B09F02DF85D490860B3E16B
:102B600051498978504AD27841EA022108B209F0E5
:102B7000D2FA41EC100BB0EE40AAF0EE60AA9FED45
:102B80004B0B53EC102B51EC1A0B09F001F941ECF3
:102B9000100BB0EE409AF0EE609A9FED4E0B53ECA6
:102BA000102B51EC190B09F009FB41EC100BB0EEA6
:102BB000408AF0EE608A51EC180B08F0FBFF4749A1
:102BC000086039490979384A527941EA022108B244
:102BD00009F0A1FA41EC100BB0EE40AAF0EE60AAA9
:102BE0009FED320B53EC102B51EC1A0B09F0D0F87F
:102BF00041EC100BB0EE409AF0EE609A9FED350B71
:102C000053EC102B51EC190B09F0D8FA41EC100BD6
:102C1000B0EE408AF0EE608A51EC180B08F0CAFF63
:102C20002E494860204989791F4AD27941EA022118
:102C300008B209F070FA41EC100BB0EE40AAF0EEC9
:102C400060AA9FED1A0B53EC102B51EC1A0B09F0F4
:102C50009FF841EC100BB0EE409AF0EE609A9FEDB9
:102C60001D0B53EC102B51EC190B09F0A7FA41EC9A
:102C7000100BB0EE408AF0EE608A51EC180B08F0B1
:102C800099FF164988600849097A074A527A27E06D
:102C900000080240001401409A0300206400002054
:102CA000600000205803002079030020000000008D
:102CB0000000E0400000000000003040340300202D
:102CC000000000000040754000000000002042406D
:102CD0005C0000200000000000409F4040030020F6
:102CE00041EA022108B209F016FA41EC100BB0EEED
:102CF00040AAF0EE60AA1FED0E0B53EC102B51EC26
:102D00001A0B09F045F841EC100BB0EE408AF0EEDA
:102D1000608A1FED130B53EC102B51EC180B08F0CD
:102D20007BFF41EC100BB0EE409AF0EE609A51EC54
:102D3000190B08F03FFF66490860C5E065498978CE
:102D4000644AD27841EA022108B209F0E4F941EC80
:102D5000100BB0EE40AAF0EE60AA1FED2C0B53EC66
:102D6000102B51EC1A0B09F013F841EC100BB0EEDC
:102D7000409AF0EE609A9FED580B53EC102B51ECFB
:102D8000190B09F01BFA41EC100BB0EE408AF0EE83
:102D9000608A51EC180B08F00DFF514908604D494D
:102DA00009794C4A527941EA022108B209F0B3F993
:102DB00041EC100BB0EE40AAF0EE60AA1FED450BFF
:102DC00053EC102B51EC1A0B08F0E2FF41EC100B06
:102DD000B0EE409AF0EE609A9FED3F0B53EC102B53
:102DE00051EC190B09F0EAF941EC100BB0EE408AF6
:102DF000F0EE608A51EC180B08F0DCFE38494860B0
:102E000034498979334AD27941EA022108B209F07A
:102E100082F941EC100BB0EE40AAF0EE60AA1FED73
:102E20005D0B53EC102B51EC1A0B08F0B1FF41EC89
:102E3000100BB0EE409AF0EE609A9FED270B53EC2A
:102E4000102B51EC190B09F0B9F941EC100BB0EE55
:102E5000408AF0EE608A51EC180B08F0ABFE204976
:102E600088601C49097A1B4A527A41EA022108B259
:102E700009F051F941EC100BB0EE40AAF0EE60AA57
:102E80001FED710B53EC102B51EC1A0B08F080FF67
:102E900041EC100BB0EE409AF0EE609A1FED760B0D
:102EA00053EC102B51EC190B08F0B6FE41EC100B53
:102EB000B0EE408AF0EE608A51EC180B08F07AFE12
:102EC0000349086000E000BF00BF00BF45E5000007
:102ED0005C000020790300200000000000806640B4
:102EE0004C03002000B587B00121C80403F08DFE1B
:102EF0000121084603F040FE08220021FD4803F0AE
:102F00002CFC08220121FB4803F027FC032005903C
:102F100002208DF8180003208DF8190000208DF88C
:102F20001A0001208DF81B0005A9F24803F092FB5E
:102F30004FF4E13001900020ADF80800ADF80A0030
:102F4000ADF80C00ADF810000C20ADF80E0001A992
:102F5000E94803F0CCFF012240F22551E64804F095
:102F600004F90121E44804F04AF84021E24804F061
:102F70002EF934208DF8000001208DF80300022086
:102F80008DF801008DF80200684603F070FA07B072
:102F900000BD0FB438B50024002505A80090D7481F
:102FA000009A049906F000F800200090D34806F03B
:102FB00005FA05460DE000BF4021CF4804F0FAF8BD
:102FC0000028F9D02046641CCC4A115CCA4804F0A1
:102FD00041F82800A5F10105EDD138BC5DF814FBDE
:102FE00070B504460D4600262146C5A0FFF7D1FF67
:102FF00028E0C5A1C54806F0ABF980B14FF4806167
:10300000C24806F0BCFA0020C1490860C148006807
:1030100008B9012000E00020BE49086014E0BEA10C
:10302000BA4806F095F960B12146B5A0FFF7B1FFA7
:1030300000260020B64908604FF48061B34806F0CE
:103040009EFA761CAE42D4DB00BF70BD00B52DEDFC
:10305000068B81B0B0EE408AF0EE608AB0EE419A05
:10306000AFA1A7A0FFF795FFC82005F05EFFAAA1BA
:10307000A64806F06DF958B14FF48061A34806F0F8
:103080007EFAA7A19EA0FFF784FFC82005F04DFFA0
:1030900018EE100A09F088FB41EC100BB0EE40AAC4
:1030A000F0EE60AAA1A053EC1A2B0090A1A0FFF7AC
:1030B00070FF18EE900A09F077FB41EC100BB0EEB0
:1030C00040AAF0EE60AA99A053EC1A2B009099A0A8
:1030D000FFF75FFF19EE100A09F066FB41EC100BD9
:1030E000B0EE40AAF0EE60AA90A053EC1A2B00902C
:1030F00090A0FFF74EFF1A217F4803F0ABFFC820D6
:1031000005F013FF01B0BDEC068B00BD00B52DED41
:10311000068B81B0B0EE408AF0EE608AB0EE419A44
:103120007FA177A0FFF735FFC82005F0FEFE7AA14A
:10313000764806F00DF958B14FF48061734806F0F7
:103140001EFA77A16EA0FFF724FFC82005F0EDFE60
:1031500018EE100A09F028FB41EC100BB0EE40AA63
:10316000F0EE60AA75A053EC1A2B009071A0FFF747
:1031700010FF18EE900A09F017FB41EC100BB0EEAF
:1031800040AAF0EE60AA6DA053EC1A2B009069A043
:10319000FFF7FFFE19EE100A09F006FB41EC100BD9
:1031A000B0EE40AAF0EE60AA64A053EC1A2B009097
:1031B00060A0FFF7EEFE1A214F4803F04BFFC82036
:1031C00005F0B3FE01B0BDEC068B00BD00B52DEDE2
:1031D000068B81B0B0EE408AF0EE608AB0EE419A84
:1031E0004FA147A0FFF7D5FEC82005F09EFE4AA1DB
:1031F000464806F0ADF858B14FF48061434806F0F8
:10320000BEF947A13EA0FFF7C4FEC82005F08DFE21
:1032100018EE100A09F0C8FA41EC100BB0EE40AA03
:10322000F0EE60AA47A053EC1A2B009041A0FFF7E4
:10323000B0FE18EE900A09F0B7FA41EC100BB0EEB0
:1032400040AAF0EE60AA3FA053EC1A2B009039A0E0
:10325000FFF79FFE19EE100A09F0A6FA41EC100BD9
:10326000B0EE40AAF0EE60AA36A053EC1A2B009004
:1032700030A0FFF78EFE1A211F4803F0EBFEC82096
:1032800005F053FE01B0BDEC068B00BD10B5FFF795
:1032900029FE41F2883005F064FE05212BA0FFF7DE
:1032A0009FFE4FF4FA6005F05CFE05212AA0FFF7AF
:1032B00097FE4FF4FA6005F054FE14212AA0FFF7A0
:1032C0008FFE4FF4FA6005F04CFE10BD10B540F2D1
:1032D0002551094803F084FF58B1074803F0BEFEAA
:1032E0000A490B4A1268885409480068401C08497A
:1032F000086010BD00000240004C0040C0070020E4
:1033000025730D0A000000004F4B0000C003002091
:1033100068000020BC0243424552524F5200000058
:1033200041542B43495053454E4400006D2F733296
:103330002C200000252E336625730000E5BAA62F49
:10334000732C2000E5BAA62C2000000041542B432A
:10335000474154543D31000041542B4347414354AD
:103360003D312C310000000041542B43495053544F
:103370004152543D5443502C3232332E332E343884
:103380002E3135302C3832363600000000B58DB085
:103390000121084603F0F0FB0121080203F046FC7E
:1033A00010200B9003208DF8300000208DF83300A2
:1033B0000BA92C4803F04EF90121080203F08BFC05
:1033C00000214FF4807003F086FC002007900A90E3
:1033D00009904FF48030089007A805F045FA0020C6
:1033E00001908DF808008DF80900039005900120E8
:1033F0008DF8180001A91C4805F007FA01211A48A8
:1034000005F04EFA0DB000BD10B5044607230122A9
:103410002146154805F084FA134805F0DDFA00BF8F
:103420000221114805F0E3FB0028F9D00E4805F011
:103430000FFB10BD2DE9F04107460C460025002684
:1034400008E03846FFF7E0FF0544052005F06DFD74
:10345000701CC6B2A642F4DBB5FBF4F080B2BDE846
:10346000F0810000000002400020014010B588B04B
:1034700004460121084603F07FFB0121480403F0C4
:10348000C4FB07220221834803F067F907220321C6
:10349000804803F062F90C20069002208DF81C0091
:1034A00003208DF81D0000208DF81E0001208DF8EE
:1034B0001F0006A9774803F0CDF8402006900120B0
:1034C0008DF81C0003208DF81D0000208DF81E00D3
:1034D00001208DF81F0006A96F4803F0BBF8029485
:1034E0000020ADF80C00ADF80E00ADF81000ADF8FE
:1034F00014000C20ADF8120002A9684803F0F7FC94
:103500000121664803F07BFD4021644803F05FFE23
:10351000012240F22551614803F027FE26208DF854
:10352000040003208DF805008DF8060001208DF8B9
:10353000070001A802F09BFF00205949086008B06D
:1035400010BD10B540F22551544803F049FE002843
:1035500057D0524803F082FDC4B2532C03D101204E
:10356000504908704DE0452C39D14F494FA006F025
:1035700059F818B900205049086019E04A494FA08D
:1035800006F050F818B901204B49086010E0464990
:103590004DA006F047F818B901204E49086007E031
:1035A00041494DA006F03EF810B900204949086095
:1035B0004FF000003B49087009E000203A49394AC1
:1035C0001278885437480078401C364908703548CE
:1035D00000782028F1DB00203249087011E03148E2
:1035E000007800280DDD2F480078802809DC2D4860
:1035F0000078401E2C490C542A480078401C294968
:10360000087010BD70B505460E46012024490860BB
:103610004FF000040CE000BF4021204803F0CAFD39
:103620000028F9D0295D1D4803F014FD601CC4B2C8
:10363000B442F0DB00BF4021184803F0BBFD002876
:10364000F9D00020174908701549086070BD2DE9B0
:10365000F04107460D4613480678002400202870E4
:103660000A2005F062FC0F48007886420FD176B13F
:1036700000BF04E00C48005D3855601CC4B2B44281
:10368000F8DB084800782870002006490870BDE87B
:10369000F081000000000240001802400044004099
:1036A000980243426C000020C00B00204C69676800
:1036B000745F6C6564310000B8024342436C6F7301
:1036C000655F6C65643100004F70656E5F626565B3
:1036D000700000009C024342436C6F73655F62653B
:1036E0006570000000B58DB00121084603F044FA72
:1036F0000121080203F09AFA20200B9003208DF894
:10370000300000208DF833000BA9894802F0A2FF99
:103710000121080203F0DFFA00214FF4807003F06A
:10372000DAFA002007900A9009904FF48030089050
:1037300007A805F099F8002001908DF808008DF891
:1037400009000390059001208DF8180001A979481F
:1037500005F05BF80121774805F0A2F80DB000BD37
:1037600000B58DB00121084603F006FA01210802D8
:1037700003F05CFA40200B9003208DF8300000200D
:103780008DF833000BA96A4802F064FF012108029A
:1037900003F0A1FA00214FF4807003F09CFA00209E
:1037A00007900A9009904FF48030089007A805F020
:1037B0005BF8002001908DF808008DF80900039057
:1037C000059001208DF8180001A95A4805F01DF850
:1037D0000121584805F064F80DB000BD00B58DB06A
:1037E0000121084603F0C8F90121080203F01EFA7E
:1037F00080200B9003208DF8300000208DF83300DE
:103800000BA94B4802F026FF0121080203F063FADE
:1038100000214FF4807003F05EFA002007900A90B8
:1038200009904FF48030089007A805F01DF800209B
:1038300001908DF808008DF8090003900590012093
:103840008DF8180001A93B4804F0DFFF0121394839
:1038500005F026F80DB000BD00B58DB00121084679
:1038600003F08AF90121080203F0E0F94FF48070B7
:103870000B9003208DF8300000208DF833000BA949
:103880002B4802F0E7FE0121080203F024FA002190
:103890004FF4807003F01FFA002007900A900990FF
:1038A0004FF48030089007A804F0DEFF002001905C
:1038B0008DF808008DF809000390059001208DF81F
:1038C000180001A91B4804F0A0FF0121194804F0C9
:1038D000E7FF0DB000BD10B50446072301222146C5
:1038E000144805F01DF8134805F076F800BF0221D2
:1038F000104805F07CF90028F9D00E4805F0A8F82A
:1039000010BD2DE9F04107460C460025002608E0D1
:103910003846FFF7E0FF0544052005F006FB701C64
:10392000C6B2A642F4DBB5FBF4F080B2BDE8F0818C
:10393000000002400020014010B588B0044601217B
:10394000084603F019F90121102003F06FF907224E
:103950000921CF4802F001FF07220A21CC4802F0DA
:10396000FCFE4FF4C060069002208DF81C008DF81C
:103970001D0000208DF81E0001208DF81F0006A9F3
:10398000C34802F067FE02940020ADF80C00ADF8C9
:103990000E00ADF81000ADF814000C20ADF81200C8
:1039A00002A9BC4803F0A3FA0121BA4803F027FB9F
:1039B0004021B84803F00BFC012240F22551B548E4
:1039C00003F0D3FB25208DF8040003208DF80500BB
:1039D0008DF8060001208DF8070001A802F047FDD0
:1039E00008B010BD00BFAB49098811F0400FFAD0F4
:1039F000A8498880704710B503460C46002200BFD6
:103A0000985CFFF7EFFF501C82B2A242F8DB10BDBA
:103A1000F0B595B00026002440F225519D4803F0F2
:103A2000DFFB002814D09C48006808B9012000E0A2
:103A3000002099490860974803F010FBC5B27B2D20
:103A400007D1964896490978455401209449087051
:103A50001BE17D2D7ED19348006808B9012000E06C
:103A60000020904908604FF020010DA805F087FD67
:103A70004F208DF834004B208DF835000D208DF847
:103A800036000A208DF837000DA805F097FC064691
:103A9000B1B20DA8FFF7AFFF8048814909784554BE
:103AA0007F480078401C7E49087000F0CAF97E49C2
:103AB000086000F0D2F97D490860784800F05FFDA9
:103AC000794908600846006890ED040A7748006864
:103AD00080ED030A0846006890ED020A734800680A
:103AE00080ED010A0846006890ED030A6F480068FF
:103AF00080ED020A0846006890ED010A6B480068F4
:103B000080ED000A00240EE067480068203000EBDA
:103B1000840090ED000A65480068103000EB8400D6
:103B200080ED000A641C032CEEDB00240EE05E48EE
:103B30000068143000EB840090ED000A5B480068D8
:103B40001C3000EB840080ED000A641C032CEEDBCB
:103B5000574800E088E090ED000A5448006880ED86
:103B60000A0A00240CE0534800EB840090ED000AA0
:103B70004E4800682C3000EB840080ED000A641C85
:103B8000032CF0DB00240CE04B4800EB840090EDAC
:103B9000000A46480068383000EB840080ED000AD7
:103BA000641C032CF0DB00240CE0444800EB840090
:103BB00090ED000A3D480068443000EB840080ED41
:103BC000000A641C032CF0DB00240CE03C4800EBF2
:103BD000840090ED000A35480068503000EB840006
:103BE00080ED000A641C032CF0DB0020FEF77AF85D
:103BF0003448807833494978324A1278324B9B787E
:103C0000CDE90032CDE902102F484378C2782FA1C8
:103C100005A805F0DBF905A805F0D0FB06461E2136
:103C2000002002F0E4FB2149096808661F49096881
:103C30003246086E05A905F0C9FC1C48006800F072
:103C40008FFC07463946294805F094FB002403E021
:103C5000002012490855641C114800788442F7DBA3
:103C600000200F49087010E00D48007800280CDD96
:103C70000B480078C82808DC0848094909784554E9
:103C800007480078401C0649087015B0F0BD0000D8
:103C90000000024000100140B8024342400C0020E6
:103CA00070000020BC024342740000207800002015
:103CB0001C00002034030020400300204C0300209F
:103CC000C80000204C000020500000203230253079
:103CD00032642F253032642F253032642025303273
:103CE000643A253032643A2530326400080D0020F1
:103CF00000219FEDFE0A80ED040A9FEDFC0A80ED95
:103D0000020A9FEDFA0A80ED030A9FEDF80A80EDA2
:103D1000010AF7A2026000BF09E09FEDF40A00F17A
:103D2000200202EB810282ED000A4A1CD1B2032973
:103D3000F3DB002109E09FEDED0A00F1140202EB34
:103D4000810282ED000A4A1CD1B20329F3DB7047DD
:103D5000014600209FEDE50A81ED030A9FEDE30A8D
:103D600081ED010A9FEDE10A81ED020A9FEDDF0A74
:103D700081ED000ADEA20A6600BF09E09FEDDB0AC2
:103D800001F1100202EB800282ED000A421CD0B267
:103D90000328F3DB002009E09FEDD40A01F11C02A7
:103DA00002EB800282ED000A421CD0B20328F3DB52
:103DB0009FEDCE0A81ED0A0A002009E09FEDCB0AB3
:103DC00001F12C0202EB800282ED000A421CD0B20B
:103DD0000328F3DB002009E09FEDC40A01F138025B
:103DE00002EB800282ED000A421CD0B20328F3DB12
:103DF000002009E09FEDBD0A01F1440202EB8002C0
:103E000082ED000A421CD0B20328F3DB002009E057
:103E10009FEDB60A01F1500202EB800282ED000A2A
:103E2000421CD0B20428F3DB704710B5044620468C
:103E3000FFF75EFF10BD10B504462046FFF788FF70
:103E400010BD10B52C21002002F0D1FA044614B1A7
:103E50002046FFF74DFF204610BD10B5642100201D
:103E600002F0C5FA044614B12046FFF771FF204660
:103E700010BD10B504461CB12146002002F0A7FA7F
:103E800010BD10B504461CB12146002002F09FFA77
:103E900010BD80ED010A704780ED020A704780ED89
:103EA000030A704780ED040A7047016070470246BC
:103EB000002000BF0BE001EB800393ED000A02F14C
:103EC000200303EB800383ED000A431CD8B20328D0
:103ED000F1DB70470246002000BF0BE001EB8003DE
:103EE00093ED000A02F1140303EB800383ED000A53
:103EF000431CD8B20328F1DB704790ED010A7047EC
:103F000090ED020A704790ED030A704790ED040AA5
:103F100070470146086870472DE9F0472DED028B88
:103F200005462C4602F02AF8814694ED010A10EE6F
:103F3000101A084608F038FC41EC100BB0EE408A2D
:103F4000F0EE608A01F0EBFF0646324669A1484672
:103F500001F0B9FE94ED020A10EE101A084608F0BE
:103F600023FC41EC100BB0EE408AF0EE608A01F0C9
:103F7000D6FF0646324662A1484601F0A4FE94ED03
:103F8000030A10EE101A084608F00EFC41EC100B64
:103F9000B0EE408AF0EE608A01F0C1FF064632467C
:103FA0005AA1484601F08FFE94ED040A10EE101A53
:103FB000084608F0F9FB41EC100BB0EE408AF0EE39
:103FC000608A01F0ACFF0646324652A1484601F035
:103FD0007AFE002701F0C9FF06460EB319E0384605
:103FE0007F1C04F1200202EB800090ED000A10EE2D
:103FF000101A084608F0D8FB41EC100BB0EE408ACE
:10400000F0EE608A01F08BFF80464146304601F0B9
:1040100045FE032FE3D3324641A1484601F053FE4B
:10402000002701F0A2FF06460EB319E038467F1CB8
:1040300004F1140202EB800090ED000A10EE101A59
:10404000084608F0B1FB41EC100BB0EE408AF0EEF0
:10405000608A01F064FF80464146304601F01EFE52
:10406000032FE3D3324630A1484601F02CFE2068EE
:1040700001F06DFF064632462DA1484601F023FEB1
:104080004846BDEC028BBDE8F0872DE9F0472DEDE9
:10409000028B05462C4601F071FF074694ED000A9D
:1040A00010EE101A084608F07FFB41EC100BB0EE42
:1040B000408AF0EE608A01F032FF064632460DA1DA
:1040C000384601F000FE94ED010A10EE101A084681
:1040D00008F06AFB41EC100BB0EE408AF0EE608A0B
:1040E00001F01DFF0646324605A125E00000000054
:1040F0000000000074656D70657261747572650012
:1041000068756D6964697479000000006C6967689E
:104110007400000064697374616E636500000000E0
:10412000766F6C7461676500416D706572000000A8
:104130006461746500000000384601F0C4FD94ED30
:10414000020A10EE101A084608F02EFB41EC100B84
:10415000B0EE408AF0EE608A01F0E1FE064632469B
:10416000AFF25801384601F0AEFD94ED030A10EEAF
:10417000101A084608F018FB41EC100BB0EE408A0C
:10418000F0EE608A01F0CBFE06463246AFF27C01CB
:10419000384601F098FD4FF0000801F0E6FE0646B3
:1041A00026B31AE0404608F1010804F1100202EBC0
:1041B000800090ED000A10EE101A084608F0F4FA9C
:1041C00041EC100BB0EE408AF0EE608A01F0A7FEE1
:1041D00081464946304601F061FDB8F1030FE1D355
:1041E0003246AFF2C401384601F06DFD4FF00008D1
:1041F00001F0BBFE064626B31AE0404608F101086E
:1042000004F11C0202EB800090ED000A10EE101A7F
:10421000084608F0C9FA41EC100BB0EE408AF0EE07
:10422000608A01F07CFE81464946304601F036FD49
:10423000B8F1030FE1D33246AFF21411384601F062
:1042400042FD94ED0A0A10EE101A084608F0ACFA86
:1042500041EC100BB0EE408AF0EE608A01F05FFE98
:1042600006463246D6A1384601F02DFD4FF0000833
:1042700001F07BFE06461EB31AE0404608F1010835
:1042800004F12C0202EB800090ED000A10EE101AEF
:10429000084608F089FA41EC100BB0EE408AF0EEC7
:1042A000608A01F03CFE81464946304601F0F6FC4A
:1042B000B8F1030FE1D33246C3A1384601F003FD44
:1042C0004FF0000801F051FE06461EB31AE04046CA
:1042D00008F1010804F1380202EB800090ED000AB9
:1042E00010EE101A084608F05FFA41EC100BB0EE21
:1042F000408AF0EE608A01F012FE8146494630465F
:1043000001F0CCFCB8F1030FE1D33246AFA138463F
:1043100001F0D9FC4FF0000801F027FE06461EB35D
:104320001AE0404608F1010804F1440202EB800063
:1043300090ED000A10EE101A084608F035FA41EC2C
:10434000100BB0EE408AF0EE608A01F0E8FD814685
:104350004946304601F0A2FCB8F1030FE1D33246E2
:104360009BA1384601F0AFFC4FF0000801F0FDFDC5
:1043700006461EB31AE0404608F1010804F1500257
:1043800002EB800090ED000A10EE101A084608F0CB
:104390000BFA41EC100BB0EE408AF0EE608A01F0AF
:1043A000BEFD81464946304601F078FCB8F1040F65
:1043B000E1D3324688A1384601F085FC206E01F039
:1043C000C6FD06463246AFF29821384601F07BFC26
:1043D0003846BDEC028BBDE8F0872DE9F0478146F9
:1043E0007E482C2102680020904705461DB12C21F3
:1043F000284605F0C4F8AFF20431484601F013FC3A
:10440000044654B194ED061BB0EE410AF0EE610A89
:1044100051EC100B07F0CEFB6860AFF21C31484640
:1044200001F001FC044654B194ED061BB0EE410AC4
:10443000F0EE610A51EC100B07F0BCFBA860AFF284
:104440003431484601F0EFFB044654B194ED061BAD
:10445000B0EE410AF0EE610A51EC100B07F0AAFB36
:10446000E860AFF25031484601F0DDFB044654B13C
:1044700094ED061BB0EE410AF0EE610A51EC100B10
:1044800007F098FB28610027BA46AFF26C31484626
:1044900001F0C9FB8046B8F1000F1CD0404601F086
:1044A000B0FB824615E03946404601F0B3FB0646B4
:1044B0007EB196ED061BB0EE410AF0EE610A51ECBA
:1044C000100B07F077FB39467F1C05F1200242F8FC
:1044D00021005745E7D30027BA46AFF2B43148462A
:1044E00001F0A1FB8046B8F1000F1CD0404601F05E
:1044F00088FB824615E03946404601F08BFB0646B4
:104500007EB196ED061BB0EE410AF0EE610A51EC69
:10451000100B07F04FFB39467F1C05F1140242F8DF
:1045200021005745E7D3AFF2F831484601F07BFB55
:1045300004461CB12169286804F01CFF2846BDE828
:10454000F08770B504462046FFF7E6FC0646304685
:1045500001F03AFB0546304600F095F8284670BD5C
:1045600070B504462046FFF790FD0646304601F040
:104570002BFB0546304600F086F8284670BD70B526
:104580000546284600F026FF044634B12046FFF7D2
:1045900024FF0646204600F076F8304670BD70B520
:1045A0000546284600F016FF044634B12046FFF7C2
:1045B00014FF0646204600F066F8304670BD000045
:1045C000766F6963650000006163630070616C0071
:1045D000616E676C6500000064697300AC000020C8
:1045E000FC480068704770B504460D462CB9AC42D3
:1045F00001D0012070BD0020FCE70DB90120F9E7D2
:1046000005E0207808B90020F4E7641C6D1C2078D0
:1046100004F0BCFC0646287804F0B8FC8642F0D0D2
:10462000207804F0B3FC0646287804F0AFFC301A7A
:10463000E0E770B50446204604F0C0FE451C29465C
:104640000020E54A12689047060000D170BD2A4656
:104650002146304604F01CFF3046F7E7DF49DE4ACA
:104660001160DF49DF4A1160704710B52821002032
:10467000D94A1268904704461CB12821204604F00C
:104680007EFF204610BD70B5044625E02568A08950
:1046900010F4807F04D1A06810B1A068FFF7F3FF89
:1046A000A08910F4807F06D1206920B10020CD4A76
:1046B000216912689047A08910F4007F06D1206A12
:1046C00020B10020C74A216A126890472146002085
:1046D000C44A126890472C46002CD7D170BD2DE9F2
:1046E000F0412DED0E8B05460C469FEDBF0BB0EE55
:1046F000408AF0EE608A9FEDBE0BB0EE40AAF0EE6D
:1047000060AA9FEDB90BB0EE409AF0EE609A0026D9
:10471000012720782D2806D19FEDB70BB0EE40AAD7
:10472000F0EE60AA641C2078302800D1641C207848
:1047300031282FDB207839282CDC00BF14F8011B2E
:10474000A1F1300007F0E7FC41EC100BB0EE40BAED
:10475000F0EE60BA9FEDAA0B53EC102B51EC180B46
:1047600007F02CFD41EC100BB0EE40CAF0EE60CA31
:1047700053EC1B2B51EC1C0B07F04EFA41EC100BC9
:10478000B0EE408AF0EE608A2078302802DB207894
:104790003928D3DD20782E2841D1607830283EDBBF
:1047A000607839283BDC641C00BF14F8011BA1F1C0
:1047B000300007F0B0FC41EC100BB0EE40BAF0EE68
:1047C00060BA9FED8F0B53EC102B51EC180B07F0D8
:1047D000F5FC41EC100BB0EE40CAF0EE60CA53ECB1
:1047E0001B2B51EC1C0B07F017FA41EC100BB0EE31
:1047F000408AF0EE608A9FED7E0B53EC102B51EC5B
:10480000190B07F0E7FE41EC100BB0EE409AF0EE0A
:10481000609A2078302802DB20783928C5DD20789E
:10482000652802D02078452819D1641C20782B28CF
:1048300001D1641C05E020782D2802D14FF0FF370C
:10484000641C06E014F8010B303806EB860100EB1F
:1048500041062078302802DB20783928F2DD06FB7B
:1048600007F007F058FC41EC100BB0EE40EAF0EE18
:1048700060EA53EC192B51EC1E0B07F0CDF941EC1B
:10488000100BB0EE40DAF0EE60DAB0EE4D1AF0EE5A
:104890006D1A9FED5B0B06F033FAB0EE40BAF0EE06
:1048A00060BA53EC182B51EC1A0B07F087FC41EC63
:1048B000100BB0EE40CAF0EE60CA53EC1B2B51EC6B
:1048C0001C0B07F07BFC41EC100BB0EE408AF0EEC5
:1048D000608A85ED068B51EC180B07F0EDFB6861E3
:1048E0000320E8602046BDEC0E8BBDE8F081014658
:1048F000491E41EA610141EAA10141EA211141EA6F
:10490000212141EA2141481C70472DE9F04104462C
:104910000E460CB1206810B90020BDE8F081A068F7
:1049200006446068B04203DBA16820680844F4E7ED
:104930003046FFF7DCFF074639460020264A12685A
:104940009047054645B90020264A216812689047DD
:10495000002060602060E0E725B12846D4E900121D
:1049600004F096FD00201F4A216812689047676096
:104970002560A0682844D0E770B504460CB12068D3
:1049800008B9002070BDA16820684518284604F0C9
:1049900015FDA1680844F5E770B52DED088B82B0D0
:1049A00006460C46002596ED060BB0EE408AF0EE6A
:1049B000608A9FED0D0B53EC102B51EC180B07F098
:1049C0003FFB2DD12CB102212046FFF79EFF05466B
:1049D00020E019E07C00002080000020EF63000848
:1049E000CF630008840000200000000000000000E9
:1049F000000000000000F03F000000000000F0BFD9
:104A0000000000000000244002210020F84A126843
:104A100090470546002D02D0F6A000882880E3E0EC
:104A2000706907F078FB41EC100BB0EE40BAF0EE85
:104A300060BA53EC182B51EC1B0B07F0CBFD41EC8B
:104A4000100BB0EE40AAF0EE60AA06F0C3F8B0EE8C
:104A5000409AF0EE609A9FEDE80B53EC102B51EC6E
:104A6000190B07F06FFB26D89FEDE50B53EC102BCD
:104A700051EC180B07F066FB1DD89FEDE30B53ECD0
:104A8000102B51EC180B07F097FC14D82CB1152102
:104A90002046FFF73AFF054605E015210020D44ADD
:104AA000126890470546002DB9D0D9A128467269F1
:104AB00004F08CFA98E02CB140212046FFF725FF46
:104AC000054605E040210020C94A12689047054686
:104AD000002D16D051EC180B06F064F890B18DED56
:104AE000008B0199C1F30A50A0F5E061FF3902D0B3
:104AF00008B1012100E0002121B9C6A1284604F037
:104B000065FA71E0B0EE480AF0EE680A06F06CF85B
:104B1000B0EE40BAF0EE60BA53EC182B51EC1B0B20
:104B200007F058FD41EC100BB0EE409AF0EE609AA1
:104B300006F050F8B0EE40AAF0EE60AA9FEDAE0B82
:104B400053EC102B51EC1A0B07F0FCFA19D8B0EE0D
:104B5000480AF0EE680A06F03DF8B0EE409AF0EE32
:104B6000609A9FEDAE0B53EC102B51EC190B07F034
:104B7000E9FA06D253EC182BAAA1284604F026FA2B
:104B800032E0B0EE480AF0EE680A06F023F8B0EE24
:104B9000409AF0EE609A9FEDA50B53EC102B51EC70
:104BA000190B07F0CFFA12D3B0EE480AF0EE680AFC
:104BB00006F010F8B0EE409AF0EE609A9FED9D0B73
:104BC00053EC102B51EC190B07F0F6FB06D253EC0B
:104BD000182B9AA1284604F0F9F905E053EC182B9C
:104BE00097A1284604F0F2F9284602B0BDEC088BE4
:104BF00070BD014600220878302806DB0878392885
:104C000003DC08783038024415E00878412806DBD8
:104C10000878462803DC0878373802440BE0087827
:104C2000612806DB0878662803DC087857380244D8
:104C300001E0002070471201491C0878302806DB8B
:104C40000878392803DC08783038024415E0087801
:104C5000412806DB0878462803DC08783738024408
:104C60000BE00878612806DB0878662803DC087802
:104C70005738024401E00020DCE71201491C0878A3
:104C8000302806DB0878392803DC087830380244FD
:104C900015E00878412806DB0878462803DC087808
:104CA000373802440BE00878612806DB087866286C
:104CB00003DC08785738024401E00020BAE712010B
:104CC000491C0878302806DB0878392803DC087886
:104CD0003038024415E00878412806DB0878462879
:104CE00003DC0878373802440BE00878612806DBDB
:104CF0000878662803DC08785738024401E0002071
:104D000098E7104696E72DE9F05F8346884608F15C
:104D10000104002798F80000222805D04948C0F86F
:104D200000800020BDE8F09F04E014F8011B5C291E
:104D300000D1641C2078222804D0207810B1781C7F
:104D40000700F2D1791C0020294A12689047814659
:104D5000B9F1000F01D10020E4E708F101044D464C
:104D6000C9E020785C2804D014F8010B05F8010B89
:104D7000C1E0641C2078722818D006DC622809D0B3
:104D800066280BD06E2877D10CE0742812D07528D5
:104D9000F9D113E0082005F8010BAAE00C2005F872
:104DA000010BA6E00A2005F8010BA2E00D2005F892
:104DB000010B9EE0092005F8010B9AE0601CFFF74B
:104DC00018FF0646241DB6F55C4F02D3B6F5604FBA
:104DD00000D306B98DE0B6F5584F48D3B6F55C4F11
:104DE00045D260785C2802D1A07875282CD080E06C
:104DF0008000002030000000000000000000B03CF7
:104E00000000C0FFFFFFDF41000000000000E0C124
:104E1000256400006E756C6C0000000044F3C2E471
:104E2000E4E9634C252E3066000000008DEDB5A04E
:104E3000F7C6B03E0000000065CDCD4125650000FD
:104E4000256600007C000020E01CFFF7D2FE8246B1
:104E5000A41DBAF55C4F02D3BAF5604F00D348E009
:104E6000C6F30901504661F39F2000F58036042700
:104E7000802E02D2012709E037E0B6F5006F01D29B
:104E8000022703E0B6F5803F00D203273D44012FFF
:104E900020D0022F15D0032F0AD0042F22D106F0E4
:104EA000BF0040F08001681E05460170B60900BFD2
:104EB00006F0BF0040F08001681E05460170B6098B
:104EC00000BF06F0BF0040F08001681E054601707B
:104ED000B60900BFF748C05D3043C1B2681E054641
:104EE000017000BF00BF3D4403E0207805F8010BCE
:104EF00000BF00BF641C2078222803D0207800283F
:104F00007FF42FAF002028702078222800D1641C65
:104F1000CBF810900420CBF80C00204602E72DE9D6
:104F2000F05F804689460027BB46454611E0287859
:104F3000002802DD2878202805DB2878222802D0E6
:104F400028785C2801D1012000E0002040EA0B0B0A
:104F50006D1C28780028EAD1BBF1000F23D1A5EB06
:104F60000807B9F1000F05D0F91C4846FFF7CDFC42
:104F7000064605E0F91C0020CF4A12689047064615
:104F800016B90020BDE8F09F3446222004F8010B3A
:104F90004146204604F0EEF92220E0550021781C1D
:104FA00021543046EEE7B8F1000F17D1B9F1000FE8
:104FB00005D003214846FFF7A8FC064605E003217B
:104FC0000020BD4A1268904706460EB90020D9E776
:104FD000BAA1304604F0CEF93046D3E745460BE09F
:104FE0005146B7A004F0AAF908B17F1C03E0BAF15A
:104FF000200F00DA7F1D6D1C95F800A0BAF1000F9C
:1050000002D0781C0700EBD1B9F1000F05D0F91CD4
:105010004846FFF77AFC064605E0F91C0020A64A40
:105020001268904706460EB90020ABE73446454665
:10503000222004F8010B47E028781F280ADD287891
:10504000222807D028785C2804D015F8010B04F832
:10505000010B39E05C2004F8010B15F8011B8A46AE
:105060000C2919D006DC082912D0092920D00A29D8
:1050700022D115E00D2917D0222905D05C291BD19A
:105080005C2004F8010B1EE0222004F8010B1AE05A
:10509000622004F8010B16E0662004F8010B12E010
:1050A0006E2004F8010B0EE0722004F8010B0AE0F8
:1050B000742004F8010B06E0524683A1204603F059
:1050C00085FF641D00BF00BF28780028B4D12220CE
:1050D00004F8010B002004F8010B304652E770B5CC
:1050E00004460D4629462069FFF719FF70BD00E010
:1050F000401C20B1017811B101782029F8DD7047FA
:105100002DE9F04706460C4620787B2804D07048ED
:1051100004600020BDE8F0870620F060601CFFF707
:10512000E6FF044620787D2801D1601CF2E7FFF7F6
:105130009CFA0546B060B06808B90020EAE720464E
:10514000FFF7D5FF804641462846FFF7DCFD0746BE
:10515000FFF7CDFF04460CB90020DBE72869286281
:105160000020286120783A2803D0594804600020A4
:10517000D0E7601CFFF7BBFF80464146284600F0A1
:10518000A9F80746FFF7B3FF04460CB90020C1E7B2
:1051900031E0FFF76AFA070000D1BBE72F607D60BE
:1051A0003D46601CFFF7A3FF814649462846FFF7AE
:1051B000AAFD8046FFF79BFF04460CB90020A9E733
:1051C000286928620020286120783A2803D04048C6
:1051D000046000209EE7601CFFF789FF8146494676
:1051E000284600F077F88046FFF781FF04460CB9A7
:1051F00000208FE700BF20782C28CAD020787D2897
:1052000001D1601C86E732480460002082E72DE966
:10521000F04705460C4620785B2804D02C480460F3
:105220000020BDE8F0870520E860601CFFF75FFF05
:10523000044620785D2801D1601CF2E7FFF715FADB
:105240000646A860A86808B90020EAE72046FFF7EC
:105250004EFF80464146304600F03CF80746FFF7D7
:1052600046FF04460CB90020DBE717E0FFF7FDF925
:10527000070000D1D5E737607E603E46601CFFF72F
:1052800036FF81464946304600F024F88046FFF755
:105290002EFF04460CB90020C3E700BF20782C285D
:1052A000E4D020785D2801D1601CBAE7084804608A
:1052B0000020B6E762E10008800000202222000002
:1052C000225C080C0A0D09007525303478000000B6
:1052D0007C00002070B505460C460CB9002070BD5E
:1052E0000422AFF2D041204604F087F818B902201A
:1052F000E860201DF3E70522FBA1204604F07DF8BD
:1053000018B90020E860601DE9E70422F8A12046F2
:1053100004F073F820B90120E8606861201DDEE721
:105320002078222804D121462846FFF7ECFCD6E756
:1053300020782D2805D02078302807DB20783928E0
:1053400004DC21462846FFF7CAF9C8E720785B2825
:1053500004D121462846FFF75AFFC0E720787B2872
:1053600004D121462846FFF7CBFEB8E7E2480460A7
:105370000020B4E72DE9F04780460D46164600248C
:10538000FFF773F907460020DB4908600FB9BDE855
:10539000F0874046FFF7ABFE814649463846FFF7A7
:1053A00099FF044624B93846FFF76DF90020EEE76F
:1053B00066B12046FFF79BFE0446207830B13846A0
:1053C000FFF761F9CC4804600020E0E705B12C60EC
:1053D0003846DCE710B50446002211462046FFF7A8
:1053E000C9FF10BD2DE9FF4F89B0884616461F46FC
:1053F0004FF0000A00200890079007200490002535
:105400000998D0F80890002002900190009004E0E4
:105410000298401C0290D9F80090B9F1000FF7D122
:105420000298002836D157B116B108F1040000E007
:10543000032001463846FFF768FA07900AE016B1E4
:1054400008F1040000E0032001460020AB4A126886
:1054500090470790079818B900200DB0BDE8F08F6D
:10546000079C7B2004F8010B66B10A2004F8010BAD
:10547000002503E0092004F8010B6D1CA8F10100D0
:10548000A842F7DC7D2004F8010B002004F8010B92
:105490000798E2E7002F79D0BD680EB1022000E046
:1054A000012004900499491C3846FFF72EFA04465F
:1054B0000CB90020D1E77B2004F8010B16B10A20BB
:1054C00004F8010B00202070B96804980844B86003
:1054D0000998D0F8089008F101086AE0B6B1414691
:1054E0003846FFF712FA04460CB90020B5E7002051
:1054F000039005E0092004F8010B0398401C039079
:1055000003984045F6DBB8684044B8603946D9F89E
:105510002000FFF704FD3846FFF72EFAB8600EB101
:10552000022000E00120049038460499FFF7EDF9CD
:1055300004460CB9002090E73A2004F8010B16B19C
:10554000092004F8010BB96804980844B8603B4688
:1055500032464146484600F097FA3846FFF70CFAC3
:10556000B8600EB1012000E00020D9F8001009B1A8
:10557000012100E00021084404900499491C3846A8
:10558000FFF7C3F9044614B9002066E735E0D9F8FF
:10559000000010B12C2004F8010B16B10A2004F809
:1055A000010B00202070B96804980844B860D9F84D
:1055B0000090B9F1000F91D116B108F1010000E09F
:1055C000022001463846FFF7A0F904460CB9002036
:1055D00043E74EB1002503E0092004F8010B6D1CE0
:1055E000A8F10100A842F7DC7D2004F8010B00209F
:1055F00020703868284407901CE102988100002040
:105600003E4A126890478246BAF1000F01D100204D
:1056100023E7029881000020384A126890470890DA
:10562000089830B951460020354A1268904700204A
:1056300013E702988100504603F0A1FF0298810011
:10564000089803F09CFF0998D0F8089008F1010829
:1056500016B10498404404902FE00021D9F82000AE
:10566000FFF75DFC0590089941F8250000233246BC
:105670004146484600F008FA29466D1C06904AF853
:1056800021000598A8B1069898B1069803F096FEF7
:105690008346059803F092FE0BEB0001891C16B1BE
:1056A00008F1020000E0002001440498084404903E
:1056B00001E001200190D9F80090B9F1000F02D06B
:1056C00001980028C9D0019828B900200B4A0499F4
:1056D000126890470790079808B901200190019837
:1056E000A0B3002523E0000066616C736500000034
:1056F00074727565000000007C00002080000020AE
:1057000084000020089850F8250030B1089850F81F
:1057100025100020F94A126890475AF8250028B150
:105720005AF825100020F54A126890476D1C02981F
:105730008542E7DB0020F14A0899126890475146FC
:105740000020EE4A12689047002086E6FFE77B21A2
:10575000079801700798441C16B10A2004F8010B41
:1057600000202070002547E05EB10020039005E096
:10577000092004F8010B0398401C0390039840454E
:10578000F6DB089951F8250003F018FE0090089800
:1057900050F825102046009A03F07AFE0098044441
:1057A0003A2004F8010B16B1092004F8010B5AF84D
:1057B0002510204603F0DEFD5AF8250003F0FEFD1B
:1057C00004440298401EA84202D02C2004F8010B89
:1057D00016B10A2004F8010B00202070089850F838
:1057E00025100020C54A126890475AF8251000205D
:1057F000C24A126890476D1C02988542B4DB0020B3
:10580000BE4A08991268904751460020BB4A126868
:1058100090474EB1002503E0092004F8010B6D1CF0
:10582000A8F10100A842F7DC7D2004F8010B00205C
:1058300004F8010B079810E62DE9FF4F85B092465A
:105840001E464FF0000B052003900598D0F8088005
:10585000D946002500200290019003E009F10109DA
:10586000D8F80080B8F1000FF8D1B9F1000F17D1C6
:105870002EB103213046FFF748F8834605E00321A7
:1058800000209F4A126890478346BBF1000F03D067
:105890009CA1584603F06EFD584609B0BDE8F08F54
:1058A000002E57D0B56801213046FFF72EF8044688
:1058B0000CB90020F1E75B202070B068401CB0609C
:1058C0000598D0F808802EE0334652460699491CC8
:1058D000404600F0D9F83046FFF74EF8B060D8F8EF
:1058E0000000F0B1BAF1000F01D0022000E0012069
:1058F00003900399491C3046FFF707F804460CB99A
:105900000020CAE72C2004F8010BBAF1000F02D0E6
:10591000202004F8010B00202070B168039808448F
:10592000B060D8F80080B8F1000F02D002980028CB
:10593000CAD002213046FEF7E8FF04460CB9002029
:10594000ABE75D2004F8010B00202070306800EB0D
:10595000050B97E04FEA89010020694A12689047D9
:1059600007460FB9002098E74FEA8901384603F04F
:1059700006FE0598D0F8088021E0002352460699DB
:10598000491C404600F080F8049029466D1C04989C
:1059900047F82100049870B1049803F00FFD801CB3
:1059A000BAF1000F01D0012100E000210144039869
:1059B0000844039001E001200290D8F80080B8F17B
:1059C000000F02D002980028D7D0029828B90020F2
:1059D0004B4A0399126890478346BBF1000F01D1EF
:1059E000012002900298A0B1002509E057F8250097
:1059F00028B157F825100020404A126890476D1CC6
:105A00004D45F3DB394600203C4A126890470020A0
:105A100043E75B208BF800000BF1010400202070AD
:105A2000002522E057F8250003F0C8FC019057F844
:105A300025102046019A03F02BFD01980444A9F19A
:105A40000100A8420AD02C2004F8010BBAF1000F83
:105A500002D0202004F8010B0020207057F82510F8
:105A60000020264A126890476D1C4D45DADB394606
:105A70000020224A126890475D2004F8010B0020A4
:105A800004F8010B584608E72DE9F04104460F469B
:105A900090461D46002614B90020BDE8F081002D77
:105AA0004FD0207B07284BD2DFE800F0101C042EDB
:105AB000343A420005212846FEF727FF064626B164
:105AC000AFF6B041304603F055FC39E006212846D8
:105AD000FEF71BFF064626B1AFF2F431304603F065
