:020000040800F2
:1000000070D20120290400080D0400080F04000824
:1000100013040008170400081B0400080000000077
:100020000000000000000000000000001F040008A5
:100030002104000800000000230400082504000833
:100040004304000843040008430400089F1C000800
:100050004304000843040008430400084304000864
:100060004304000843040008430400084304000854
:100070004304000843040008430400084304000844
:100080004304000843040008430400084304000834
:100090004304000843040008430400084304000824
:1000A0004304000843040008430400084304000814
:1000B000A16E00084304000843040008430400083C
:1000C00043040008430400084304000843040008F4
:1000D00043040008F937000853330008E31E000802
:1000E000430400086B1D0008430400084304000893
:1000F00043040008430400084304000843040008C4
:1001000043040008430400084304000843040008B3
:10011000DD300008430400084304000843040008DD
:100120004304000843040008430400084304000893
:100130004304000843040008430400084304000883
:100140004304000843040008430400084304000873
:10015000430400084304000843040008392700084A
:100160004304000843040008430400084304000853
:100170004304000843040008430400084304000843
:10018000430400084304000800F002F800F092F86D
:100190000AA090E8000C82448344AAF10107DA45E2
:1001A00001D100F087F8AFF2090EBAE80F0013F0A2
:1001B000010F18BFFB1A43F001031847A00101000B
:1001C000C0010100103A24BF78C878C1FAD852079C
:1001D00024BF30C830C144BF04680C6070470000C1
:1001E0000023002400250026103A28BF78C1FBD840
:1001F000520728BF30C148BF0B6070476E290BF013
:10020000088370290AF0D88766290EF0588365297B
:100210000EF0558367290EF0528361290EF0518349
:1002200003681B0A28BF41F0800169290AF046874C
:1002300064290AF0438775290AF040876F290BF07B
:10024000018678290AF0A487E9290BF09985E42929
:100250000BF09685F5290BF09385EF290BF0FE85C1
:10026000F8290AF0A3870368DB0928BF41F0800161
:1002700063290BF01A8573290BF01F85E3290CF015
:100280001180F3290CF01680002070471FB50EF086
:100290000CFB0BF0EDFD0400002000210DF062FCD2
:1002A000401C6060002000210DF072FCE0601FBD6A
:1002B00010B510BD0CF098F81146FFF7E7FF00F0FD
:1002C00009F80CF0B6F803B4FFF7F2FF03BC0CF02A
:1002D000B7F800002DED068B002400BF4FF4A0609E
:1002E00007F040F80AF0D6FD00F0BAF900F03CFA49
:1002F00001F0BCFB00F004FE01F0B0FC4FF416501E
:1003000001F04CFD02F0CAFE02F0C0F94FF4E130FA
:1003100003F006FA02F042FF03F0D8F803F014F9F4
:1003200003F050F903F08CF94FF4165002F0A6FFD9
:1003300006F0D8FD03F085FE06F06CFC4FF4165075
:1003400002F09CFF0AE00020274908604FF4FA7091
:100350000AF0FBFD01202549C1F8BC0224480068D1
:100360000028F0D03FE0B4F5FA7F38DD042002F039
:1003700053FF00EE100AB8EE400ADFED1E0A80EED1
:10038000201A11EE105A28460EF01EFA41EC100BFE
:10039000B0EE40AAF0EE60AA9FED170B53EC102BC5
:1003A00051EC1A0B0DF01AFF41EC100BB0EE409A15
:1003B000F0EE609A9FED120B53EC102B51EC190BE1
:1003C0000DF0F6FC41EC100BB0EE408AF0EE608AC6
:1003D00051EC180B0DF0FEFB0B49086000240520C2
:1003E0000AF0B3FD641CBEE7BC0243420000434276
:1003F00004024342000080450000000000E07A4013
:10040000000000000000144000000020704700BF02
:10041000FEE700BFFEE700BFFEE700BFFEE7704754
:1004200070477047704700000948804709480047F7
:10043000FEE7FEE7FEE7FEE7FEE7FEE7FEE7FEE794
:10044000FEE7FEE704480549054A064B70470000F1
:100450002F0500088901000870CC012070D201200E
:1004600070CE012070CE012000210020714A126858
:1004700042F480326F4B1A6000BF6E4A126802F479
:100480000030491C10B9B1F5A04FF6D1694A126885
:1004900012F4003F01D0012000E00020012845D1E6
:1004A000644A4032126842F08052624B40331A6014
:1004B000614A126842F440425F4B1A605D4A08325A
:1004C00012685C4B08331A601A46126842F4004204
:1004D0001A601A46126842F4A0521A60574A1B1F4B
:1004E0001A601A1F126842F080721B1F1A6000BF48
:1004F000504A126812F0007FFAD040F20572504B59
:100500001A604C4A0832126822F00302494B083341
:100510001A601A46126842F002021A6000BF454A89
:100520000832126802F00C02082AF8D1704710B5A0
:100530004448006840F47000424908603D48006843
:1005400040F001003B49086000203A49083108604A
:10055000384800683C490840364908603B48091D56
:100560000860081F006820F48020091F0860002030
:1005700030490C310860FFF777FF4FF000603149D8
:100580008039086010BD70B50020002202230024CD
:100590000221284D08352D6805F00C0020B10428F3
:1005A00006D0082834D107E0294D2A4E356033E0C3
:1005B000294D284E35602FE01E4D2D1D2D68C5F3A9
:1005C00080541C4D2D1D2D6805F03F0154B1224D66
:1005D000B5FBF1F5174E361D3668C6F3881605FBD8
:1005E00006F209E01A4DB5FBF1F5124E361D3668DC
:1005F000C6F3881605FB06F20E4D2D1D2D68C5F3BA
:1006000001456D1C6B00B2FBF3F5124E356003E043
:100610000F4D104E356000BF00BF064D08352D68E8
:10062000C5F303150D4E705D0A4D2D68C540094E8A
:10063000356070BD0038024000700040195440071A
:10064000003C024088ED00E0FFFFF6FE1030002481
:100650000024F4000400002040787D010800002000
:100660001CB50121202007F007FA4FF470700090AC
:1006700000208DF8040003208DF8050001208DF87E
:10068000070069462E4806F065FF1CBD00212D4A73
:1006900011702D49096849B12C49096831B12C49BB
:1006A000096819B12B490968002939D12649096817
:1006B00019B90121284A117013E02449096819B9B0
:1006C0000221254A11700CE02149096819B903215A
:1006D000214A117005E01F49096811B904211E4A19
:1006E00011701D4909781D4A1278914210D11C4998
:1006F0000988491C1A4A118017490978194A11704A
:10070000E8B917490988012919DD0021117016E09F
:100710000021134A118010490978104A11700EE027
:100720000F490988022903DD0B490978054A117030
:1007300000210A4A11700A4A11800A4A1170704752
:100740000014024019000020188242421C824242DA
:1007500020824242248242421C0000201D000020D0
:100760001A000020180000201CB50121402007F0CD
:1007700083F94FF46040009001208DF804000020C0
:100780008DF8060003208DF8050001208DF8070084
:100790006946044806F0DEFE4FF46041014806F069
:1007A0004DFF1CBD00180240FD4A1080921C1180B4
:1007B000704710B50446FA48048005200AF07FFB14
:1007C000F748801C008810BDF6480088F44908806E
:1007D000704700BF0100A0F10102D0B2FAD170470A
:1007E00030B5014601F01F04C1F34513CA0AE50202
:1007F00005EB43151544A8B230BD10B503460C46B1
:10080000E9480088A0F51341413912D1E748008832
:10081000E34908801812891C0880D8B20880E4488F
:100820000088891E08802012891C0880E0B2088098
:1008300012E0E0480078012804D1DF480088401E1B
:10084000C01A83B21946D9480088FFF7ADFF214688
:10085000D7480088FFF7A8FF10BD2DE9F0410546F5
:100860000E4600240027A046D3480088854203DABC
:10087000D2480088864202DB0020BDE8F081314684
:100880002846FFF7BAFFC8480088A0F51341413950
:1008900003D12E20C249088002E02220C0490880EE
:1008A000BF48801C008800B100240220FFF791FFA0
:1008B000BB48801C0488BC480088A0F5134141391E
:1008C0000BD10220FFF785FFB548801CB0F80080EF
:1008D000E7B24FF6FF7000EA0727B3480088A0F59B
:1008E0001341253901D12046C7E7AF480088A0F55C
:1008F0001341413907D1E012C002B91240EA411058
:1009000040EAE820B9E72046FFF76AFFB5E700B5FF
:10091000A5480088A0F51341413903D12920A049F9
:10092000088004E040F273110720FFF73DFF00BD8F
:1009300000B59D480088A0F51341413903D1282016
:100940009749088003E000210720FFF72DFF00BD35
:10095000F0B505460024002796480078012818D1F4
:10096000082D15D2DFE805F00406080A0C0E101257
:1009700006250DE007250BE0042509E0052507E025
:10098000012505E0002503E0032501E0022500BF65
:1009900000BF85480088A0F5134141395ED1082D7C
:1009A0001CD2DFE805F00406090C0F12151800BF71
:1009B00014E044F0800411E044F040040EE044F000
:1009C000C0040BE044F0200408E044F0600405E0BB
:1009D00044F0A00402E044F0E00400BF00BF36276A
:1009E00044F0080421463846FFF7DEFE14F0200FDD
:1009F0000DD07148008871490988884207DA6E482D
:100A000006886E4800886C4908806C4806806748F4
:100A10000088634908800020891C08800880664897
:100A20000088401EC0F30F20088063480078401EF5
:100A3000C0B208805E480088891E08800020891C9A
:100A4000088008805D480088401EC0F30F200880A1
:100A50005A480078401EC0B2088026E0082D1CD2FB
:100A6000DFE805F004070A0D15180F1244F03004F2
:100A700013E044F0100410E044F020040DE000BF47
:100A80000BE044F0180408E044F0080405E044F0EA
:100A9000380402E044F0280400BF00BF032744F4F8
:100AA000805421463846FFF77FFEF0BD10B504465E
:100AB0001CBB00203F490870F0203F4908804FF4DC
:100AC000A0703E49088038480088A0F5134141399C
:100AD00009D12C20334908802A20344908802B2052
:100AE000334908802CE022202E49088020202F49FD
:100AF000088021202E49088022E001202D4908701D
:100B00004FF4A0702C490880F0202C49088026481A
:100B10000088A0F51341413909D12C2021490880D2
:100B20002A20224908802B202149088008E0222021
:100B30001C49088021201D49088020201C4908806C
:100B40000020FFF705FF10BD30B504460D462946CD
:100B50002046FFF752FEFFF737FE1948008810497C
:100B6000891C088030BD30B503460C4615460E483A
:100B70000088A0F51341413924D10C480088084968
:100B800008801812891C0880D8B20880084800889C
:100B9000891E08802012891C0880E0B2088024E0A9
:100BA000FE1F006C2A000020220000202C000020E4
:100BB0002E00002024000020260000202800002015
:100BC0001E000020FE480078012804D1FD4800885E
:100BD000401EC01A83B21946FB480088FFF7E4FDA7
:100BE0002146FA480088FFF7DFFDF9480088F949F7
:100BF0000880881C058030BD2DE9FF4F04460D4656
:100C000016461F46A019401E86B2E819401E87B23C
:100C1000F1480088A0F5134141391AD1EA4800880B
:100C2000EC4908802012891C0880E0B2088030124C
:100C30000880F0B20880E5480088891E08802812E4
:100C4000891C0880E8B2088038120880F8B2088051
:100C500032E0DB48007801280ED1A846B946D948D1
:100C60000088801B401E1FFA80FAD6480088001BAF
:100C7000401E1FFA80FB03E0A046B146AA46BB46D1
:100C80005020039051200290522001905320009058
:100C900041460398FFF788FD49460298FFF784FD17
:100CA00051460198FFF780FD59460098FFF77CFDFB
:100CB00029462046FFF7A1FDBDE8FF8F00B59FB094
:100CC0000121782006F0D8FE0121084606F00CFF2D
:100CD0004FF480601D9001208DF8780000208DF881
:100CE0007A0002208DF8790001208DF87B001DA983
:100CF000BA4806F02FFC4CF233701D9002208DF89C
:100D0000780000208DF87A0003208DF8790001200A
:100D10008DF87B001DA9B24806F01CFC4FF68070D0
:100D20001D9002208DF8780000208DF87A000320B5
:100D30008DF8790001208DF87B001DA9A94806F0E7
:100D400009FC04201D9002208DF8780000208DF809
:100D50007A0003208DF8790001208DF87B001DA911
:100D6000A14806F0F7FB4FF480501D9002208DF84B
:100D7000780000208DF87A0003208DF8790001209A
:100D80008DF87B001DA9984806F0E4FB0C22002199
:100D9000934806F062FC0C220121914806F05DFCAC
:100DA0000C2204218E4806F058FC0C2205218C48A8
:100DB00006F053FC0C220821894806F04EFC0C2258
:100DC0000921874806F049FC0C220A21844806F0D4
:100DD00044FC0C220E21824806F03FFC0C220F211D
:100DE0007F4806F03AFC0C2207217E4806F035FCCD
:100DF0000C2208217B4806F030FC0C22092179489E
:100E000006F02BFC0C220A21764806F026FC0C2268
:100E10000B21744806F021FC0C221146714806F0A3
:100E20001CFC0C220D216F4806F017FC0C220E2131
:100E30006C4806F012FC0C220F216A4806F00DFCEB
:100E40000C220221684806F008FC0C221146664874
:100E500006F003FC0F200790002008903C2009902A
:100E600000200A900B900C900D900920009000201B
:100E700001900820029000200390049005900690B5
:100E800006200E9000200F9010901020119000204E
:100E9000129014901390159016904FF48050179064
:100EA000002018904FF48040199000201A9007A855
:100EB0001B90CDF870D00EA807F078F9012106201C
:100EC00007F0FCF932200AF040F81FB000BD70B501
:100ED0000446002500263B4800884449098800FB59
:100EE00001F600210846FFF788FCFFF76DFC00BF04
:100EF00003E03848801C04806D1CB542F9D370BDF6
:100F000010B50024FFF7DAFE01210020FFF74CFCAA
:100F100032200AF01AF80020FFF74BFC2E49088017
:100F200008460088FF280ADB08460088A0F57F41B4
:100F3000FF3904D028480088B0F5134F1DD1D320C5
:100F400024490880881C0088234908802148801C87
:100F5000008808801F48801C008808800846008898
:100F60004FF6FF7101EA00201B4908801948801CD8
:100F70000088098808431849088017480088A0F5A8
:100F80001341413938D11A48006820F00F004FF062
:100F90002041C1F81C010846D0F81C0120F4706003
:100FA000C1F81C010846D0F81C0140F00300C1F84C
:100FB0001C010846D0F81C0140F400701AE0000043
:100FC00024000020260000202C0000202E000020FD
:100FD0002A000020FE1F006C2200002000140240A6
:100FE000000C0240001002400018024028000020BF
:100FF0001C0100A0C1F81C01FE480088A0F51341A7
:1010000028397DD141F28F01EC20FFF7CDFB41F271
:101010003421EF20FFF7C8FB4FF480710120FFF768
:10102000C3FB4FF4E0610220FFF7BEFB41F2300149
:101030000320FFF7B9FB00210420FFF7B5FB40F2C6
:1010400002210820FFF7B0FB00210920FFF7ACFBCD
:1010500000210A20FFF7A8FB01210C20FFF7A4FBC9
:1010600000210D20FFF7A0FB00210F20FFF79CFBC4
:1010700000211020FFF798FB07211120FFF794FBB8
:1010800000211220FFF790FB00211320FFF78CFBBB
:1010900001210720FFF788FB322009F056FF41F2BB
:1010A00090411020FFF780FB40F227211120FFF72D
:1010B0007BFB322009F049FF8A211220FFF774FBE5
:1010C000322009F042FF4FF4D0511320FFF76CFBA0
:1010D00006212920FFF768FB0D212B20FFF764FB79
:1010E000322009F032FF00212020FFF75DFB0021B4
:1010F0002120FFF759FB322009F027FF002100E0F3
:1011000075E03020FFF750FB40F204613120FFF71B
:101110004BFB40F205313220FFF746FB0021352022
:10112000FFF742FB40F609413620FFF73DFB4FF445
:1011300001713720FFF738FB40F201313820FFF70B
:1011400033FB40F207713920FFF72EFB00213C20D2
:10115000FFF72AFB40F60A213D20FFF725FB32204E
:1011600009F0F3FE00215020FFF71EFBEF21512074
:10117000FFF71AFB00215220FFF716FB40F23F1148
:101180005320FFF711FB4FF427416020FFF70CFBC2
:1011900001216120FFF708FB00216A20FFF704FB13
:1011A00000218020FFF700FB00218120FFF7FCFADF
:1011B00000218220FFF7F8FA00218320FFF7F4FADC
:1011C00000218420FFF7F0FA00218520FFF7ECFAD8
:1011D00010219020FFF7E8FA4FF4C0619220FFF74A
:1011E000E3FA40F233110720FFF7DEFAC2E181484B
:1011F0000088A0F5134125397ED147F6F001E5209E
:10120000FFF7D2FA4FF480710120FFF7CDFA4FF4C7
:10121000E0610220FFF7C8FA41F230010320FFF736
:10122000C3FA00210420FFF7BFFA40F20221082090
:10123000FFF7BAFA00210920FFF7B6FA00210A20C9
:10124000FFF7B2FA00210C20FFF7AEFA00210D20C3
:10125000FFF7AAFA00210F20FFF7A6FA00211020BD
:10126000FFF7A2FA07211120FFF79EFA00211220B2
:10127000FFF79AFA00211320FFF796FA00210720C2
:10128000FFF792FA41F290611020FFF78DFA40F2D9
:1012900027211120FFF788FA9D211220FFF784FAF9
:1012A0004FF4C8511320FFF77FFA25212920FFF7BB
:1012B0007BFA0D212B20FFF777FA07213020FFF76B
:1012C00073FA40F203313120FFF76EFA0321322026
:1012D000FFF76AFA40F206213520FFF765FA082188
:1012E0003620FFF761FA40F206413720FFF75CFA3B
:1012F0004FF44171382000E057E0FFF755FA07211D
:101300003920FFF751FA40F202613C20FFF74CFA16
:1013100008213D20FFF748FA00215020FFF744FA4A
:10132000EF215120FFF740FA00215220FFF73CFA4D
:1013300040F23F115320FFF737FA4FF42741602066
:10134000FFF732FA01216120FFF72EFA00216A200F
:10135000FFF72AFA00218020FFF726FA00218120DA
:10136000FFF722FA00218220FFF71EFA00218320D6
:10137000FFF71AFA00218420FFF716FA00218520D2
:10138000FFF712FA10219020FFF70EFA4FF4C06118
:101390009220FFF709FA40F233110720FFF704FA11
:1013A00022210020FFF700FAE4E012480088A0F5AF
:1013B00013414139F8D1CF200F4908800020891C02
:1013C0000880C120088030200880ED20891E088018
:1013D0006420891C08800320088012200880812056
:1013E0000880E820891E08808520891C088010203C
:1013F000088003E022000020FE1F006C7A20088095
:10140000CB20891E08803920891C08802C20088068
:10141000002008803420088002200880F720891EE0
:1014200008802020891C0880EA20891E088000206E
:10143000891C08800880C020891E08801B20891C08
:101440000880C120891E08800120891C0880C520D1
:10145000891E08803020891C08800880C720891ECA
:101460000880B720891C08803620891E0880482003
:10147000891C08803A20891E08805520891C088014
:10148000B120891E08800020891C08801A2008804D
:10149000B620891E08800A20891C0880A2200880A6
:1014A000F220891E08800020891C08802620891EC1
:1014B00008800120891C0880E020891E08800F20F8
:1014C000891C08802A20088028200880082008809D
:1014D0000E2008800820088054200880A920088059
:1014E000432008800A2008800F2008800020088000
:1014F000088008800880E120891E08800020891C5F
:1015000008801520088017200880072008801120F7
:101510000880062008802B200880562008803C2068
:10152000088005200880102008800F2008803F20B8
:10153000088008800F2008802B20891E088000204A
:10154000891C08800880012008803F2008802A200C
:10155000891E08800020891C088008800880EF20F0
:1015600008801120891E0880782009F0EEFC2920CF
:10157000FD4908800020FFF799FA0120FB49086027
:101580004FF6FF70FFF7A3FC10BD2DE9F04F0546A5
:101590000E4617469846DDF824A04FF0000B781B46
:1015A000401C1FFA80FB344614E021462846FFF712
:1015B00024F9FFF709F94FF0000907E0EA48801C19
:1015C000A0F800A009F101001FFA80F9D945F5DB68
:1015D000601C84B24445E8DDBDE8F08F2DE9F84F8A
:1015E00007460D4690469946DDF828B0A8EB07005F
:1015F000401C80B20090A9EB0500401C1FFA80FA45
:10160000002416E0281981B23846FFF7F6F8FFF7F4
:10161000DBF8002608E004FB0A603BF81000D24922
:10162000891C0880701C86B200988642F3DB601C1F
:1016300084B25445E6DBBDE8F88F2DE9FF4F84B056
:1016400081468A460020039002900698A0EB090587
:101650000798A0EB0A06CDF80490CDF800A0002D65
:1016600001DD012705E00DB9002702E04FF0FF374B
:101670006D42002E02DD4FF0010806E016B94FF072
:10168000000802E04FF0FF387642B54201DD2C46FB
:1016900000E034464FF0000B21E0009A91B2019A2D
:1016A00090B2FFF751FA039828440390029830440F
:1016B00002900398A04205DD0398001B0390019857
:1016C000384401900298A04205DD0298001B029068
:1016D0000098404400900BF101001FFA80FB601C51
:1016E0008345DADD08B0BDE8F08FF0B504460D465D
:1016F00016461F462B46324629462046FFF79DFFD9
:101700003B46224629462046FFF797FF3B46324696
:1017100039462046FFF791FF3B4632462946304680
:10172000FFF78BFFF0BD2DE9F04306460F469046CC
:10173000002445460320A0EB48093CE07A1B91B207
:10174000321990B2FFF700FA3A1B91B2721990B2B7
:10175000FFF7FAF93A1991B2721990B2FFF7F4F95A
:101760007A1991B2321990B2FFF7EEF97A1991B263
:10177000321B90B2FFF7E8F93A1991B2721B90B29E
:10178000FFF7E2F97A1B91B2321B90B2FFF7DCF956
:101790003A1B91B2721B90B2FFF7D6F9641CB9F1F3
:1017A000000F03DAA000801D814404E0601B80006C
:1017B0000A3081446D1EAC42C0DDBDE8F0832DE9E6
:1017C000F84F81460E4617461C4600960C2C01D158
:1017D00098460AE0102C01D1A04606E0182C02D150
:1017E0004FF0240801E0BDE8F88FA7F12000C7B250
:1017F000002553E00C2C07D107EB47005C4901EBB7
:10180000800010F805A012E0102C05D1594800EB1B
:10181000071010F805A00AE0182C07D107EBC70045
:10182000554901EB800010F805A000E0DBE74FF020
:10183000000B2DE01AF0800F06D050480288314688
:101840004846FFF790F905E04D4802883146484682
:10185000FFF789F94FEA4A604FEA106A701C86B2B6
:1018600048480088864200DBBDE70098301AA04255
:101870000AD1009E09F101001FFA80F94248008850
:10188000814500DBAFE706E00BF1010000F0FF0B44
:10189000BBF1080FCEDB00BF681CC5B24545A9DB14
:1018A00000BFA0E710B50246012000E050430B0046
:1018B000A1F10104E1B2F9D110BD2DE9FF4F81B0D2
:1018C000064691461F46DDE90E4A0020009000259D
:1018D00044E0781B401EC1B20A20FFF7E3FFB9FBCA
:1018E000F0F00A21B0FBF1F201FB1208009820BBD6
:1018F000781EA84221DDB8F1000F1CD1BAF1000F0B
:101900000CD0A34604EBDB71491011FB056188B2D2
:10191000234630220299FFF752FF0BE0A34604EB67
:10192000DB71491011FB056188B223462022029920
:10193000FFF745FF10E001200090A34604EBDB71A8
:10194000491011FB056188B208F13001CAB2234683
:101950000299FFF734FF00BF681CC5B2BD42B8DB77
:1019600005B0BDE8F08F0000FE1F006CA882424267
:10197000B6E900082AEE00081AF400081E0000204C
:101980002000002028000020260000202DE9FF4F25
:1019900082B004460D461646DDE91189109F304895
:1019A000B0F800A02F48B0F800B02D48A0F8008093
:1019B0002C48A0F800900F98CDE900073246294640
:1019C0002046059BFFF779FF2548A0F800A0254891
:1019D000A0F800B006B0BDE8F08FF0B506460F469F
:1019E00015461C4611E022782B4639463046FFF753
:1019F000E6FE284605EBD07106EB61018EB21A486F
:101A00000088864200DB06E0641C20787E2802DC29
:101A100020782028E7DA00BFF0BD2DE9F04F04461A
:101A20000D4616461F46DDE909890D48B0F800A0AD
:101A30000C48B0F800B00A48A0F800800948A0F8A7
:101A400000903B46324629462046FFF7C6FF044831
:101A5000A0F800A00348A0F800B0BDE8F08F000097
:101A60001E00002020000020260000201CB50121BF
:101A7000402006F001F88020009001208DF804003D
:101A800000208DF8060003208DF8050002208DF857
:101A900007006946034805F05DFD8021014805F017
:101AA000CFFD1CBD00180240F0B504460B4615469C
:101AB00004F16400C1B20846CE1701EB967601EB43
:101AC000A602072092FBF0F600FB162082B2561900
:101AD000581EAD4F385C304482B2CE1701EB96767B
:101AE000B610B1EB860603D1032B01DA501E82B289
:101AF000072092FBF0F600FB162008B90720F0BD86
:101B0000072092FBF0F600FB1620C0B2F7E72DE9A4
:101B1000FC4705460E4617461C46DDE90A898DF846
:101B200006708DF805603A4631462846FFF7BCFF3F
:101B30008DF804008DF807508DF800408DF8018075
:101B40008DF802900C2C03DD40208DF8030002E09C
:101B500000208DF8030001A9002006F0E6FF38B14F
:101B60006946002006F04AFF10B10120BDE8FC875D
:101B70000020FBE710B504468449204607F041F8F1
:101B80008349204606F0A4FF10BD10B586B000249E
:101B9000012005F00EFE0AE0601C84B2052009F069
:101BA000D4F9B4F5FA7F02DB012006B010BD412064
:101BB00005F0BCFD0028EFD04FF4807005F0FAFE70
:101BC000012005F012FF7F200490FF2005900020E7
:101BD000039003A806F077FE1E2002210D230B229E
:101BE000CDE9001003210F20FFF791FF0020DCE773
:101BF0007CB505460C46002007F05EF9284607F044
:101C000036F9204607F048F94FF4804007F01DFCF4
:101C10004FF4800007F065FD0121880307F0A4FB65
:101C2000012007F049F94FF48000009000208DF862
:101C3000040008208DF8050001208DF80600684694
:101C400007F0DEFC032053490870022048708870BA
:101C50000120C870084605F08AFB7CBD10B5002441
:101C60000121080705F051FF012007F00EFC0020BC
:101C700007F010FBA0F5AA4155390AD0FFF785FF00
:101C80000446012C00D110BD45F25551002007F04B
:101C9000FAFA00210420FFF7ABFF0020F3E710B5AC
:101CA0004FF4806007F095FB01280AD1800207F00D
:101CB000A0FB3948006808B9012000E0002036493F
:101CC00008604FF4800007F00CFD10BDF0B587B040
:101CD00004460D4616461F4600214FF4807007F05B
:101CE0006AF88DF800508DF801608DF802700020C0
:101CF0008DF803008DF810404FF0804003900020D5
:101D000002900098019001AA4FF48071002006F023
:101D10009BFF4FF4805007F098FB4FF4003007F022
:101D2000E0FC0121080307F01FFB0121080207F076
:101D300042F84FF40030059000208DF8180008207C
:101D40008DF8190001208DF81A0005A807F058FC3D
:101D50002920104908700220487088700120C8703E
:101D6000084605F004FB07B0F0BD10B54FF48070D5
:101D700007F02FFB012802D1000207F03AFB4FF4D5
:101D8000003007F0AEFC10BD7601010834000020E1
:101D90003000002038000020B402434210B588B063
:101DA00004460121022005F067FE0121880405F0A8
:101DB000ACFE07220A21FE4805F04FFC07220B214A
:101DC000FB4805F04AFC4FF44060069002208DF875
:101DD0001C008DF81D0000208DF81E0001208DF8DC
:101DE0001F0006A9F24805F0B5FB02940020ADF8EB
:101DF0000C00ADF80E00ADF81000ADF814000C208A
:101E0000ADF8120002A9EB4805F0F1FF0121E94805
:101E100006F075F84021E74806F059F9012240F232
:101E20002551E44806F021F927208DF8040003200D
:101E30008DF805008DF8060001208DF8070001A837
:101E400005F095FA0220069000208DF81C00032072
:101E50008DF81D0000208DF81F0006A9D64805F05A
:101E600079FB08B010BD00BFD249098811F0400FBE
:101E7000FAD0D049091D0880704710B503460C46BA
:101E8000002200BF985CFFF7EEFF501C82B2A24216
:101E9000F8DB10BD0FB438B50024002505A800906C
:101EA000C648009A049909F08FF800200090C348B2
:101EB00009F094FA05460DE000BF4021BD4806F048
:101EC000F9F80028F9D02046641CBC4A115CB948D6
:101ED00006F040F82800A5F10105EDD138BC5DF809
:101EE00014FB2DE9F0472DED068BFEB0002440F2E7
:101EF0002551B04806F0F4F8002808D0AD4806F0A7
:101F00002DF8C5B2532D03D10120AD4908708CE3E3
:101F1000452D72D1AB49ACA009F0B6FB20B91E210A
:101F2000ABA0FFF7AAFF57E3A649B1A009F0ACFBAD
:101F300070B9B1480078012805D1B0480178B0489F
:101F4000FFF79BFF48E30E21AEA0FFF796FF43E3A8
:101F50009C49B0A009F098FB70B9B04800780128FE
:101F600005D1AF480178AF48FFF787FF34E30D2173
:101F7000ADA0FFF782FF2FE39249AFA009F084FBE9
:101F800000BB04F06EFFAD4890ED020A10EE101A8F
:101F900008460CF019FC41EC100BB0EE408AF0EE54
:101FA000608AA7A053EC182BA6A10090834809F0E3
:101FB0001DF8824809F012FA0446A1B27F48FFF7E3
:101FC0005CFF09E37F49A1A009F05EFB40B9A1488D
:101FD00009F004FA0446A1B29E48FFF74EFFFBE267
:101FE00078499DA009F050FB40B90021084601F056
:101FF000ECFE00209A490870EEE203E37148007895
:102000004E287ED14FF000086D480078401E6C4984
:1020100008700846007804281BD108460078C01EC6
:102020006849085C3038642110FB01F1644800788D
:10203000801E644A105C303800EB800001EB4001E8
:102040005F480078401E105C0844303800F0FF08FC
:1020500022E05B480078032812D159480078401EDE
:102060005849095C56480078801E564A105C303842
:1020700000EB800001EB4000303800F0FF080BE07F
:102080004F480078022807D14D480078401E4D493E
:10209000085C303800F0FF08002001F078FEC7B27D
:1020A000474503DA6E48007800B9B846012624E0B7
:1020B00007F1FF00801BFF2190FBF1F201FB1200F2
:1020C00000F0FF0A4FEA0A3102227DA802F076F8FA
:1020D0009DF8F5019DF8F41100EB01201FFA80F93D
:1020E000022000EB0A314A46684602F067F849468A
:1020F0006846FFF7C2FE701CC6B24645D8DD6BE2EB
:10210000FFE7304957A009F0BFFA00284ED15648E2
:1021100090ED000A10EE101A08460CF055FB41EC49
:10212000100BB0EE408AF0EE608A50A053EC182BF2
:1021300044A10090214808F059FF204809F04EF9C9
:102140000446A1B21D48FFF798FE474890ED010AEA
:1021500010EE101A08460CF037FB41EC100BB0EEF5
:10216000408AF0EE608A41A053EC182B35A1009014
:10217000124808F03BFF114809F030F90446A1B2BB
:102180000E48FFF77AFE384890ED020A10EE101A5A
:1021900008460CF019FB41EC100BB0EE408AF0EE53
:1021A000608A32A053EC182B26A163E06FE0000098
:1021B000000402400048004000180240E8010020EE
:1021C0003C000020B800002074657374000000001B
:1021D000636F72726563745F4F4B636F7272656396
:1021E000745F4F4B636F72726563745F4F4B000097
:1021F0007374617475730000530000205000002058
:10220000200C00204E6F207374617475732064611C
:1022100074610000616C61726D0000005400002068
:1022200051000020A00C00204E6F20616C61726D87
:1022300020646174610000006469730000CC0120B7
:10224000636D0000252E33662573000044617461C0
:1022500000000000140F0020636C65617200000034
:102260005B00002061636300140300206D2F733254
:10227000000000000090EF4808F0B8FEED4809F0BB
:10228000ADF80446A1B2EB48FFF7F7FDA4E1EA4937
:10229000EAA009F0F9F900285DD1E94890ED000ABB
:1022A00010EE101A08460CF08FFA41EC100BB0EE4D
:1022B000408AF0EE608AE3A053EC182BAFF27C0169
:1022C0000090DC4808F092FEDA4809F087F80446EE
:1022D000A1B2D848FFF7D1FDD94890ED010A10EE20
:1022E000101A08460CF070FA41EC100BB0EE408A60
:1022F000F0EE608AD3A053EC182BAFF2B801009037
:10230000CC4808F073FECB4809F068F80446A1B247
:10231000C848FFF7B2FDCA4890ED020A10EE101A45
:1023200008460CF051FA41EC100BB0EE408AF0EE8A
:10233000608AC4A053EC182BAFF2F8010090BD489E
:1023400008F054FEBB4809F049F80446A1B2B94868
:10235000FFF793FD40E1B849BBA009F095F90028CB
:102360005DD1BA4890ED000A10EE101A08460CF044
:102370002BFA41EC100BB0EE408AF0EE608AB4A06C
:1023800053EC182BAFF244110090AA4808F02EFE2F
:10239000A84809F023F80446A1B2A648FFF76DFD4E
:1023A000AA4890ED010A10EE101A08460CF00CFA3B
:1023B00041EC100BB0EE408AF0EE608AA4A053EC22
:1023C000182BAFF2801100909A4808F00FFE994840
:1023D00009F004F80446A1B29648FFF74EFD9B4869
:1023E00090ED020A10EE101A08460CF0EDF941ECDF
:1023F000100BB0EE408AF0EE608A95A053EC182BDB
:10240000AFF2C01100908B4808F0F0FD894808F049
:10241000E5FF0446A1B28748FFF72FFDDCE08649BF
:102420008CA009F031F9D8B98B4800680CF0CCF9D0
:1024300041EC100BB0EE408AF0EE608A87A053ECBE
:10244000182BAFF2002100907A4808F0CFFD7948B0
:1024500008F0C4FF0446A1B27648FFF70EFDBBE0CA
:1024600075497FA009F010F9F0BB042000F0D4FEFC
:1024700000EE100AB8EE400ADFED7A0A80EE201A6C
:1024800011EE106A30460CF09FF941EC100BB0EEE3
:1024900040AAF0EE60AA9FED740B53EC102B51ECA8
:1024A0001A0B0BF09BFE41EC100BB0EE409AF0EED5
:1024B000609A9FED6F0B53EC102B51EC190B0BF046
:1024C00077FC41EC100BB0EE408AF0EE608A51ECE4
:1024D000180B0BF07FFB68490860084600680CF099
:1024E00073F941EC100B00E015E0B0EE408AF0EE1D
:1024F000608A62A053EC182BAFF2B82100904D48CF
:1025000008F074FD4B4808F069FF0446A1B2494841
:10251000FFF7B3FC60E04848007854285CD1464897
:10252000007930384449C978303901EB810100EB3A
:1025300041005349C8704048807930383E49497954
:10254000303901EB810100EB41004D4948703A48B8
:10255000007A30383849C979303901EB810100EB14
:102560004100474988703448807A30383249497A86
:10257000303901EB810100EB4100424908702E48DF
:10258000007B30382C49C97A303901EB810100EBEE
:1025900041003C4948702848807B30382649497BB7
:1025A000303901EB810100EB410036498870084663
:1025B00080784978334ECDE900103378304EB278C8
:1025C0007178F078FFF7A3FA642008F0BEFC0A21C6
:1025D000AFF2F030FFF751FC00202B49087009E002
:1025E00000201549284A1278885427480078401C52
:1025F00025490870244800782028F1DB0020224972
:10260000087012E02048007800280EDD1E4800788F
:10261000B0F5967F09DC1C480078401E06490D5431
:1026200019480078401C184908707EB0BDEC068B34
:10263000BDE8F087E8010020B800002070616C0060
:1026400020030020642F7300616E67002C030020BC
:102650006400000074656D0040000020430000002D
:10266000766F6900000080450000000000E07A40BD
:102670000000000000001440000000206442000040
:1026800034000020300000203C00002000B587B05E
:102690000121042005F0F0F90121202005F046FA7F
:1026A00008220621FE4804F0D8FF08220721FC4832
:1026B00004F0D3FFC020059002208DF818008DF89B
:1026C000190000208DF81A0001208DF81B0005A9C3
:1026D000F34804F03FFF4FF4165001900020ADF88E
:1026E0000800ADF80A00ADF80C00ADF810000C20A1
:1026F000ADF80E0001A9EB4805F079FB0121E9488E
:1027000005F0FDFB4021E74805F0E1FC012240F225
:102710002551E44805F0A9FC47208DF8000003206E
:102720008DF801008DF8020001208DF80300684645
:1027300004F01DFE07B000BD10B52DED068B40F274
:102740002551D84805F0CCFC58B3D64805F006FC16
:10275000C1B2D548D54A12688154D4490968405C51
:10276000552805D0D148006810B9BDEC068B10BDC6
:10277000CE480068401CCD490860084600680B2818
:102780000FD10120CA4908600020C8490860C94922
:10279000C54802680A6042684A6002890A81807AF4
:1027A0008872C348006801287ED10020C0490860B3
:1027B000C149C04802680A6042684A6002890A81C9
:1027C000807A8872084600785528EDD1084640780E
:1027D000512804D0522868D0532867D1B6E1B649B1
:1027E0008978B54AD27841EA022108B20BF0A3FCFD
:1027F00041EC100BB0EE40AAF0EE60AA9FEDAF0BDB
:1028000053EC102B51EC1A0B0BF0D2FA41EC100BDD
:10281000B0EE409AF0EE609A9FEDAA0B53EC102BAD
:1028200051EC190B0BF0DAFC41EC100BB0EE408AC6
:10283000F0EE608A51EC180B0BF0CCF9A34908605C
:102840009D4909799C4A527941EA022108B20BF06C
:1028500072FC41EC100BB0EE40AAF0EE60AA9FEDC6
:10286000970B53EC102B51EC1A0B0BF0A1FA41EC27
:10287000100BB0EE409AF0EE609A9FED920B53EC85
:10288000102B51EC190B0BF0A9FC41EC100BB0EE26
:10289000408AF0EE608A51EC180B0BF09BF98B49E3
:1028A00048608549897902E017E261E013E2824AD3
:1028B000D27941EA022108B20BF03DFC41EC100B49
:1028C000B0EE40AAF0EE60AA9FED7C0B53EC102B0B
:1028D00051EC1A0B0BF06CFA41EC100BB0EE409A75
:1028E000F0EE609A9FED770B53EC102B51EC190B27
:1028F0000BF074FC41EC100BB0EE408AF0EE608AF5
:1029000051EC180B0BF066F9704988606A49097A36
:10291000694A527A41EA022108B20BF00CFC41EC00
:10292000100BB0EE40AAF0EE60AA9FED690B53ECDD
:10293000102B51EC1A0B0BF03BFA41EC100BB0EEE4
:10294000409AF0EE609A9FED640B53EC102B51EC23
:10295000190B0BF071F941EC100BB0EE408AF0EE60
:10296000608A51EC180B0BF035F95D490860B3E152
:1029700051498978504AD27841EA022108B20BF0D5
:10298000DAFB41EC100BB0EE40AAF0EE60AA9FED2E
:102990004B0B53EC102B51EC1A0B0BF009FA41ECDA
:1029A000100BB0EE409AF0EE609A9FED4E0B53EC98
:1029B000102B51EC190B0BF011FC41EC100BB0EE8D
:1029C000408AF0EE608A51EC180B0BF003F947498E
:1029D000086039490979384A527941EA022108B236
:1029E0000BF0A9FB41EC100BB0EE40AAF0EE60AA90
:1029F0009FED320B53EC102B51EC1A0B0BF0D8F966
:102A000041EC100BB0EE409AF0EE609A9FED350B62
:102A100053EC102B51EC190B0BF0E0FB41EC100BBD
:102A2000B0EE408AF0EE608A51EC180B0BF0D2F851
:102A30002E494860204989791F4AD27941EA02210A
:102A400008B20BF078FB41EC100BB0EE40AAF0EEB0
:102A500060AA9FED1A0B53EC102B51EC1A0B0BF0E4
:102A6000A7F941EC100BB0EE409AF0EE609A9FEDA2
:102A70001D0B53EC102B51EC190B0BF0AFFB41EC81
:102A8000100BB0EE408AF0EE608A51EC180B0BF0A0
:102A9000A1F8164988600849097A074A527A27E05E
:102AA00000080240001401407A0300204800002082
:102AB00044000020380300205903002000000000DB
:102AC0000000E0400000000000003040140300203F
:102AD000000000000040754000000000002042405F
:102AE000400000200000000000409F402003002024
:102AF00041EA022108B20BF01EFB41EC100BB0EED4
:102B000040AAF0EE60AA1FED0E0B53EC102B51EC17
:102B10001A0B0BF04DF941EC100BB0EE408AF0EEC1
:102B2000608A1FED130B53EC102B51EC180B0BF0BC
:102B300083F841EC100BB0EE409AF0EE609A51EC45
:102B4000190B0BF047F866490860C5E065498978BC
:102B5000644AD27841EA022108B20BF0ECFA41EC67
:102B6000100BB0EE40AAF0EE60AA1FED2C0B53EC58
:102B7000102B51EC1A0B0BF01BF941EC100BB0EEC3
:102B8000409AF0EE609A9FED580B53EC102B51ECED
:102B9000190B0BF023FB41EC100BB0EE408AF0EE6A
:102BA000608A51EC180B0BF015F8514908604D493B
:102BB00009794C4A527941EA022108B20BF0BBFA7A
:102BC00041EC100BB0EE40AAF0EE60AA1FED450BF1
:102BD00053EC102B51EC1A0B0BF0EAF841EC100BF4
:102BE000B0EE409AF0EE609A9FED3F0B53EC102B45
:102BF00051EC190B0BF0F2FA41EC100BB0EE408ADD
:102C0000F0EE608A51EC180B0AF0E4FF3849486096
:102C100034498979334AD27941EA022108B20BF06A
:102C20008AFA41EC100BB0EE40AAF0EE60AA1FED5C
:102C30005D0B53EC102B51EC1A0B0BF0B9F841EC77
:102C4000100BB0EE409AF0EE609A9FED270B53EC1C
:102C5000102B51EC190B0BF0C1FA41EC100BB0EE3C
:102C6000408AF0EE608A51EC180B0AF0B3FF20495D
:102C700088601C49097A1B4A527A41EA022108B24B
:102C80000BF059FA41EC100BB0EE40AAF0EE60AA3E
:102C90001FED710B53EC102B51EC1A0B0BF088F855
:102CA00041EC100BB0EE409AF0EE609A1FED760BFF
:102CB00053EC102B51EC190B0AF0BEFF41EC100B3A
:102CC000B0EE408AF0EE608A51EC180B0AF082FFF9
:102CD0000349086000E000BF00BF00BF45E50000F9
:102CE00040000020590300200000000000806640E2
:102CF0002C03002000B587B00121C80404F005FFB3
:102D00000121084604F0B8FE08220021FD4804F025
:102D1000A4FC08220121FB4804F09FFC032005903D
:102D200002208DF8180003208DF8190000208DF87E
:102D30001A0001208DF81B0005A9F24804F00AFCD6
:102D40004FF4E13001900020ADF80800ADF80A0022
:102D5000ADF80C00ADF810000C20ADF80E0001A984
:102D6000E94805F044F8012240F22551E64805F013
:102D70007CF90121E44805F0C2F84021E24805F061
:102D8000A6F934208DF8000001208DF80300022000
:102D90008DF801008DF80200684604F0E8FA07B0EB
:102DA00000BD0FB438B50024002505A80090D74811
:102DB000009A049908F008F900200090D34808F020
:102DC0000DFB05460DE000BF4021CF4805F072F92C
:102DD0000028F9D02046641CCC4A115CCA4805F092
:102DE000B9F82800A5F10105EDD138BC5DF814FB58
:102DF00070B504460D4600262146C5A0FFF7D1FF59
:102E000028E0C5A1C54808F0B3FA80B14FF480614D
:102E1000C24808F0E6FB0020C1490860C1480068CC
:102E200008B9012000E00020BE49086014E0BEA1FE
:102E3000BA4808F09DFA60B12146B5A0FFF7B1FF8E
:102E400000260020B64908604FF48061B34808F0BE
:102E5000C8FB761CAE42D4DB00BF70BD00B52DEDC3
:102E6000068B81B0B0EE408AF0EE608AB0EE419AF7
:102E7000AFA1A7A0FFF795FFC82008F066F8AAA1A8
:102E8000A64808F075FA58B14FF48061A34808F0DD
:102E9000A8FBA7A19EA0FFF784FFC82008F055F863
:102EA00018EE100A0BF090FC41EC100BB0EE40AAAB
:102EB000F0EE60AAA1A053EC1A2B0090A1A0FFF79E
:102EC00070FF18EE900A0BF07FFC41EC100BB0EE97
:102ED00040AAF0EE60AA99A053EC1A2B009099A09A
:102EE000FFF75FFF19EE100A0BF06EFC41EC100BC0
:102EF000B0EE40AAF0EE60AA90A053EC1A2B00901E
:102F000090A0FFF74EFF1A217F4805F023F8C82054
:102F100008F01BF801B0BDEC068B00BD00B52DED2F
:102F2000068B81B0B0EE408AF0EE608AB0EE419A36
:102F30007FA177A0FFF735FFC82008F006F87AA137
:102F4000764808F015FA58B14FF48061734808F0DC
:102F500048FB77A16EA0FFF724FFC82007F0F5FF1C
:102F600018EE100A0BF030FC41EC100BB0EE40AA4A
:102F7000F0EE60AA75A053EC1A2B009071A0FFF739
:102F800010FF18EE900A0BF01FFC41EC100BB0EE96
:102F900040AAF0EE60AA6DA053EC1A2B009069A035
:102FA000FFF7FFFE19EE100A0BF00EFC41EC100BC0
:102FB000B0EE40AAF0EE60AA64A053EC1A2B009089
:102FC00060A0FFF7EEFE1A214F4804F0C3FFC820AF
:102FD00007F0BBFF01B0BDEC068B00BD00B52DEDC9
:102FE000068B81B0B0EE408AF0EE608AB0EE419A76
:102FF0004FA147A0FFF7D5FEC82007F0A6FF4AA1C2
:10300000464808F0B5F958B14FF48061434808F0DC
:10301000E8FA47A13EA0FFF7C4FEC82007F095FFDD
:1030200018EE100A0BF0D0FB41EC100BB0EE40AAEA
:10303000F0EE60AA47A053EC1A2B009041A0FFF7D6
:10304000B0FE18EE900A0BF0BFFB41EC100BB0EE97
:1030500040AAF0EE60AA3FA053EC1A2B009039A0D2
:10306000FFF79FFE19EE100A0BF0AEFB41EC100BC0
:10307000B0EE40AAF0EE60AA36A053EC1A2B0090F6
:1030800030A0FFF78EFE1A211F4804F063FFC8200E
:1030900007F05BFF01B0BDEC068B00BD10B5FFF77C
:1030A00029FE41F2883007F06CFF05212BA0FFF7C5
:1030B0009FFE4FF4FA6007F064FF05212AA0FFF796
:1030C00097FE4FF4FA6007F05CFF14212AA0FFF787
:1030D0008FFE4FF4FA6007F054FF10BD10B540F2B8
:1030E0002551094804F0FCFF58B1074804F036FFA9
:1030F0000A490B4A1268885409480068401C08496C
:10310000086010BD00000240004C0040A0070020F5
:1031100025730D0A000000004F4B0000A0030020A3
:103120004C000020BC0243424552524F5200000066
:1031300041542B43495053454E4400006D2F733288
:103140002C200000252E336625730000E5BAA62F3B
:10315000732C2000E5BAA62C2000000041542B431C
:10316000474154543D31000041542B43474143549F
:103170003D312C310000000041542B434950535441
:103180004152543D5443502C3232332E332E343876
:103190002E3135302C3832363600000000B58DB077
:1031A0000121084604F068FC0121080204F0BEFC7D
:1031B00010200B9003208DF8300000208DF8330094
:1031C0000BA92C4804F0C6F90121080204F003FD04
:1031D00000214FF4807004F0FEFC002007900A905C
:1031E00009904FF48030089007A806F0BDFA00203F
:1031F00001908DF808008DF80900039005900120DA
:103200008DF8180001A91C4806F07FFA01211A4820
:1032100006F0C6FA0DB000BD10B504460723012222
:103220002146154806F0FCFA134806F055FB00BF8E
:103230000221114806F05BFC0028F9D00E4806F088
:1032400087FB10BD2DE9F04107460C4600250026FE
:1032500008E03846FFF7E0FF0544052007F075FE5B
:10326000701CC6B2A642F4DBB5FBF4F080B2BDE838
:10327000F0810000000002400020014010B588B03D
:1032800004460121084604F0F7FB0121480404F03C
:103290003CFC07220221814804F0DFF907220321C8
:1032A0007E4804F0DAF90C20069002208DF81C000C
:1032B00003208DF81D0000208DF81E0001208DF8E0
:1032C0001F0006A9754804F045F94020069001202A
:1032D0008DF81C0003208DF81D0000208DF81E00C5
:1032E00001208DF81F0006A96D4804F033F90294FF
:1032F0000020ADF80C00ADF80E00ADF81000ADF8F0
:1033000014000C20ADF8120002A9664804F06FFD0D
:103310000121644804F0F3FD4021624804F0D7FE27
:10332000012240F225515F4804F09FFE26208DF8CF
:10333000040003208DF805008DF8060001208DF8AB
:10334000070001A804F013F800205749086008B0EE
:1033500010BD10B540F22551524804F0C1FE0028BE
:1033600054D0504804F0FAFDC4B2EF2C07D14F48B6
:103370004F490978445401204D49087046E0AD2C6E
:1033800033D14A484A490978445449480078401C96
:10339000474908704548007902280DD1084602784F
:1033A0004249444808F084F841480078424908708E
:1033B00001204249087010E03C48007903280CD1F4
:1033C0003B48027839493E4808F072F8384800789E
:1033D0003C49087001203C4908708021334808F0BE
:1033E000DEF800203249087010E0314800780128EA
:1033F0000CDB2F480078802808DC2C482C49097801
:1034000044542B480078401C2949087010BD70B501
:1034100005460E460120244908604FF000040CE0E8
:1034200000BF40211F4804F045FE0028F9D0295D67
:103430001C4804F08FFD601CC4B2B442F0DB00BF36
:103440004021184804F036FE0028F9D00020184921
:1034500008701549086070BD2DE9F04107460D461A
:10346000134806780024002028700A2007F06DFD1C
:103470000F48007886420FD176B100BF04E00B48B8
:10348000005D3855601CC4B2B442F8DB08480078CF
:103490002870002006490870BDE8F0810000024055
:1034A000001802400044004098024342A00B002054
:1034B00052000020200C002050000020530000206B
:1034C000A00C0020510000205400002000B58DB059
:1034D0000121084604F0D0FA0121080204F026FB7D
:1034E00020200B9003208DF8300000208DF8330051
:1034F0000BA9894804F02EF80121080204F06BFBA7
:1035000000214FF4807004F066FB002007900A90C1
:1035100009904FF48030089007A806F025F90020A4
:1035200001908DF808008DF80900039005900120A6
:103530008DF8180001A9794806F0E7F801217748CD
:1035400006F02EF90DB000BD00B58DB00121084682
:1035500004F092FA0121080204F0E8FA40200B90EE
:1035600003208DF8300000208DF833000BA96A4845
:1035700003F0F0FF0121080204F02DFB00214FF4BD
:10358000807004F028FB002007900A9009904FF407
:103590008030089007A806F0E7F8002001908DF829
:1035A00008008DF809000390059001208DF818009F
:1035B00001A95A4806F0A9F80121584806F0F0F888
:1035C0000DB000BD00B58DB00121084604F054FADD
:1035D0000121080204F0AAFA80200B9003208DF844
:1035E000300000208DF833000BA94B4803F0B2FFE8
:1035F0000121080204F0EFFA00214FF4807004F07A
:10360000EAFA002007900A9009904FF48030089061
:1036100007A806F0A9F8002001908DF808008DF8A1
:1036200009000390059001208DF8180001A93B487E
:1036300006F06BF80121394806F0B2F80DB000BD74
:1036400000B58DB00121084604F016FA01210802E8
:1036500004F06CFA4FF480700B9003208DF830006A
:1036600000208DF833000BA92B4803F073FF0121D4
:10367000080204F0B0FA00214FF4807004F0ABFAB5
:10368000002007900A9009904FF48030089007A816
:1036900006F06AF8002001908DF808008DF8090006
:1036A0000390059001208DF8180001A91B4806F031
:1036B0002CF80121194806F073F80DB000BD10B5C3
:1036C0000446072301222146144806F0A9F81348AE
:1036D00006F002F900BF0221104806F008FA00289F
:1036E000F9D00E4806F034F910BD2DE9F041074637
:1036F0000C460025002608E03846FFF7E0FF0544A9
:10370000052007F022FC701CC6B2A642F4DBB5FB14
:10371000F4F080B2BDE8F0810000024000200140DA
:1037200010B588B004460121084604F0A5F901212E
:10373000102004F0FBF907220921E34803F08DFF74
:1037400007220A21E04803F088FF4FF4C06006908A
:1037500002208DF81C008DF81D0000208DF81E0041
:1037600001208DF81F0006A9D74803F0F3FE02944C
:103770000020ADF80C00ADF80E00ADF81000ADF86B
:1037800014000C20ADF8120002A9D04804F02FFB61
:103790000121CE4804F0B3FB4021CC4804F097FC53
:1037A000012240F22551C94804F05FFC25208DF824
:1037B000040003208DF805008DF8060001208DF827
:1037C000070001A803F0D3FD08B010BD00BFBF493A
:1037D000098811F0400FFAD0BC498880704710B5B5
:1037E00003460C46002200BF985CFFF7EFFF501C19
:1037F00082B2A242F8DB10BD2DE9F04196B000275D
:10380000002440F22551B14804F06AFC00280CD095
:10381000AE4804F0A3FBC5B27B2D07D1AC48AD493F
:10382000098845540120AB4908804AE17D2D7AD1B1
:1038300020210EA807F0D5FE4F208DF838004B2030
:103840008DF839000D208DF83A000A208DF83B00E4
:103850000EA807F0C3FD0746B9B20EA8FFF7BFFFD9
:10386000002003F043FB9C49087008460078FF28BD
:1038700004DB002008700120984908709648007801
:10388000401C9549087008460178002003F061FB50
:103890008F489049098845548E480088401C8D49BE
:1038A000088000F078FE8E49086000F080FE8D49A7
:1038B0000860874801F00DFA8949086008460068E9
:1038C00090ED040A8748006880ED030A0846006806
:1038D00090ED020A8348006880ED010A08460068FE
:1038E00090ED030A7F48006880ED020A08460068F0
:1038F00090ED010A7B48006880ED000A00240EE08C
:1039000077480068203000EB840090ED000A75488D
:103910000068103000EB840080ED000A641C032C6A
:10392000EEDB00240FE0BAE06D480068143000EBD5
:10393000840090ED000A6B4800681C3000EB8400A6
:1039400080ED000A641C032CEEDB674890ED000A52
:103950006448006880ED0A0A00240CE0634800EB2C
:10396000840090ED000A5F4800682C3000EB840072
:1039700080ED000A641C032CF0DB00240CE05C48A2
:1039800000EB840090ED000A56480068383000EBE8
:10399000840080ED000A641C032CF0DB00240CE0A2
:1039A000544800EB840090ED000A4E480068443013
:1039B00000EB840080ED000A641C032CF0DB002483
:1039C0000CE04D4800EB840090ED000A454800688B
:1039D000503000EB840080ED000A641C032CF0DB07
:1039E0000020FEF7C7F84548807844494978434AA3
:1039F0001278434B9B78CDE90032CDE90210404864
:103A00004378C2783FA106A807F0F0FA06A807F0AD
:103A1000E5FC07461E21002003F093F831490968B0
:103A2000C865304909683A46C86D06A907F000FE26
:103A30002C48006801F03EF980464146394807F0BD
:103A4000A9FC384807F0CAFC86B230128DF8140081
:103A50009DF81400A6EB0020C0B28DF815001E489A
:103A60000078401E0103022205A800F085FC1A48D8
:103A70000078401E022202EB00313246294800F055
:103A80007BFC002403E0002011490855641C114808
:103A900000888442F7DB00200E49088011E00D48C1
:103AA000008800280DDD0B480088B0F5FA7F08DC9F
:103AB000074808490988455406480088401C0549BC
:103AC000088016B0BDE8F0810000024000100140FF
:103AD000200D0020580000205A0000205B0000202C
:103AE0005C00002060000020000000201403002083
:103AF000200300202C03002000CC012030000020F7
:103B0000340000203230253032642F253032642FCB
:103B10002530326420253032643A253032643A252B
:103B200030326400140F00201CB50121022003F084
:103B3000A3FFC020009001208DF8040000208DF824
:103B4000060002208DF8050001208DF80700694667
:103B5000D94803F0FFFC0120D8490860D849C1F8D2
:103B60009C021CBD10B5D448006820F44040D249E6
:103B700008600846006840F4804008600120D14990
:103B80000860CF49C1F898024FF0040007F097F998
:103B90000020CC4908604FF0040007F090F90020A5
:103BA000C749C1F8980210BD10B5C348006820F499
:103BB0004040C14908600846006840F48040086001
:103BC0000020BE490860BE49C1F89C024FF00400C5
:103BD00007F075F90120B9490860B949C1F89C029C
:103BE0004FF0040007F06BF910BD10B50024B24887
:103BF000006820F44040B04908600846006808604A
:103C00000120B049086007F05AF90120AC49C1F819
:103C1000980207F054F907E0601CC4B2FA2C03DDE7
:103C2000FFF7C2FF012010BDA74800680028F3D1AC
:103C3000A249086000BFF6E710B500209F49086060
:103C40009D48006820F440409B4908600846006891
:103C500040F4804008604FF000009949C1F89C0290
:103C60004FF0020007F02BF90120944908604FF053
:103C7000020007F024F900209149C1F8980210BD14
:103C800010B500208D4908608B48006820F4404042
:103C9000894908600846006840F4804008604FF099
:103CA00001008749C1F89C024FF0020007F007F9B4
:103CB0000120824908604FF0020007F000F900205F
:103CC0007F49C1F8980210BD70B504467A48006873
:103CD00020F44040784908600846006840F480407D
:103CE000086000207549086005461AE0E00975493A
:103CF00008604FEA44604FEA10644FF0020007F09A
:103D0000DEF801206E49C1F89802022007F0D7F8CA
:103D100000206A4908604FF0020007F0D0F8681CE4
:103D2000C5B2082DE2DB70BD70B5054600246248BF
:103D3000006820F440406049086008460068086058
:103D4000002616E000205D4908604FF0020007F0F1
:103D5000B6F801205A49C1F898026006040E5A4884
:103D6000006808B1601CC4B2012007F0A8F8701CFC
:103D7000C6B2082EE6DB15B9FFF782FF01E0FFF7B8
:103D80005BFF204670BD10B5FFF7CEFE10BD70B5CD
:103D900004460025FFF7E6FEA020FFF795FFFFF79A
:103DA00024FFE0B2FFF790FFFFF71FFFFFF7DAFEF7
:103DB000A120FFF789FFFFF718FF0020FFF7B4FFEE
:103DC0000546FFF7F1FE284670BD70B504460D4666
:103DD000FFF7C8FEA020FFF777FFFFF706FFE0B26E
:103DE000FFF772FFFFF701FF2846FFF76DFFFFF7B0
:103DF000FCFEFFF7D9FE0A2007F0A7F870BD10B54A
:103E0000FF20FFF7C4FF0446AB2C01D1002010BDFA
:103E1000AB21FF20FFF7D9FFFF20FFF7B8FF0446D3
:103E2000AB2C01D10020F2E70120F0E7F0B5044609
:103E30000E461D46002365B1002106E0C80026FAA3
:103E400000F004F8010B481CC1B29142F6DB0020DF
:103E5000F0BD0026501E0444002105E01B0214F8AA
:103E600001793B44481CC1B29142F7DB1846EFE7A9
:103E700070B505460C46164606E028466A1C95B203
:103E8000FFF785FF04F8010B3000A6F101018EB2A7
:103E9000F3D170BD70B505460C46164606E0217894
:103EA0002846FFF792FF681C85B2641C3000A6F11B
:103EB00001018EB2F3D170BD0004024098824042ED
:103EC000008040429C8240421C82404270B50546C0
:103ED000002400BF0221484806F04AF80028F9D023
:103EE000601CC4B2C82C01DD002070BD29464248C8
:103EF00005F0F5FF00BF01213F4806F039F8002822
:103F0000F9D0601CC4B2C82C01DD0020EDE73A48AE
:103F100005F0E2FFC0B2E8E700B587B0012108462E
:103F200003F0AAFD0121080303F000FEE020059044
:103F300002208DF8180000208DF81A0003208DF85B
:103F4000190001208DF81B0005A92C4803F002FB85
:103F500005221146294803F080FB05220621274847
:103F600003F07BFB05220721244803F076FB0121A7
:103F7000080303F030FE00214FF4805003F02BFEC5
:103F80000020ADF800004FF48270ADF80200002070
:103F9000ADF804000220ADF806000120ADF80800DD
:103FA0004002ADF80A003820ADF80C000020ADF852
:103FB0000E000720ADF8100069460F4805F016FE08
:103FC00001210D4805F00AFFFF20FFF77FFF07B032
:103FD00000BD10B50446084800884FF6C771084078
:103FE00005490880084600882043088001210248CE
:103FF00005F0F4FE10BD000000300140000002405A
:1040000010B500240020FC4908604FF09000FFF735
:104010005DFF0020FFF75AFF0020FFF757FF002049
:10402000FFF754FFFF20FFF751FF44EA0024FF2071
:10403000FFF74CFF04430120F049C1F890022046ED
:1040400010BD1CB50121042003F016FD10200090C6
:1040500001208DF8040000208DF8060003208DF863
:10406000050001208DF807006946E54803F072FA63
:104070000120E1490860FFF74FFF0820FFF7A9FF83
:10408000FFF7BEFFDF4908801CBD10B500240020EB
:10409000D94908604FF00500FFF718FFFF20FFF730
:1040A00015FF04460120D549C1F89002204610BDF5
:1040B00010B504460020D04908604FF00100FFF71A
:1040C00005FF2046FFF702FF0120CC49C1F890020E
:1040D00010BD10B50020C84908604FF00600FFF77A
:1040E000F5FE0120C549C1F8900210BD10B500BF12
:1040F000FFF7CBFF10F0010FFAD110BD10B5002073
:10410000BD4908604FF00400FFF7E0FE0120BB4905
:10411000C1F8900210BD10B5FFF7DBFFFFF7E6FF17
:104120000020B54908604FF0C700FFF7CFFE01201F
:10413000B249C1F89002FFF7D9FF10BD10B504468F
:104140002403FFF7C6FFFFF7D1FF0020AA4908604C
:104150004FF02000FFF7BAFEC4F30740FFF7B6FEAA
:10416000C4F30720FFF7B2FEE0B2FFF7AFFE012075
:10417000A249C1F89002FFF7B9FF10BD10B50020A9
:104180009D4908604FF0B900FFF7A0FE01209B4950
:10419000C1F89002032006F092FE10BD10B5002079
:1041A000954908604FF0AB00FFF790FE012093495E
:1041B000C1F89002032006F082FE10BD70B50546DE
:1041C0000C46164600208C4908604FF00300FFF7AC
:1041D0007DFEC4F30740FFF779FEC4F30720FFF725
:1041E00075FEE0B2FFF772FE04E0FF20FFF76EFEFF
:1041F00028706D1C3000A6F101018EB2F5D10120AE
:104200007D49086070BD70B505460C461646FFF73F
:1042100060FF0020784908604FF00200FFF756FE6B
:10422000C4F30740FFF752FEC4F30720FFF74EFE2A
:10423000E0B2FFF74BFE03E02878FFF747FE6D1C66
:104240003000A6F101018EB2F6D101206A49086062
:10425000FFF74CFF70BD2DE9F05F07460E46144690
:104260004FF00008C146C2460025AB4606F0FF0AE3
:10427000CAF10000C5B22046E11704EB1161C1F399
:104280000728E11704EB11610912A4EB012101F0E9
:10429000FF09BAF1000F20D1B8F1000F05D1224675
:1042A00031463846FFF7AFFF64E009E04FF4807213
:1042B00031463846FFF7A7FF06F5807607F5807789
:1042C0005FEA0800A8F1010101F0FF08EED14A46BB
:1042D00031463846FFF797FF4CE0B8F1000F18D190
:1042E000A94510DDA9EB050000F0FF0B2A46314679
:1042F0003846FFF788FF2E442F445A463146384649
:10430000FFF781FF36E0224631463846FFF77BFF54
:1043100030E0601B84B22046E11704EB1161C1F369
:104320000728E11704EB11610912A4EB012101F048
:10433000FF092A4631463846FFF765FF2E442F44D1
:1043400009E04FF4807231463846FFF75CFF06F50E
:10435000807607F580775FEA0800A8F1010101F097
:10436000FF08EED1B9F1000F04D04A463146384675
:10437000FFF749FFBDE8F09F2DE9F05F81460F464A
:1043800016460025DFF880B04FEA1738C7F30B0A4E
:10439000CAF58054A64200DC34464EE04FEA0831AC
:1043A0004FF480525846FFF709FF002504E0681CCF
:1043B00085B2A54200D105E00AEB05001BF800001C
:1043C000FF28F4D000BFA54220DA4046FFF7B6FE32
:1043D000002507E019F8050005EB0A010BF80100BC
:1043E000681C85B2A542F5DB4FEA08314FF48052D4
:1043F0005846FFF730FF0EE0900241420000414274
:104400000008024064000020FC12002022463946C9
:104410004846FFF720FFA64200D10FE008F101084F
:104420004FF0000AA1442744301B86B2B6F5805FE6
:1044300002DD4FF4805400E03446AFE700BFBDE832
:10444000F09F000000219FEDFE0A80ED040A9FED21
:10445000FC0A80ED020A9FEDFA0A80ED030A9FED47
:10446000F80A80ED010AF7A2026000BF09E09FEDA3
:10447000F40A00F1200202EB810282ED000A4A1CDC
:10448000D1B20329F3DB002109E09FEDED0A00F131
:10449000140202EB810282ED000A4A1CD1B2032908
:1044A000F3DB7047014600209FEDE50A81ED030A2A
:1044B0009FEDE30A81ED010A9FEDE10A81ED020A19
:1044C0009FEDDF0A81ED000ADEA2CA6500BF09E0A8
:1044D0009FEDDB0A01F1100202EB800282ED000A7F
:1044E000421CD0B20328F3DB002009E09FEDD40A80
:1044F00001F11C0202EB800282ED000A421CD0B2E4
:104500000328F3DB9FEDCE0A81ED0A0A002009E0C3
:104510009FEDCB0A01F12C0202EB800282ED000A32
:10452000421CD0B20328F3DB002009E09FEDC40A4F
:1045300001F1380202EB800282ED000A421CD0B287
:104540000328F3DB002009E09FEDBD0A01F14402DE
:1045500002EB800282ED000A421CD0B20328F3DB9A
:10456000002009E09FEDB60A01F1500202EB800243
:1045700082ED000A421CD0B20328F3DB704710B56D
:1045800004462046FFF75EFF10BD10B504462046E6
:10459000FFF788FF10BD10B52C21002002F0D1FAE2
:1045A000044614B12046FFF74DFF204610BD10B55C
:1045B0006021002002F0C5FA044614B12046FFF73E
:1045C00071FF204610BD10B504461CB121460020E5
:1045D00002F0A7FA10BD10B504461CB12146002018
:1045E00002F09FFA10BD80ED010A704780ED020ACB
:1045F000704780ED030A704780ED040A7047016040
:1046000070470246002000BF0BE001EB800393EDF2
:10461000000A02F1200303EB800383ED000A431C30
:10462000D8B20328F1DB70470246002000BF0BE040
:1046300001EB800393ED000A02F1140303EB800306
:1046400083ED000A431CD8B20328F1DB704790EDDC
:10465000010A704790ED020A704790ED030A704717
:1046600090ED040A70470146086870472DE9F0474D
:104670002DED028B05462C4602F02AF8814694ED7A
:10468000010A10EE101A08460AF09EF841EC100BD1
:10469000B0EE408AF0EE608A01F0EBFF064632464B
:1046A00069A1484601F0B9FE94ED020A10EE101A15
:1046B00008460AF089F841EC100BB0EE408AF0EEA3
:1046C000608A01F0D6FF0646324662A1484601F0F4
:1046D000A4FE94ED030A10EE101A08460AF074F8CE
:1046E00041EC100BB0EE408AF0EE608A01F0C1FFA1
:1046F000064632465AA1484601F08FFE94ED040A60
:1047000010EE101A08460AF05FF841EC100BB0EEFC
:10471000408AF0EE608A01F0ACFF0646324652A1B4
:10472000484601F07AFE002701F0C9FF06460EB3A5
:1047300019E038467F1C04F1200202EB800090ED66
:10474000000A10EE101A08460AF03EF841EC100B71
:10475000B0EE408AF0EE608A01F08BFF8046414661
:10476000304601F045FE032FE3D3324641A14846CF
:1047700001F053FE002701F0A2FF06460EB319E038
:1047800038467F1C04F1140202EB800090ED000A11
:1047900010EE101A08460AF017F841EC100BB0EEB4
:1047A000408AF0EE608A01F064FF80464146304660
:1047B00001F01EFE032FE3D3324630A1484601F03C
:1047C0002CFE206801F06DFF064632462DA14846BA
:1047D00001F023FE4846BDEC028BBDE8F0872DE9D1
:1047E000F0472DED028B05462C4601F071FF074680
:1047F00094ED000A10EE101A084609F0E5FF41ECAE
:10480000100BB0EE408AF0EE608A01F032FF0646EF
:1048100032460DA1384601F000FE94ED010A10EE7B
:10482000101A084609F0D0FF41EC100BB0EE408A98
:10483000F0EE608A01F01DFF0646324605A125E034
:10484000000000000000000074656D706572617406
:104850007572650068756D6964697479000000009F
:104860006C6967687400000064697374616E6365E5
:1048700000000000766F6C7461676500416D7065C3
:10488000720000006461746500000000384601F0A9
:10489000C4FD94ED020A10EE101A084609F094FFC8
:1048A00041EC100BB0EE408AF0EE608A01F0E1FEC0
:1048B00006463246AFF25801384601F0AEFD94ED9F
:1048C000030A10EE101A084609F07EFF41EC100BA7
:1048D000B0EE408AF0EE608A01F0CBFE064632462A
:1048E000AFF27C01384601F098FD4FF0000801F06E
:1048F000E6FE064626B31AE0404608F1010804F138
:10490000100202EB800090ED000A10EE101A08462B
:1049100009F05AFF41EC100BB0EE408AF0EE608ACD
:1049200001F0A7FE81464946304601F061FDB8F12D
:10493000030FE1D33246AFF2C401384601F06DFDFA
:104940004FF0000801F0BBFE064626B31AE04046D1
:1049500008F1010804F11C0202EB800090ED000A4E
:1049600010EE101A084609F02FFF41EC100BB0EEC4
:10497000408AF0EE608A01F07CFE8146494630466E
:1049800001F036FDB8F1030FE1D33246AFF2141156
:10499000384601F042FD94ED0A0A10EE101A08465E
:1049A00009F012FF41EC100BB0EE408AF0EE608A85
:1049B00001F05FFE06463246D6A1384601F02DFDD5
:1049C0004FF0000801F07BFE06461EB31AE0404699
:1049D00008F1010804F12C0202EB800090ED000ABE
:1049E00010EE101A084609F0EFFE41EC100BB0EE85
:1049F000408AF0EE608A01F03CFE8146494630462E
:104A000001F0F6FCB8F1030FE1D33246C3A13846FA
:104A100001F003FD4FF0000801F051FE06461EB301
:104A20001AE0404608F1010804F1380202EB800068
:104A300090ED000A10EE101A084609F0C5FE41EC90
:104A4000100BB0EE408AF0EE608A01F012FE814653
:104A50004946304601F0CCFCB8F1030FE1D33246B1
:104A6000AFA1384601F0D9FC4FF0000801F027FE55
:104A700006461EB31AE0404608F1010804F144025C
:104A800002EB800090ED000A10EE101A084609F0C3
:104A90009BFE41EC100BB0EE408AF0EE608A01F014
:104AA000E8FD81464946304601F0A2FCB8F1030F0B
:104AB000E1D332469BA1384601F0AFFC4FF000082D
:104AC00001F0FDFD06461EB31AE0404608F101085C
:104AD00004F1500202EB800090ED000A10EE101A73
:104AE000084609F071FE41EC100BB0EE408AF0EE82
:104AF000608A01F0BEFD81464946304601F078FCEF
:104B0000B8F1030FE1D3324688A1384601F085FCA5
:104B1000E06D01F0C6FD06463246AFF298213846F8
:104B200001F07BFC3846BDEC028BBDE8F0872DE937
:104B3000F04781467E482C210268002090470546B8
:104B40001DB12C21284606F04CFDAFF20431484639
:104B500001F013FC044654B194ED061BB0EE410A7B
:104B6000F0EE610A51EC100B09F034F86860AFF216
:104B70001C31484601F001FC044654B194ED061B7B
:104B8000B0EE410AF0EE610A51EC100B09F022F888
:104B9000A860AFF23431484601F0EFFB044654B14F
:104BA00094ED061BB0EE410AF0EE610A51EC100BD9
:104BB00009F010F8E860AFF25031484601F0DDFB33
:104BC000044654B194ED061BB0EE410AF0EE610AC2
:104BD00051EC100B08F0FEFF28610027BA46AFF237
:104BE0006C31484601F0C9FB8046B8F1000F1CD07B
:104BF000404601F0B0FB824615E03946404601F0E0
:104C0000B3FB06467EB196ED061BB0EE410AF0EE10
:104C1000610A51EC100B08F0DDFF39467F1C05F1ED
:104C2000200242F821005745E7D30027BA46AFF2E9
:104C3000B431484601F0A1FB8046B8F1000F1CD00A
:104C4000404601F088FB824615E03946404601F0B7
:104C50008BFB06467EB196ED061BB0EE410AF0EEE8
:104C6000610A51EC100B08F0B5FF39467F1C05F1C5
:104C7000140242F821005745E7D3AFF2F831484615
:104C800001F07BFB04461CB12169286806F082FB19
:104C90002846BDE8F08770B504462046FFF7E6FCDD
:104CA0000646304601F03AFB0546304600F095F8DE
:104CB000284670BD70B504462046FFF790FD0646B5
:104CC000304601F02BFB0546304600F086F82846BA
:104CD00070BD70B50546284600F026FF044634B185
:104CE0002046FFF724FF0646204600F076F83046BF
:104CF00070BD70B50546284600F016FF044634B175
:104D00002046FFF714FF0646204600F066F83046BE
:104D100070BD0000766F6963650000006163630029
:104D200070616C00616E676C6500000064697300FF
:104D300098000020FC480068704770B504460D4696
:104D40002CB9AC4201D0012070BD0020FCE70DB9A8
:104D50000120F9E705E0207808B90020F4E7641C99
:104D60006D1C207806F022F90646287806F01EF918
:104D70008642F0D0207806F019F90646287806F029
:104D800015F9301AE0E770B50446204606F026FB18
:104D9000451C29460020E54A12689047060000D1CC
:104DA00070BD2A462146304606F082FB3046F7E7C2
:104DB000DF49DE4A1160DF49DF4A1160704710B5F4
:104DC00028210020D94A1268904704461CB12821A6
:104DD000204606F006FC204610BD70B5044625E0CE
:104DE0002568A08910F4807F04D1A06810B1A06864
:104DF000FFF7F3FFA08910F4807F06D1206920B16E
:104E00000020CD4A216912689047A08910F4007FE4
:104E100006D1206A20B10020C74A216A1268904753
:104E200021460020C44A126890472C46002CD7D156
:104E300070BD2DE9F0412DED0E8B05460C469FED22
:104E4000BF0BB0EE408AF0EE608A9FEDBE0BB0EE75
:104E500040AAF0EE60AA9FEDB90BB0EE409AF0EEDA
:104E6000609A0026012720782D2806D19FEDB70BE8
:104E7000B0EE40AAF0EE60AA641C2078302800D181
:104E8000641C207831282FDB207839282CDC00BFE7
:104E900014F8011BA1F1300009F04DF941EC100BA1
:104EA000B0EE40BAF0EE60BA9FEDAA0B53EC102BB7
:104EB00051EC180B09F092F941EC100BB0EE40CA1E
:104EC000F0EE60CA53EC1B2B51EC1C0B08F0B4FE47
:104ED00041EC100BB0EE408AF0EE608A207830286A
:104EE00002DB20783928D3DD20782E2841D1607864
:104EF00030283EDB607839283BDC641C00BF14F8A6
:104F0000011BA1F1300009F016F941EC100BB0EED5
:104F100040BAF0EE60BA9FED8F0B53EC102B51ECC2
:104F2000180B09F05BF941EC100BB0EE40CAF0EE43
:104F300060CA53EC1B2B51EC1C0B08F07DFE41ECBE
:104F4000100BB0EE408AF0EE608A9FED7E0B53ECC2
:104F5000102B51EC190B09F04DFB41EC100BB0EE8E
:104F6000409AF0EE609A2078302802DB20783928C9
:104F7000C5DD2078652802D02078452819D1641C29
:104F800020782B2801D1641C05E020782D2802D13F
:104F90004FF0FF37641C06E014F8010B303806EBC5
:104FA000860100EB41062078302802DB2078392882
:104FB000F2DD06FB07F009F0BEF841EC100BB0EE95
:104FC00040EAF0EE60EA53EC192B51EC1E0B08F0AE
:104FD00033FE41EC100BB0EE40DAF0EE60DAB0EEEA
:104FE0004D1AF0EE6D1A9FED5B0B07F099FEB0EED7
:104FF00040BAF0EE60BA53EC182B51EC1A0B09F0E2
:10500000EDF841EC100BB0EE40CAF0EE60CA53EC84
:105010001B2B51EC1C0B09F0E1F841EC100BB0EE2E
:10502000408AF0EE608A85ED068B51EC180B09F092
:1050300053F868610320E8602046BDEC0E8BBDE8A4
:10504000F0810146491E41EA610141EAA10141EABC
:10505000211141EA212141EA2141481C70472DE9F3
:10506000F04104460E460CB1206810B90020BDE89E
:10507000F081A06806446068B04203DBA168206844
:105080000844F4E73046FFF7DCFF074639460020C6
:10509000264A12689047054645B90020264A2168ED
:1050A00012689047002060602060E0E725B1284644
:1050B000D4E9001206F0FCF900201F4A21681268AA
:1050C000904767602560A0682844D0E770B5044623
:1050D0000CB1206808B9002070BDA168206845188F
:1050E000284606F07BF9A1680844F5E770B52DED78
:1050F000088B82B006460C46002596ED060BB0EEF6
:10510000408AF0EE608A9FED0D0B53EC102B51ECB2
:10511000180B08F0A5FF2DD12CB102212046FFF776
:105120009EFF054620E019E0680000206C0000208A
:10513000436B0008236B0008700000200000000093
:1051400000000000000000000000F03F0000000030
:105150000000F0BF000000000000244002210020F9
:10516000F84A126890470546002D02D0F6A0008844
:105170002880E3E0706908F0DEFF41EC100BB0EE30
:1051800040BAF0EE60BA53EC182B51EC1B0B09F04F
:1051900031FA41EC100BB0EE40AAF0EE60AA07F035
:1051A00029FDB0EE409AF0EE609A9FEDE80B53ECCB
:1051B000102B51EC190B08F0D5FF26D89FEDE50B0D
:1051C00053EC102B51EC180B08F0CCFF1DD89FEDC1
:1051D000E30B53EC102B51EC180B09F0FDF814D82D
:1051E0002CB115212046FFF73AFF054605E01521B1
:1051F0000020D44A126890470546002DB9D0D9A1A5
:105200002846726905F0F2FE98E02CB14021204654
:10521000FFF725FF054605E040210020C94A126836
:1052200090470546002D16D051EC180B07F0CAFC2C
:1052300090B18DED008B0199C1F30A50A0F5E061AA
:10524000FF3902D008B1012100E0002121B9C6A137
:10525000284605F0CBFE71E0B0EE480AF0EE680A91
:1052600007F0D2FCB0EE40BAF0EE60BA53EC182B67
:1052700051EC1B0B09F0BEF941EC100BB0EE409A5B
:10528000F0EE609A07F0B6FCB0EE40AAF0EE60AA2D
:105290009FEDAE0B53EC102B51EC1A0B08F062FF94
:1052A00019D8B0EE480AF0EE680A07F0A3FCB0EE99
:1052B000409AF0EE609A9FEDAE0B53EC102B51EC40
:1052C000190B08F04FFF06D253EC182BAAA1284661
:1052D00005F08CFE32E0B0EE480AF0EE680A07F006
:1052E00089FCB0EE409AF0EE609A9FEDA50B53EC6E
:1052F000102B51EC190B08F035FF12D3B0EE480A11
:10530000F0EE680A07F076FCB0EE409AF0EE609A94
:105310009FED9D0B53EC102B51EC190B09F05CF831
:1053200006D253EC182B9AA1284605F05FFE05E043
:1053300053EC182B97A1284605F058FE284602B0DA
:10534000BDEC088B70BD014600220878302806DBD2
:105350000878392803DC08783038024415E00878EA
:10536000412806DB0878462803DC087837380244F1
:105370000BE00878612806DB0878662803DC0878EB
:105380005738024401E0002070471201491C087898
:10539000302806DB0878392803DC087830380244E6
:1053A00015E00878412806DB0878462803DC0878F1
:1053B000373802440BE00878612806DB0878662855
:1053C00003DC08785738024401E00020DCE71201D2
:1053D000491C0878302806DB0878392803DC08786F
:1053E0003038024415E00878412806DB0878462862
:1053F00003DC0878373802440BE00878612806DBC4
:105400000878662803DC08785738024401E0002059
:10541000BAE71201491C0878302806DB08783928D9
:1054200003DC08783038024415E00878412806DBB0
:105430000878462803DC0878373802440BE00878FF
:10544000612806DB0878662803DC087857380244B0
:1054500001E0002098E7104696E72DE9F05F8346CB
:10546000884608F10104002798F80000222805D09A
:105470004948C0F800800020BDE8F09F04E014F81F
:10548000011B5C2900D1641C2078222804D02078DC
:1054900010B1781C0700F2D1791C0020294A12684B
:1054A00090478146B9F1000F01D10020E4E708F1EF
:1054B00001044D46C9E020785C2804D014F8010BA3
:1054C00005F8010BC1E0641C2078722818D006DCB6
:1054D000622809D066280BD06E2877D10CE074289A
:1054E00012D07528F9D113E0082005F8010BAAE0C5
:1054F0000C2005F8010BA6E00A2005F8010BA2E03C
:105500000D2005F8010B9EE0092005F8010B9AE03B
:10551000601CFFF718FF0646241DB6F55C4F02D34A
:10552000B6F5604F00D306B98DE0B6F5584F48D3B5
:10553000B6F55C4F45D260785C2802D1A07875281A
:105540002CD080E06C000020300000000000000043
:105550000000B03C0000C0FFFFFFDF410000000082
:105560000000E0C1256400006E756C6C0000000056
:1055700044F3C2E4E4E9634C252E306600000000E9
:105580008DEDB5A0F7C6B03E0000000065CDCD4161
:10559000256500002566000068000020E01CFFF77C
:1055A000D2FE8246A41DBAF55C4F02D3BAF5604F15
:1055B00000D348E0C6F30901504661F39F2000F58F
:1055C00080360427802E02D2012709E037E0B6F5A5
:1055D000006F01D2022703E0B6F5803F00D2032717
:1055E0003D44012F20D0022F15D0032F0AD0042FC5
:1055F00022D106F0BF0040F08001681E0546017010
:10560000B60900BF06F0BF0040F08001681E0546E5
:105610000170B60900BF06F0BF0040F08001681EAF
:1056200005460170B60900BFF748C05D3043C1B2FE
:10563000681E0546017000BF00BF3D4403E02078AE
:1056400005F8010B00BF00BF641C2078222803D09E
:10565000207800287FF42FAF00202870207822289F
:1056600000D1641CCBF810900420CBF80C0020462D
:1056700002E72DE9F05F804689460027BB46454694
:1056800011E02878002802DD2878202805DB28781A
:10569000222802D028785C2801D1012000E00020D7
:1056A00040EA0B0B6D1C28780028EAD1BBF1000FF3
:1056B00023D1A5EB0807B9F1000F05D0F91C484626
:1056C000FFF7CDFC064605E0F91C0020CF4A126822
:1056D0009047064616B90020BDE8F09F34462220C8
:1056E00004F8010B4146204605F054FE2220E05507
:1056F0000021781C21543046EEE7B8F1000F17D195
:10570000B9F1000F05D003214846FFF7A8FC064673
:1057100005E003210020BD4A1268904706460EB9F5
:105720000020D9E7BAA1304605F034FE3046D3E771
:1057300045460BE05146B7A005F010FE08B17F1CAE
:1057400003E0BAF1200F00DA7F1D6D1C95F800A070
:10575000BAF1000F02D0781C0700EBD1B9F1000FAD
:1057600005D0F91C4846FFF77AFC064605E0F91C0F
:105770000020A64A1268904706460EB90020ABE703
:1057800034464546222004F8010B47E028781F28BC
:105790000ADD2878222807D028785C2804D015F85C
:1057A000010B04F8010B39E05C2004F8010B15F83B
:1057B000011B8A460C2919D006DC082912D00929B8
:1057C00020D00A2922D115E00D2917D0222905D091
:1057D0005C291BD15C2004F8010B1EE0222004F898
:1057E000010B1AE0622004F8010B16E0662004F8B1
:1057F000010B12E06E2004F8010B0EE0722004F899
:10580000010B0AE0742004F8010B06E0524683A164
:10581000204605F0EBFB641D00BF00BF2878002880
:10582000B4D1222004F8010B002004F8010B30460B
:1058300052E770B504460D4629462069FFF719FF67
:1058400070BD00E0401C20B1017811B10178202921
:10585000F8DD70472DE9F04706460C4620787B2896
:1058600004D0704804600020BDE8F0870620F06096
:10587000601CFFF7E6FF044620787D2801D1601CFC
:10588000F2E7FFF79CFA0546B060B06808B900205F
:10589000EAE72046FFF7D5FF804641462846FFF756
:1058A000DCFD0746FFF7CDFF04460CB90020DBE71F
:1058B000286928620020286120783A2803D05948B6
:1058C00004600020D0E7601CFFF7BBFF8046414624
:1058D000284600F0A9F80746FFF7B3FF04460CB9C5
:1058E0000020C1E731E0FFF76AFA070000D1BBE70B
:1058F0002F607D603D46601CFFF7A3FF814649464F
:105900002846FFF7AAFD8046FFF79BFF04460CB927
:105910000020A9E7286928620020286120783A2819
:1059200003D04048046000209EE7601CFFF789FF19
:1059300081464946284600F077F88046FFF781FF08
:1059400004460CB900208FE700BF20782C28CAD06D
:1059500020787D2801D1601C86E732480460002051
:1059600082E72DE9F04705460C4620785B2804D0F5
:105970002C4804600020BDE8F0870520E860601C2A
:10598000FFF75FFF044620785D2801D1601CF2E735
:10599000FFF715FA0646A860A86808B90020EAE7EC
:1059A0002046FFF74EFF80464146304600F03CF867
:1059B0000746FFF746FF04460CB90020DBE717E077
:1059C000FFF7FDF9070000D1D5E737607E603E465E
:1059D000601CFFF736FF81464946304600F024F848
:1059E0008046FFF72EFF04460CB90020C3E700BF36
:1059F00020782C28E4D020785D2801D1601CBAE7FB
:105A0000084804600020B6E7820101086C0000200D
:105A100022220000225C080C0A0D09007525303492
:105A2000780000006800002070B505460C460CB9EF
:105A3000002070BD0422AFF2D041204605F0EDFCFD
:105A400018B90220E860201DF3E70522FBA12046DB
:105A500005F0E3FC18B90020E860601DE9E70422C6
:105A6000F8A1204605F0D9FC20B90120E860686162
:105A7000201DDEE72078222804D121462846FFF7A2
:105A8000ECFCD6E720782D2805D02078302807DBDD
:105A90002078392804DC21462846FFF7CAF9C8E7F0
:105AA00020785B2804D121462846FFF75AFFC0E73B
:105AB00020787B2804D121462846FFF7CBFEB8E7A3
:105AC000E24804600020B4E72DE9F04780460D4627
:105AD00016460024FFF773F907460020DB490860EB
