:020000040800F2
:1000000090D10120890500086D0500086F050008E2
:1000100073050008770500087B0500080000000054
:100020000000000000000000000000007F05000844
:100030008105000800000000830500088505000810
:10004000A3050008A3050008A3050008FF1D00087C
:10005000A3050008A3050008A3050008A3050008E0
:10006000A3050008A3050008A3050008A3050008D0
:10007000A3050008A3050008A3050008A3050008C0
:10008000A3050008A3050008A3050008A3050008B0
:10009000A3050008A3050008A3050008A3050008A0
:1000A000A3050008A3050008A3050008A305000890
:1000B000DD700008A3050008A3050008A3050008DB
:1000C000A3050008A3050008A3050008A305000870
:1000D000A3050008B13B0008E336000843200008F0
:1000E000A3050008CB1E0008A3050008A30500080F
:1000F000A3050008A3050008A3050008A305000840
:10010000A3050008A3050008A3050008A30500082F
:100110006D340008A3050008A3050008A305000826
:10012000A3050008A3050008A3050008A30500080F
:10013000A3050008A3050008A3050008A3050008FF
:10014000A3050008A3050008A3050008A3050008EF
:10015000A3050008A3050008A3050008C92A000894
:10016000A3050008A3050008A3050008A3050008CF
:10017000A3050008A3050008A3050008A3050008BF
:10018000A3050008A305000800F002F800F092F8AB
:100190000AA090E8000C82448344AAF10107DA45E2
:1001A00001D100F087F8AFF2090EBAE80F0013F0A2
:1001B000010F18BFFB1A43F00103184784FF00002A
:1001C000A4FF0000103A24BF78C878C1FAD85207BB
:1001D00024BF30C830C144BF04680C6070470000C1
:1001E0000023002400250026103A28BF78C1FBD840
:1001F000520728BF30C148BF0B6070476E290BF013
:10020000B88170290AF0AA8666290EF02C82652929
:100210000EF0298267290EF0268261290EF02582D0
:1002200003681B0A28BF41F0800169290AF018867B
:1002300064290AF0158675290AF012866F290BF0D9
:10024000B18478290AF07686E9290BF04984E429FB
:100250000BF04684F5290BF04384EF290BF0AE84B4
:10026000F8290AF075860368DB0928BF41F0800190
:1002700063290BF0CA8373290BF0CF83E3290BF0BA
:10028000E386F3290BF0E886002070471FB50EF0D7
:10029000E0F90BF0BFFC0400002000210DF036FB5C
:1002A000401C6060002000210DF046FBE0601FBD97
:1002B00010B510BD0BF06AFF1146FFF7E7FF00F025
:1002C0006CF80BF088FF03B4FFF7F2FF03BC0BF0F0
:1002D00089FF00001CB586A31022DC211E2001F03E
:1002E0002CFC01201021CDE900108548C2780223A2
:1002F000DC21562001F091FB01201021CDE90010F6
:100300007F4842780223DC216E2001F086FB012029
:100310001021CDE900107A4882780223DC21862062
:1003200001F07BFB77A31022F0211E2001F005FCD9
:1003300001201021CDE90010764802780223F02137
:10034000462001F06AFB01201021CDE90010714820
:1003500042780223F0215E2001F05FFB0120102192
:10036000CDE900106B4882780223F021762001F05D
:1003700054FB69A310224FF482711E2001F0DDFBB3
:100380005F480078401E684951F8203010224FF431
:100390008271462001F0D1FB1CBD2DED068B84B08F
:1003A0000024002001900290039000BF4FF4A06051
:1003B00006F0AAFE0AF040FC00F002FA00F084FA0F
:1003C00001F004FC00F04CFE01F0F8FC4FF4165074
:1003D00001F094FD03F02AF802F020FB4FF4E13025
:1003E00003F07AFB03F0A2F803F04CFA03F088FA6A
:1003F00003F0C4FA03F000FB4FF4165003F006F9C3
:1004000003F0B0FE04F00DF806F0F6FD0AE000205F
:10041000464908604FF4FA700AF069FC012044492B
:10042000C1F8BC02434800680028F0D04FF000003B
:1004300001F050FC5BE040480078E0BBB4F5FA7F87
:1004400051DD042003F0B0F800EE100AB8EE400AC7
:10045000DFED3A0A80EE201A11EE105A28460EF00F
:1004600087F841EC100BB0EE40AAF0EE60AA9FEDC9
:10047000340B53EC102B51EC1A0B0DF083FD41ECB7
:10048000100BB0EE409AF0EE609A9FED2F0B53ECFC
:10049000102B51EC190B0DF05FFB41EC100BB0EE83
:1004A000408AF0EE608A51EC180B0DF067FA28498B
:1004B0000860002417E0FFE71F480078012812D1E8
:1004C000002000F093F923480078012803D1092186
:1004D00021A001F082FD1F480078022803D10921E4
:1004E00020A001F07AFD05200AF001FC641CA2E7BF
:1004F000446174653A323020202D20202D202000C8
:100500005000002054696D653A20203A20203A209E
:10051000200000004C0000205765656B3A20202029
:10052000202020202000000000000020BC024342C8
:10053000000043420402434259000020000080456D
:100540000000000000E07A400000000000001440BD
:100550001C000020350000204C54452054455354C5
:10056000000000002054455354000000704700BFB5
:10057000FEE700BFFEE700BFFEE700BFFEE77047F3
:100580007047704770470000094880470948004796
:10059000FEE7FEE7FEE7FEE7FEE7FEE7FEE7FEE733
:1005A000FEE7FEE704480549054A064B7047000090
:1005B0008F0600088901000890CB012090D101200E
:1005C00090CD012090CD012000210020714A1268B9
:1005D00042F480326F4B1A6000BF6E4A126802F418
:1005E0000030491C10B9B1F5A04FF6D1694A126824
:1005F00012F4003F01D0012000E00020012845D185
:10060000644A4032126842F08052624B40331A60B2
:10061000614A126842F440425F4B1A605D4A0832F8
:1006200012685C4B08331A601A46126842F40042A2
:100630001A601A46126842F4A0521A60574A1B1FE9
:100640001A601A1F126842F080721B1F1A6000BFE6
:10065000504A126812F0007FFAD040F20572504BF7
:100660001A604C4A0832126822F00302494B0833E0
:100670001A601A46126842F002021A6000BF454A28
:100680000832126802F00C02082AF8D1704710B53F
:100690004448006840F47000424908603D480068E2
:1006A00040F001003B49086000203A4908310860E9
:1006B000384800683C490840364908603B48091DF5
:1006C0000860081F006820F48020091F08600020CF
:1006D00030490C310860FFF777FF4FF00060314977
:1006E0008039086010BD70B500200022022300246C
:1006F0000221284D08352D6805F00C0020B1042892
:1007000006D0082834D107E0294D2A4E356033E061
:10071000294D284E35602FE01E4D2D1D2D68C5F347
:1007200080541C4D2D1D2D6805F03F0154B1224D04
:10073000B5FBF1F5174E361D3668C6F3881605FB76
:1007400006F209E01A4DB5FBF1F5124E361D36687A
:10075000C6F3881605FB06F20E4D2D1D2D68C5F358
:1007600001456D1C6B00B2FBF3F5124E356003E0E2
:100770000F4D104E356000BF00BF064D08352D6887
:10078000C5F303150D4E705D0A4D2D68C540094E29
:10079000356070BD003802400070004008544007CA
:1007A000003C024088ED00E0FFFFF6FE1030002420
:1007B0000024F4002000002000127A002400002011
:1007C0001CB50121202007F029F84FF4707000902B
:1007D00000208DF8040003208DF8050001208DF81D
:1007E000070069462E4806F087FD1CBD00212D4AF2
:1007F00011702D49096849B12C49096831B12C495A
:10080000096819B12B490968002939D126490968B5
:1008100019B90121284A117013E02449096819B94E
:100820000221254A11700CE02149096819B90321F8
:10083000214A117005E01F49096811B904211E4AB7
:1008400011701D4909781D4A1278914210D11C4936
:100850000988491C1A4A118017490978194A1170E8
:10086000E8B917490988012919DD0021117016E03E
:100870000021134A118010490978104A11700EE0C6
:100880000F490988022903DD0B490978054A1170CF
:1008900000210A4A11700A4A11800A4A11707047F1
:1008A0000014024035000020188242421C8242425D
:1008B0002082424224824242380000203900002037
:1008C00036000020340000201CB50121402006F035
:1008D000A5FF4FF46040009001208DF80400002037
:1008E0008DF8060003208DF8050001208DF8070023
:1008F0006946044806F000FD4FF46041014806F0E7
:100900006FFD1CBD00180240FD4A1080921C118032
:10091000704710B50446FA48048005200AF0A1F992
:10092000F748801C008810BDF6480088F44908800C
:10093000704700BF0100A0F10102D0B2FAD17047A8
:1009400030B5014601F01F04C1F34513CA0AE502A0
:1009500005EB43151544A8B230BD10B503460C464F
:10096000E9480088A0F51341413912D1E7480088D1
:10097000E34908801812891C0880D8B20880E4482E
:100980000088891E08802012891C0880E0B2088037
:1009900012E0E0480078012804D1DF480088401EBA
:1009A000C01A83B21946D9480088FFF7ADFF214627
:1009B000D7480088FFF7A8FF10BD2DE9F041054694
:1009C0000E4600240027A046D3480088854203DA5B
:1009D000D2480088864202DB0020BDE8F081314623
:1009E0002846FFF7BAFFC8480088A0F513414139EF
:1009F00003D12E20C249088002E02220C04908808D
:100A0000BF48801C008800B100240220FFF791FF3E
:100A1000BB48801C0488BC480088A0F513414139BC
:100A20000BD10220FFF785FFB548801CB0F800808D
:100A3000E7B24FF6FF7000EA0727B3480088A0F539
:100A40001341253901D12046C7E7AF480088A0F5FA
:100A50001341413907D1E012C002B91240EA4110F6
:100A600040EAE820B9E72046FFF76AFFB5E700B59E
:100A7000A5480088A0F51341413903D12920A04998
:100A8000088004E040F273110720FFF73DFF00BD2E
:100A900000B59D480088A0F51341413903D12820B5
:100AA0009749088003E000210720FFF72DFF00BDD4
:100AB000F0B505460024002796480078012818D193
:100AC000082D15D2DFE805F00406080A0C0E1012F6
:100AD00006250DE007250BE0042509E0052507E0C4
:100AE000012505E0002503E0032501E0022500BF04
:100AF00000BF85480088A0F5134141395ED1082D1B
:100B00001CD2DFE805F00406090C0F12151800BF0F
:100B100014E044F0800411E044F040040EE044F09E
:100B2000C0040BE044F0200408E044F0600405E059
:100B300044F0A00402E044F0E00400BF00BF362708
:100B400044F0080421463846FFF7DEFE14F0200F7B
:100B50000DD07148008871490988884207DA6E48CB
:100B600006886E4800886C4908806C480680674893
:100B70000088634908800020891C08800880664836
:100B80000088401EC0F30F20088063480078401E94
:100B9000C0B208805E480088891E08800020891C39
:100BA000088008805D480088401EC0F30F20088040
:100BB0005A480078401EC0B2088026E0082D1CD29A
:100BC000DFE805F004070A0D15180F1244F0300491
:100BD00013E044F0100410E044F020040DE000BFE6
:100BE0000BE044F0180408E044F0080405E044F089
:100BF000380402E044F0280400BF00BF032744F497
:100C0000805421463846FFF77FFEF0BD10B50446FC
:100C10001CBB00203F490870F0203F4908804FF47A
:100C2000A0703E49088038480088A0F5134141393A
:100C300009D12C20334908802A20344908802B20F0
:100C4000334908802CE022202E49088020202F499B
:100C5000088021202E49088022E001202D490870BB
:100C60004FF4A0702C490880F0202C4908802648B9
:100C70000088A0F51341413909D12C202149088071
:100C80002A20224908802B202149088008E02220C0
:100C90001C49088021201D49088020201C4908800B
:100CA0000020FFF705FF10BD30B504460D4629466C
:100CB0002046FFF752FEFFF737FE1948008810491B
:100CC000891C088030BD30B503460C4615460E48D9
:100CD0000088A0F51341413924D10C480088084907
:100CE00008801812891C0880D8B20880084800883B
:100CF000891E08802012891C0880E0B2088024E048
:100D0000FE1F006C460000203E000020480000202E
:100D10004A00002040000020420000204400002043
:100D20003A000020FE480078012804D1FD480088E0
:100D3000401EC01A83B21946FB480088FFF7E4FD45
:100D40002146FA480088FFF7DFFDF9480088F94995
:100D50000880881C058030BD2DE9FF4F04460D46F4
:100D600016461F46A019401E86B2E819401E87B2DB
:100D7000F1480088A0F5134141391AD1EA480088AA
:100D8000EC4908802012891C0880E0B208803012EB
:100D90000880F0B20880E5480088891E0880281283
:100DA000891C0880E8B2088038120880F8B20880F0
:100DB00032E0DB48007801280ED1A846B946D94870
:100DC0000088801B401E1FFA80FAD6480088001B4E
:100DD000401E1FFA80FB03E0A046B146AA46BB4670
:100DE00050200390512002905220019053200090F7
:100DF00041460398FFF788FD49460298FFF784FDB6
:100E000051460198FFF780FD59460098FFF77CFD99
:100E100029462046FFF7A1FDBDE8FF8F00B59FB032
:100E20000121782006F0FAFC0121084606F02EFD8B
:100E30004FF480601D9001208DF8780000208DF81F
:100E40007A0002208DF8790001208DF87B001DA921
:100E5000BA4806F051FA4CF233701D9002208DF81A
:100E6000780000208DF87A0003208DF879000120A9
:100E70008DF87B001DA9B24806F03EFA4FF680704F
:100E80001D9002208DF8780000208DF87A00032054
:100E90008DF8790001208DF87B001DA9A94806F086
:100EA0002BFA04201D9002208DF8780000208DF888
:100EB0007A0003208DF8790001208DF87B001DA9B0
:100EC000A14806F019FA4FF480501D9002208DF8C9
:100ED000780000208DF87A0003208DF87900012039
:100EE0008DF87B001DA9984806F006FA0C22002117
:100EF000934806F084FA0C220121914806F07FFA0B
:100F00000C2204218E4806F07AFA0C2205218C4826
:100F100006F075FA0C220821894806F070FA0C22B6
:100F20000921874806F06BFA0C220A21844806F052
:100F300066FA0C220E21824806F061FA0C220F217B
:100F40007F4806F05CFA0C2207217E4806F057FA2B
:100F50000C2208217B4806F052FA0C22092179481C
:100F600006F04DFA0C220A21764806F048FA0C22C7
:100F70000B21744806F043FA0C221146714806F022
:100F80003EFA0C220D216F4806F039FA0C220E2190
:100F90006C4806F034FA0C220F216A4806F02FFA4A
:100FA0000C220221684806F02AFA0C2211466648F3
:100FB00006F025FA0F200790002008903C200990A9
:100FC00000200A900B900C900D90092000900020BA
:100FD0000190082002900020039004900590069054
:100FE00006200E9000200F901090102011900020ED
:100FF000129014901390159016904FF48050179003
:10100000002018904FF48040199000201A9007A8F3
:101010001B90CDF870D00EA806F09AFF0121062093
:1010200007F01EF8322009F062FE1FB000BD70B557
:101030000446002500263B4800884449098800FBF7
:1010400001F600210846FFF788FCFFF76DFC00BFA2
:1010500003E03848801C04806D1CB542F9D370BD94
:1010600010B50024FFF7DAFE01210020FFF74CFC49
:10107000322009F03CFE0020FFF74BFC2E4908808F
:1010800008460088FF280ADB08460088A0F57F4153
:10109000FF3904D028480088B0F5134F1DD1D32064
:1010A00024490880881C0088234908802148801C26
:1010B000008808801F48801C008808800846008837
:1010C0004FF6FF7101EA00201B4908801948801C77
:1010D0000088098808431849088017480088A0F547
:1010E0001341413938D11A48006820F00F004FF001
:1010F0002041C1F81C010846D0F81C0120F47060A2
:10110000C1F81C010846D0F81C0140F00300C1F8EA
:101110001C010846D0F81C0140F400701AE00000E1
:101120004000002042000020480000204A0000202B
:1011300046000020FE1F006C3E000020001402400C
:10114000000C024000100240001802404400002041
:101150001C0100A0C1F81C01FE480088A0F5134145
:1011600028397DD141F28F01EC20FFF7CDFB41F210
:101170003421EF20FFF7C8FB4FF480710120FFF707
:10118000C3FB4FF4E0610220FFF7BEFB41F23001E8
:101190000320FFF7B9FB00210420FFF7B5FB40F265
:1011A00002210820FFF7B0FB00210920FFF7ACFB6C
:1011B00000210A20FFF7A8FB01210C20FFF7A4FB68
:1011C00000210D20FFF7A0FB00210F20FFF79CFB63
:1011D00000211020FFF798FB07211120FFF794FB57
:1011E00000211220FFF790FB00211320FFF78CFB5A
:1011F00001210720FFF788FB322009F078FD41F23A
:1012000090411020FFF780FB40F227211120FFF7CB
:101210007BFB322009F06BFD8A211220FFF774FB63
:10122000322009F064FD4FF4D0511320FFF76CFB1E
:1012300006212920FFF768FB0D212B20FFF764FB17
:10124000322009F054FD00212020FFF75DFB002132
:101250002120FFF759FB322009F049FD002100E071
:1012600075E03020FFF750FB40F204613120FFF7BA
:101270004BFB40F205313220FFF746FB00213520C1
:10128000FFF742FB40F609413620FFF73DFB4FF4E4
:1012900001713720FFF738FB40F201313820FFF7AA
:1012A00033FB40F207713920FFF72EFB00213C2071
:1012B000FFF72AFB40F60A213D20FFF725FB3220ED
:1012C00009F015FD00215020FFF71EFBEF215120F2
:1012D000FFF71AFB00215220FFF716FB40F23F11E7
:1012E0005320FFF711FB4FF427416020FFF70CFB61
:1012F00001216120FFF708FB00216A20FFF704FBB2
:1013000000218020FFF700FB00218120FFF7FCFA7D
:1013100000218220FFF7F8FA00218320FFF7F4FA7A
:1013200000218420FFF7F0FA00218520FFF7ECFA76
:1013300010219020FFF7E8FA4FF4C0619220FFF7E8
:10134000E3FA40F233110720FFF7DEFAC2E18148E9
:101350000088A0F5134125397ED147F6F001E5203C
:10136000FFF7D2FA4FF480710120FFF7CDFA4FF466
:10137000E0610220FFF7C8FA41F230010320FFF7D5
:10138000C3FA00210420FFF7BFFA40F2022108202F
:10139000FFF7BAFA00210920FFF7B6FA00210A2068
:1013A000FFF7B2FA00210C20FFF7AEFA00210D2062
:1013B000FFF7AAFA00210F20FFF7A6FA002110205C
:1013C000FFF7A2FA07211120FFF79EFA0021122051
:1013D000FFF79AFA00211320FFF796FA0021072061
:1013E000FFF792FA41F290611020FFF78DFA40F278
:1013F00027211120FFF788FA9D211220FFF784FA98
:101400004FF4C8511320FFF77FFA25212920FFF759
:101410007BFA0D212B20FFF777FA07213020FFF709
:1014200073FA40F203313120FFF76EFA03213220C4
:10143000FFF76AFA40F206213520FFF765FA082126
:101440003620FFF761FA40F206413720FFF75CFAD9
:101450004FF44171382000E057E0FFF755FA0721BB
:101460003920FFF751FA40F202613C20FFF74CFAB5
:1014700008213D20FFF748FA00215020FFF744FAE9
:10148000EF215120FFF740FA00215220FFF73CFAEC
:1014900040F23F115320FFF737FA4FF42741602005
:1014A000FFF732FA01216120FFF72EFA00216A20AE
:1014B000FFF72AFA00218020FFF726FA0021812079
:1014C000FFF722FA00218220FFF71EFA0021832075
:1014D000FFF71AFA00218420FFF716FA0021852071
:1014E000FFF712FA10219020FFF70EFA4FF4C061B7
:1014F0009220FFF709FA40F233110720FFF704FAB0
:1015000022210020FFF700FAE4E012480088A0F54D
:1015100013414139F8D1CF200F4908800020891CA0
:101520000880C120088030200880ED20891E0880B6
:101530006420891C088003200880122008808120F4
:101540000880E820891E08808520891C08801020DA
:10155000088003E03E000020FE1F006C7A20088017
:10156000CB20891E08803920891C08802C20088007
:10157000002008803420088002200880F720891E7F
:1015800008802020891C0880EA20891E088000200D
:10159000891C08800880C020891E08801B20891CA7
:1015A0000880C120891E08800120891C0880C52070
:1015B000891E08803020891C08800880C720891E69
:1015C0000880B720891C08803620891E08804820A2
:1015D000891C08803A20891E08805520891C0880B3
:1015E000B120891E08800020891C08801A200880EC
:1015F000B620891E08800A20891C0880A220088045
:10160000F220891E08800020891C08802620891E5F
:1016100008800120891C0880E020891E08800F2096
:10162000891C08802A20088028200880082008803B
:101630000E2008800820088054200880A9200880F7
:10164000432008800A2008800F200880002008809E
:10165000088008800880E120891E08800020891CFD
:101660000880152008801720088007200880112096
:101670000880062008802B200880562008803C2007
:10168000088005200880102008800F2008803F2057
:10169000088008800F2008802B20891E08800020E9
:1016A000891C08800880012008803F2008802A20AB
:1016B000891E08800020891C088008800880EF208F
:1016C00008801120891E0880782009F010FB29204D
:1016D000FD4908800020FFF799FA0120FB490860C6
:1016E0004FF6FF70FFF7A3FC10BD2DE9F04F054644
:1016F0000E4617469846DDF824A04FF0000B781BE5
:10170000401C1FFA80FB344614E021462846FFF7B0
:1017100024F9FFF709F94FF0000907E0EA48801CB7
:10172000A0F800A009F101001FFA80F9D945F5DB06
:10173000601C84B24445E8DDBDE8F08F2DE9F84F28
:1017400007460D4690469946DDF828B0A8EB0700FD
:10175000401C80B20090A9EB0500401C1FFA80FAE3
:10176000002416E0281981B23846FFF7F6F8FFF793
:10177000DBF8002608E004FB0A603BF81000D249C1
:10178000891C0880701C86B200988642F3DB601CBE
:1017900084B25445E6DBBDE8F88F2DE9FF4F84B0F5
:1017A00081468A460020039002900698A0EB090526
:1017B0000798A0EB0A06CDF80490CDF800A0002D04
:1017C00001DD012705E00DB9002702E04FF0FF37EA
:1017D0006D42002E02DD4FF0010806E016B94FF011
:1017E000000802E04FF0FF387642B54201DD2C469A
:1017F00000E034464FF0000B21E0009A91B2019ACC
:1018000090B2FFF751FA03982844039002983044AD
:1018100002900398A04205DD0398001B03900198F5
:10182000384401900298A04205DD0298001B029006
:101830000098404400900BF101001FFA80FB601CEF
:101840008345DADD08B0BDE8F08FF0B504460D46FB
:1018500016461F462B46324629462046FFF79DFF77
:101860003B46224629462046FFF797FF3B46324635
:1018700039462046FFF791FF3B463246294630461F
:10188000FFF78BFFF0BD2DE9F04306460F4690466B
:10189000002445460320A0EB48093CE07A1B91B2A6
:1018A000321990B2FFF700FA3A1B91B2721990B256
:1018B000FFF7FAF93A1991B2721990B2FFF7F4F9F9
:1018C0007A1991B2321990B2FFF7EEF97A1991B202
:1018D000321B90B2FFF7E8F93A1991B2721B90B23D
:1018E000FFF7E2F97A1B91B2321B90B2FFF7DCF9F5
:1018F0003A1B91B2721B90B2FFF7D6F9641CB9F192
:10190000000F03DAA000801D814404E0601B80000A
:101910000A3081446D1EAC42C0DDBDE8F0832DE984
:10192000F84F81460E4617461C4600960C2C01D1F6
:1019300098460AE0102C01D1A04606E0182C02D1EE
:101940004FF0240801E0BDE8F88FA7F12000C7B2EE
:10195000002553E00C2C07D107EB47005C4901EB55
:10196000800010F805A012E0102C05D1594800EBBA
:10197000071010F805A00AE0182C07D107EBC700E4
:10198000554901EB800010F805A000E0DBE74FF0BF
:10199000000B2DE01AF0800F06D050480288314627
:1019A0004846FFF790F905E04D4802883146484621
:1019B000FFF789F94FEA4A604FEA106A701C86B255
:1019C00048480088864200DBBDE70098301AA042F4
:1019D0000AD1009E09F101001FFA80F942480088EF
:1019E000814500DBAFE706E00BF1010000F0FF0BE3
:1019F000BBF1080FCEDB00BF681CC5B24545A9DBB3
:101A000000BFA0E710B50246012000E050430B00E4
:101A1000A1F10104E1B2F9D110BD2DE9FF4F81B070
:101A2000064691461F46DDE90E4A0020009000253B
:101A300044E0781B401EC1B20A20FFF7E3FFB9FB68
:101A4000F0F00A21B0FBF1F201FB1208009820BB74
:101A5000781EA84221DDB8F1000F1CD1BAF1000FA9
:101A60000CD0A34604EBDB71491011FB056188B271
:101A7000234630220299FFF752FF0BE0A34604EB06
:101A8000DB71491011FB056188B2234620220299BF
:101A9000FFF745FF10E001200090A34604EBDB7147
:101AA000491011FB056188B208F13001CAB2234622
:101AB0000299FFF734FF00BF681CC5B2BD42B8DB16
:101AC00005B0BDE8F08F0000FE1F006CA882424206
:101AD0005EE70008D2EB0008C2F100083A000020DF
:101AE0003C00002044000020420000202DE9FF4F70
:101AF00082B004460D461646DDE91189109F304834
:101B0000B0F800A02F48B0F800B02D48A0F8008031
:101B10002C48A0F800900F98CDE9000732462946DE
:101B20002046059BFFF779FF2548A0F800A025482F
:101B3000A0F800B006B0BDE8F08FF0B506460F463D
:101B400015461C4611E022782B4639463046FFF7F1
:101B5000E6FE284605EBD07106EB61018EB21A480D
:101B60000088864200DB06E0641C20787E2802DCC8
:101B700020782028E7DA00BFF0BD2DE9F04F0446B9
:101B80000D4616461F46DDE909890D48B0F800A04C
:101B90000C48B0F800B00A48A0F800800948A0F846
:101BA00000903B46324629462046FFF7C6FF0448D0
:101BB000A0F800A00348A0F800B0BDE8F08F000036
:101BC0003A0000203C000020420000201CB501210A
:101BD000402005F023FE8020009001208DF80400B5
:101BE00000208DF8060003208DF8050002208DF8F6
:101BF00007006946034805F07FFB8021014805F096
:101C0000F1FB1CBD00180240F0B504460B4615461A
:101C100004F16400C1B20846CE1701EB967601EBE1
:101C2000A602072092FBF0F600FB162082B256199E
:101C3000581EAD4F385C304482B2CE1701EB967619
:101C4000B610B1EB860603D1032B01DA501E82B227
:101C5000072092FBF0F600FB162008B90720F0BD24
:101C6000072092FBF0F600FB1620C0B2F7E72DE943
:101C7000FC4705460E4617461C46DDE90A898DF8E5
:101C800006708DF805603A4631462846FFF7BCFFDE
:101C90008DF804008DF807508DF800408DF8018014
:101CA0008DF802900C2C03DD40208DF8030002E03B
:101CB00000208DF8030001A9002006F008FE38B1CD
:101CC0006946002006F06CFD10B10120BDE8FC87DC
:101CD0000020FBE710B504468449204606F063FE69
:101CE0008349204606F0C6FD10BD10B586B000241D
:101CF000012005F030FC0AE0601C84B2052008F0E9
:101D0000F6FFB4F5FA7F02DB012006B010BD4120DA
:101D100005F0DEFB0028EFD04FF4807005F01CFDCD
:101D2000012005F034FD7F200490FF200590002065
:101D3000039003A806F099FC1E2002210D230B221C
:101D4000CDE9001003210F20FFF791FF0020DCE711
:101D50007CB505460C46002006F080FF284606F0BC
:101D600058FF204606F06AFF4FF4804007F03FFA24
:101D70004FF4800007F087FB0121880307F0C6F9C4
:101D8000012006F06BFF4FF48000009000208DF8DA
:101D9000040008208DF8050001208DF80600684633
:101DA00007F000FB03205349087002204870887038
:101DB0000120C870084605F0ACF97CBD10B50024C0
:101DC0000121080705F073FD012007F030FA00201B
:101DD00007F032F9A0F5AA4155390AD0FFF785FF7F
:101DE0000446012C00D110BD45F25551002007F0EA
:101DF0001CF900210420FFF7ABFF0020F3E710B52A
:101E00004FF4806007F0B7F901280AD1800207F08B
:101E1000C2F93948006808B9012000E000203649BD
:101E200008604FF4800007F02EFB10BDF0B587B0BE
:101E300004460D4616461F4600214FF4807006F0FA
:101E40008CFE8DF800508DF801608DF80270002036
:101E50008DF803008DF810404FF080400390002073
:101E600002900098019001AA4FF48071002006F0C2
:101E7000BDFD4FF4805007F0BAF94FF4003007F081
:101E800002FB0121080307F041F90121080206F0D5
:101E900064FE4FF40030059000208DF818000820F3
:101EA0008DF8190001208DF81A0005A807F07AFABC
:101EB0002920104908700220487088700120C870DD
:101EC000084605F026F907B0F0BD10B54FF4807054
:101ED00007F051F9012802D1000207F05CF94FF434
:101EE000003007F0D0FA10BD1EFF0008500000209F
:101EF0004C00002054000020B402434210B588B0CA
:101F000004460121022005F089FC0121880405F026
:101F1000CEFC07220A21FD4805F071FA07220B21A9
:101F2000FA4805F06CFA4FF44060069002208DF8F4
:101F30001C008DF81D0000208DF81E0001208DF87A
:101F40001F0006A9F14805F0D7F902940020ADF86A
:101F50000C00ADF80E00ADF81000ADF814000C2028
:101F6000ADF8120002A9EA4805F013FE0121E84885
:101F700005F097FE4021E64805F07BFF012240F284
:101F80002551E34805F043FF27208DF80400032086
:101F90008DF805008DF8060001208DF8070001A8D6
:101FA00005F0B7F80220069000208DF81C000320F1
:101FB0008DF81D0000208DF81F0006A9D54805F0FA
:101FC0009BF908B010BD00BFD149098811F0400F3E
:101FD000FAD0CF49091D0880704710B503460C465A
:101FE000002200BF985CFFF7EEFF501C82B2A242B5
:101FF000F8DB10BD0FB438B50024002505A800900B
:10200000C548009A049908F0B1FE00200090C2482B
:1020100009F0B6F805460DE000BF4021BC4805F0C8
:102020001BFF0028F9D02046641CBB4A115CB8484D
:1020300005F062FE2800A5F10105EDD138BC5DF880
:1020400014FB2DE9F0472DED068BFEB0002440F285
:102050002551AF4805F016FF002808D0AC4805F020
:102060004FFEC6B2532E03D10120AC490870CDE318
:10207000452E77D1AA49ABA009F0B6F918B90020CE
:10208000AB49086056E2A649AAA009F0ADF918B913
:102090000120A7490860F5E7A149A9A009F0A4F922
:1020A00018B90020A9490860ECE79D49A8A009F0EB
:1020B0009BF918B90120A5490860E3E79849A7A052
:1020C00009F092F918B90020A7490860DAE79449A5
:1020D000A6A009F089F918B90120A3490860D1E741
:1020E0008F49A5A009F080F918B90120A549086019
:1020F000C8E78B49A4A009F077F918B90020A149D5
:102100000860BFE78649A3A009F06EF920B91E2137
:10211000A2A0FFF762FFB5E78149A8A009F064F922
:1021200008BB04F0BCFFA64890ED000A10EE101AA0
:1021300008460CF01DFA41EC100BB0EE408AF0EEB0
:10214000608AA0A053EC182B9FA10090724808F061
:102150001FFE714809F014F80446A1B26E48FFF75B
:102160003CFFE7E1FDE36E4999A009F03DF940B974
:10217000994809F005F80446A1B2974801F00BFD13
:10218000D8E1674995A009F02FF938B90021084630
:1021900002F00AF8002093490870FCE360480078D8
:1021A0004E287DD14FF000085C480078401E5B4906
:1021B00008700846007804281BD108460078C01E25
:1021C0005749085C3038642110FB01F1534800780E
:1021D000801E534A105C303800EB800001EB400158
:1021E0004E480078401E105C0844303800F0FF086C
:1021F00022E04A480078032812D148480078401E5F
:102200004749095C45480078801E454A105C3038D3
:1022100000EB800001EB4000303800F0FF080BE0DD
:102220003E480078022807D13C480078401E3C49CF
:10223000085C303800F0FF08002001F097FF0546E9
:10224000454503DA6748007800B9A84601272AE027
:1022500005F1FF00C01BFF2190FBF1F201FB120012
:1022600000F0FF0A4FEA0A3102227DA802F097F936
:102270009DF8F5019DF8F41100EB01201FFA80F99B
:10228000022000EB0A314A46684602F088F94946C6
:10229000684601F080FC49466846FFF79EFE00E074
:1022A00004E0781CC7B24745D2DD74E31C494EA058
:1022B00009F09AF8002828D14E4890ED000A10EE57
:1022C000101A08460CF054F941EC100BB0EE408A9D
:1022D000F0EE608A48A053EC182B3BA100900E480A
:1022E00008F056FD0C4808F04BFF0446A1B20A481E
:1022F000FFF773FE3F4890ED010A10EE101A0846F2
:102300000CF036F941EC100B7AE0B0E0000402402A
:102310000048004000180240000200205800002041
:10232000D00000206F70656E5F6C65643100000046
:10233000B4024342636C6F73655F6C656431000087
:102340006F70656E5F6C656432000000B8024342D6
:10235000636C6F73655F6C65643200006F70656EEF
:102360005F6C656433000000BC024342636C6F73B2
:10237000655F6C65643300006F70656E5F626565F4
:10238000700000009C024342636C6F73655F62657E
:10239000657000007465737400000000636F7272F2
:1023A0006563745F4F4B636F72726563745F4F4B0D
:1023B000636F72726563745F4F4B000064697300F2
:1023C00020CB0120636D0000252E336625730000AD
:1023D00044617461000000002C0E0020636C656194
:1023E000720000007300002073656E645F616363B8
:1023F000000000002C0300206D2F7332000000004D
:10240000B0EE408AF0EE608AAFF2140053EC182B65
:10241000AFF24C010090FE4808F0BAFCFC4808F00E
:10242000AFFE0446A1B2FA48FFF7D7FDF94890ED98
:10243000020A10EE101A08460CF09AF841EC100B44
:10244000B0EE408AF0EE608AAFF2540053EC182BE5
:10245000AFF28C010090EE4808F09AFCEC4808F0CE
:102460008FFE0446A1B2EA48FFF7B7FD93E2EA49BE
:10247000EAA008F0B9FF00285DD1EB4890ED000A12
:1024800010EE101A08460CF073F841EC100BB0EE89
:10249000408AF0EE608AE5A053EC182BAFF2D80129
:1024A0000090DB4808F074FCD94808F069FE044647
:1024B000A1B2D748FFF791FDDB4890ED010A10EE7D
:1024C000101A08460CF054F841EC100BB0EE408A9C
:1024D000F0EE608AD5A053EC182BAFF214110090E7
:1024E000CB4808F055FCCA4808F04AFE0446A1B2A1
:1024F000C748FFF772FDCC4890ED020A10EE101AA3
:1025000008460CF035F841EC100BB0EE408AF0EEC6
:10251000608AC6A053EC182BAFF254110090BC484F
:1025200008F036FCBA4808F02BFE0446A1B2B848C1
:10253000FFF753FD2FE2B849BDA008F055FF002872
:102540005DD1BE4890ED000A10EE101A08460CF05E
:102550000FF841EC100BB0EE408AF0EE608AB8A0A4
:1025600053EC182BAFF2A0110090A94808F010FC12
:10257000A74808F005FE0446A1B2A548FFF72DFDC7
:10258000AE4890ED010A10EE101A08460BF0F0FF6D
:1025900041EC100BB0EE408AF0EE608AA8A053EC3C
:1025A000182BAFF2DC110090994808F0F1FB984825
:1025B00008F0E6FD0446A1B29548FFF70EFD9F48DE
:1025C00090ED020A10EE101A08460BF0D1FF41EC14
:1025D000100BB0EE408AF0EE608A99A053EC182BF5
:1025E000AFF21C2100908A4808F0D2FB884808F01E
:1025F000C7FD0446A1B28648FFF7EFFCCBE1864950
:1026000090A008F0F1FE18BB9148006808B90120BD
:1026100000E000208E4908608E4800680BF0A8FF9B
:1026200041EC100BB0EE408AF0EE608A8AA053ECC9
:10263000182BAFF26C210090754808F0A9FB744884
:1026400008F09EFD0446A1B27148FFF7C6FCA2E166
:10265000714982A008F0C8FE40BB7D48006808B9F7
:10266000012000E000207A4908607F4890ED000AD0
:1026700010EE101A08460BF07BFF41EC100BB0EE89
:10268000408AF0EE608AAFF2C42053EC182BAFF210
:10269000C82100905E4808F07BFB5D4808F070FDA3
:1026A0000446A1B25A48FFF798FC74E15A496FA05A
:1026B00008F09AFEF0BB042000F076FF00EE100A4E
:1026C000B8EE400ADFED6C0A80EE201A11EE105AC7
:1026D00028460BF04DFF41EC100BB0EE40AAF0EE97
:1026E00060AA9FED660B53EC102B51EC1A0B0BF00C
:1026F00049FC41EC100BB0EE409AF0EE609A9FED71
:10270000610B53EC102B51EC190B0BF025FA41EC3B
:10271000100BB0EE408AF0EE608A51EC180B0BF013
:102720002DF95A490860084600680BF021FF41EC7A
:10273000100B00E015E0B0EE408AF0EE608A54A085
:1027400053EC182BAFF280310090314808F020FB99
:102750002F4808F015FD0446A1B22D48FFF73DFCB7
:1027600019E12D494BA008F03FFEC8B900204C49A3
:1027700008704CA3102282211420FFF7DEF94DA32C
:10278000102296211420FFF7D8F94FF6FF7040F27F
:102790003F13EF22AA2100900020FEF7A6FFFAE0E7
:1027A0001D4949A008F020FEC8B901203C49087025
:1027B00048A3102282211420FFF7BFF949A3102259
:1027C00096211420FFF7B9F94FF6FF7040F23F133E
:1027D000EF22AA2100900020FEF787FFDBE00E48E1
:1027E0000078542813D10C48007930380A49C97848
:1027F000303901EB810100EB41003F49C8700648C8
:102800008079303804494979303977E0F6E0C2E020
:10281000000200202C030020D000002073656E64AD
:102820005F70616C0000000038030020642F7300AB
:1028300073656E645F616E670000000044030020F2
:102840006400000073656E645F74656D00000000D5
:10285000BC0243425C0000204300000073656E64CC
:102860005F6469733100000020CB012073656E64E2
:102870005F766F69000000000000804500000000E6
:1028800000E07A4000000000000014401C0000201E
:10289000644200006170705F6D6F6465310000001C
:1028A000590000204150505F6D6F64653A20302020
:1028B00020000000576169742041505020436F6E22
:1028C00074726F6C000000006170705F6D6F646502
:1028D000320000004150505F6D6F64653A20312036
:1028E000200000005265636569766520616E642092
:1028F00073656E64000000005000002001EB810150
:1029000000EB4100404948704048007A30383F4968
:10291000C979303901EB810100EB41003A498870F7
:102920003A48807A30383949497A303901EB8101A7
:1029300000EB4100364908703448007B3038334999
:10294000C97A303901EB810100EB41003049487010
:102950002E48807B30382D49497B303901EB81018D
:1029600000E038E000EB4100294988700846807893
:102970004978274DCDE900102B78234DAA78697846
:10298000E878FFF774F9642008F0B1F90A21AFF292
:10299000E050FFF722FB1F480078012805D11B4BB0
:1029A0001022BE211E20FFF7C8F800201A49087027
:1029B00009E000201549184A127888541648007812
:1029C000401C15490870144800782028F1DB0020CD
:1029D0001149087012E01048007800280EDD0E48FA
:1029E0000078B0F5967F09DC0B480078401E074957
:1029F0000E5409480078401C074908707EB0BDECB1
:102A0000068BBDE8F087000050000020D0000020B9
:102A10004C000020590000205800002000B587B06D
:102A20000121042004F0FAFE0121202004F050FFCF
:102A300008220621FE4804F0E2FC08220721FC4897
:102A400004F0DDFCC020059002208DF818008DF800
:102A5000190000208DF81A0001208DF81B0005A92F
:102A6000F34804F049FC4FF4165001900020ADF8F3
:102A70000800ADF80A00ADF80C00ADF810000C200D
:102A8000ADF80E0001A9EB4805F083F80121E948F3
:102A900005F007F94021E74805F0EBF9012240F283
:102AA0002551E44805F0B3F947208DF800000320D4
:102AB0008DF801008DF8020001208DF803006846B2
:102AC00004F027FB07B000BD10B52DED068B40F2DA
:102AD0002551D84805F0D6F958B3D64805F010F975
:102AE000C1B2D548D54A12688154D4490968405CBE
:102AF000552805D0D148006810B9BDEC068B10BD33
:102B0000CE480068401CCD490860084600680B2884
:102B10000FD10120CA4908600020C8490860C9498E
:102B2000C54802680A6042684A6002890A81807A60
:102B30008872C348006801287ED10020C04908601F
:102B4000C149C04802680A6042684A6002890A8135
:102B5000807A8872084600785528EDD1084640787A
:102B6000512804D0522868D0532867D1B6E1B6491D
:102B70008978B54AD27841EA022108B20BF0AFF960
:102B800041EC100BB0EE40AAF0EE60AA9FEDAF0B47
:102B900053EC102B51EC1A0B0AF0DEFF41EC100B3A
:102BA000B0EE409AF0EE609A9FEDAA0B53EC102B1A
:102BB00051EC190B0BF0E6F941EC100BB0EE408A2A
:102BC000F0EE608A51EC180B0AF0D8FEA3490860B9
:102BD0009D4909799C4A527941EA022108B20BF0D9
:102BE0007EF941EC100BB0EE40AAF0EE60AA9FED2A
:102BF000970B53EC102B51EC1A0B0AF0ADFF41EC84
:102C0000100BB0EE409AF0EE609A9FED920B53ECF1
:102C1000102B51EC190B0BF0B5F941EC100BB0EE89
:102C2000408AF0EE608A51EC180B0AF0A7FE8B493F
:102C300048608549897902E017E261E013E2824A3F
:102C4000D27941EA022108B20BF049F941EC100BAC
:102C5000B0EE40AAF0EE60AA9FED7C0B53EC102B77
:102C600051EC1A0B0AF078FF41EC100BB0EE409AD1
:102C7000F0EE609A9FED770B53EC102B51EC190B93
:102C80000BF080F941EC100BB0EE408AF0EE608A58
:102C900051EC180B0AF072FE704988606A49097A93
:102CA000694A527A41EA022108B20BF018F941EC64
:102CB000100BB0EE40AAF0EE60AA9FED690B53EC4A
:102CC000102B51EC1A0B0AF047FF41EC100BB0EE41
:102CD000409AF0EE609A9FED640B53EC102B51EC90
:102CE000190B0AF07DFE41EC100BB0EE408AF0EEBD
:102CF000608A51EC180B0AF041FE5D490860B3E1AF
:102D000051498978504AD27841EA022108B20BF041
:102D1000E6F841EC100BB0EE40AAF0EE60AA9FED91
:102D20004B0B53EC102B51EC1A0B0AF015FF41EC36
:102D3000100BB0EE409AF0EE609A9FED4E0B53EC04
:102D4000102B51EC190B0BF01DF941EC100BB0EEF0
:102D5000408AF0EE608A51EC180B0AF00FFE4749EA
:102D6000086039490979384A527941EA022108B2A2
:102D70000BF0B5F841EC100BB0EE40AAF0EE60AAF3
:102D80009FED320B53EC102B51EC1A0B0AF0E4FEC2
:102D900041EC100BB0EE409AF0EE609A9FED350BCF
:102DA00053EC102B51EC190B0BF0ECF841EC100B21
:102DB000B0EE408AF0EE608A51EC180B0AF0DEFDAE
:102DC0002E494860204989791F4AD27941EA022177
:102DD00008B20BF084F841EC100BB0EE40AAF0EE14
:102DE00060AA9FED1A0B53EC102B51EC1A0B0AF052
:102DF000B3FE41EC100BB0EE409AF0EE609A9FEDFE
:102E00001D0B53EC102B51EC190B0BF0BBF841ECE4
:102E1000100BB0EE408AF0EE608A51EC180B0AF00D
:102E2000ADFD164988600849097A074A527A27E0B9
:102E300000080240001401409203002064000020BA
:102E400060000020500300207103002000000000FB
:102E50000000E04000000000000030402C03002093
:102E600000000000004075400000000000204240CB
:102E70005C0000200000000000409F40380300205C
:102E800041EA022108B20BF02AF841EC100BB0EE37
:102E900040AAF0EE60AA1FED0E0B53EC102B51EC84
:102EA0001A0B0AF059FE41EC100BB0EE408AF0EE1E
:102EB000608A1FED130B53EC102B51EC180B0AF02A
:102EC0008FFD41EC100BB0EE409AF0EE609A51ECA1
:102ED000190B0AF053FD66490860C5E06549897819
:102EE000644AD27841EA022108B20AF0F8FF41ECC4
:102EF000100BB0EE40AAF0EE60AA1FED2C0B53ECC5
:102F0000102B51EC1A0B0AF027FE41EC100BB0EE1F
:102F1000409AF0EE609A9FED580B53EC102B51EC59
:102F2000190B0BF02FF841EC100BB0EE408AF0EECD
:102F3000608A51EC180B0AF021FD514908604D4997
:102F400009794C4A527941EA022108B20AF0C7FFD6
:102F500041EC100BB0EE40AAF0EE60AA1FED450B5D
:102F600053EC102B51EC1A0B0AF0F6FD41EC100B50
:102F7000B0EE409AF0EE609A9FED3F0B53EC102BB1
:102F800051EC190B0AF0FEFF41EC100BB0EE408A39
:102F9000F0EE608A51EC180B0AF0F0FC38494860FA
:102FA00034498979334AD27941EA022108B20AF0D8
:102FB00096FF41EC100BB0EE40AAF0EE60AA1FEDB8
:102FC0005D0B53EC102B51EC1A0B0AF0C5FD41ECD4
:102FD000100BB0EE409AF0EE609A9FED270B53EC89
:102FE000102B51EC190B0AF0CDFF41EC100BB0EE99
:102FF000408AF0EE608A51EC180B0AF0BFFC2049C1
:1030000088601C49097A1B4A527A41EA022108B2B7
:103010000AF065FF41EC100BB0EE40AAF0EE60AA9A
:103020001FED710B53EC102B51EC1A0B0AF094FDB1
:1030300041EC100BB0EE409AF0EE609A1FED760B6B
:1030400053EC102B51EC190B0AF0CAFC41EC100B9D
:10305000B0EE408AF0EE608A51EC180B0AF08EFC5C
:103060000349086000E000BF00BF00BF45E5000065
:103070005C0000207103002000000000008066401A
:103080004403002000B587B00121C80404F00FFC00
:103090000121084604F0C2FB08220021FD4804F08B
:1030A000AEF908220121FB4804F0A9F9032005909C
:1030B00002208DF8180003208DF8190000208DF8EB
:1030C0001A0001208DF81B0005A9F24804F014F93C
:1030D0004FF4E13001900020ADF80800ADF80A008F
:1030E000ADF80C00ADF810000C20ADF80E0001A9F1
:1030F000E94804F04EFD012240F22551E64804F073
:1031000086FE0121E44804F0CCFD4021E24804F0B1
:10311000B0FE34208DF8000001208DF8030002205D
:103120008DF801008DF80200684603F0F2FF07B049
:1031300000BD0FB438B50024002505A80090D7487D
:10314000009A049907F012FE00200090D34808F07E
:1031500017F805460DE000BF4021CF4804F07CFE83
:103160000028F9D02046641CCC4A115CCA4804F0FF
:10317000C3FD2800A5F10105EDD138BC5DF814FBB5
:1031800070B504460D4600262146C5A0FFF7D1FFC5
:1031900028E0C5A1C54807F0BDFF80B14FF48061AC
:1031A000C24808F0CEF80020C1490860C148006854
:1031B00008B9012000E00020BE49086014E0BEA16B
:1031C000BA4807F0A7FF60B12146B5A0FFF7B1FFED
:1031D00000260020B64908604FF48061B34808F02B
:1031E000B0F8761CAE42D4DB00BF70BD00B52DED4B
:1031F000068B81B0B0EE408AF0EE608AB0EE419A64
:10320000AFA1A7A0FFF795FFC82007F070FDAAA106
:10321000A64807F07FFF58B14FF48061A34808F03B
:1032200090F8A7A19EA0FFF784FFC82007F05FFDDC
:1032300018EE100A0BF09CF941EC100BB0EE40AA0E
:10324000F0EE60AAA1A053EC1A2B0090A1A0FFF70A
:1032500070FF18EE900A0BF08BF941EC100BB0EEFA
:1032600040AAF0EE60AA99A053EC1A2B009099A006
:10327000FFF75FFF19EE100A0BF07AF941EC100B23
:10328000B0EE40AAF0EE60AA90A053EC1A2B00908A
:1032900090A0FFF74EFF1A217F4804F02DFDC820B3
:1032A00007F025FD01B0BDEC068B00BD00B52DED8E
:1032B000068B81B0B0EE408AF0EE608AB0EE419AA3
:1032C0007FA177A0FFF735FFC82007F010FD7AA196
:1032D000764807F01FFF58B14FF48061734808F03B
:1032E00030F877A16EA0FFF724FFC82007F0FFFC9D
:1032F00018EE100A0BF03CF941EC100BB0EE40AAAE
:10330000F0EE60AA75A053EC1A2B009071A0FFF7A5
:1033100010FF18EE900A0BF02BF941EC100BB0EEF9
:1033200040AAF0EE60AA6DA053EC1A2B009069A0A1
:10333000FFF7FFFE19EE100A0BF01AF941EC100B23
:10334000B0EE40AAF0EE60AA64A053EC1A2B0090F5
:1033500060A0FFF7EEFE1A214F4804F0CDFCC82014
:1033600007F0C5FC01B0BDEC068B00BD00B52DED2E
:10337000068B81B0B0EE408AF0EE608AB0EE419AE2
:103380004FA147A0FFF7D5FEC82007F0B0FC4AA127
:10339000464807F0BFFE58B14FF48061434807F03C
:1033A000D0FF47A13EA0FFF7C4FEC82007F09FFC56
:1033B00018EE100A0BF0DCF841EC100BB0EE40AA4E
:1033C000F0EE60AA47A053EC1A2B009041A0FFF743
:1033D000B0FE18EE900A0BF0CBF841EC100BB0EEFB
:1033E00040AAF0EE60AA3FA053EC1A2B009039A03F
:1033F000FFF79FFE19EE100A0BF0BAF841EC100B24
:10340000B0EE40AAF0EE60AA36A053EC1A2B009062
:1034100030A0FFF78EFE1A211F4804F06DFCC82073
:1034200007F065FC01B0BDEC068B00BD10B5FFF7E1
:1034300029FE41F2883007F076FC05212BA0FFF72A
:103440009FFE4FF4FA6007F06EFC05212AA0FFF7FB
:1034500097FE4FF4FA6007F066FC14212AA0FFF7EC
:103460008FFE4FF4FA6007F05EFC10BD10B540F21D
:103470002551094804F006FD58B1074804F040FC06
:103480000A490B4A1268885409480068401C0849D8
:10349000086010BD00000240004C0040B80700204A
:1034A00025730D0A000000004F4B0000B8030020F8
:1034B00068000020BC0243424552524F52000000B7
:1034C00041542B43495053454E4400006D2F7332F5
:1034D0002C200000252E336625730000E5BAA62FA8
:1034E000732C2000E5BAA62C2000000041542B4389
:1034F000474154543D31000041542B43474143540C
:103500003D312C310000000041542B4349505354AD
:103510004152543D5443502C3232332E332E3438E2
:103520002E3135302C3832363600000000B58DB0E3
:103530000121084604F072F90121080204F0C8F9DB
:1035400010200B9003208DF8300000208DF8330000
:103550000BA92C4803F0D0FE0121080204F00DFA5B
:1035600000214FF4807004F008FA002007900A90C0
:1035700009904FF48030089007A805F0C7FF00209D
:1035800001908DF808008DF8090003900590012046
:103590008DF8180001A91C4805F089FF01211A487F
:1035A00005F0D0FF0DB000BD10B504460723012281
:1035B0002146154806F006F8134806F05FF800BFEC
:1035C0000221114806F065F90028F9D00E4806F0EE
:1035D00091F810BD2DE9F04107460C460025002664
:1035E00008E03846FFF7E0FF0544052007F07FFBC1
:1035F000701CC6B2A642F4DBB5FBF4F080B2BDE8A5
:10360000F0810000000002400020014010B588B0A9
:1036100004460121084604F001F90121480404F0A0
:1036200046F907220221834803F0E9FE072203211D
:10363000804803F0E4FE0C20069002208DF81C0068
:1036400003208DF81D0000208DF81E0001208DF84C
:103650001F0006A9774803F04FFE40200690012086
:103660008DF81C0003208DF81D0000208DF81E0031
:1036700001208DF81F0006A96F4803F03DFE02945B
:103680000020ADF80C00ADF80E00ADF81000ADF85C
:1036900014000C20ADF8120002A9684804F079FA71
:1036A0000121664804F0FDFA4021644804F0E1FB82
:1036B000012240F22551614804F0A9FB26208DF833
:1036C000040003208DF805008DF8060001208DF818
:1036D000070001A803F01DFD00205949086008B04B
:1036E00010BD10B540F22551544804F0CBFB002822
:1036F00057D0524804F004FBC4B2532C03D101202C
:10370000504908704DE0452C39D14F494FA007F082
:103710006BFE18B900205049086019E04A494FA0D3
:1037200007F062FE18B901204B49086010E04649D5
:103730004DA007F059FE18B901204E49086007E076
:1037400041494DA007F050FE10B9002049490860DA
:103750004FF000003B49087009E000203A49394A1F
:103760001278885437480078401C3649087035482C
:1037700000782028F1DB00203249087011E0314840
:10378000007800280DDD2F480078802809DC2D48BE
:103790000078401E2C490C542A480078401C2949C6
:1037A000087010BD70B505460E460120244908601A
:1037B0004FF000040CE000BF4021204804F04CFB17
:1037C0000028F9D0295D1D4804F096FA601CC4B2A7
:1037D000B442F0DB00BF4021184804F03DFB002854
:1037E000F9D00020174908701549086070BD2DE90F
:1037F000F04107460D461348067800240020287043
:103800000A2007F074FA0F48007886420FD176B18B
:1038100000BF04E00C48005D3855601CC4B2B442DF
:10382000F8DB084800782870002006490870BDE8D9
:10383000F0810000000002400018024000440040F7
:10384000980243426C000020B80B00204C69676866
:10385000745F6C6564310000B8024342436C6F735F
:10386000655F6C65643100004F70656E5F62656511
:10387000700000009C024342436C6F73655F626599
:103880006570000000B58DB00121084603F0C6FF49
:103890000121080204F01CF820200B9003208DF871
:1038A000300000208DF833000BA9894803F024FD77
:1038B0000121080204F061F800214FF4807004F047
:1038C0005CF8002007900A9009904FF4803008902F
:1038D00007A805F01BFE002001908DF808008DF868
:1038E00009000390059001208DF8180001A979487E
:1038F00005F0DDFD0121774805F024FE0DB000BD87
:1039000000B58DB00121084603F088FF01210802AF
:1039100003F0DEFF40200B9003208DF830000020E4
:103920008DF833000BA96A4803F0E6FC0121080278
:1039300004F023F800214FF4807004F01EF80020FA
:1039400007900A9009904FF48030089007A805F07E
:10395000DDFD002001908DF808008DF8090003902E
:10396000059001208DF8180001A95A4805F09FFD27
:103970000121584805F0E6FD0DB000BD00B58DB041
:103980000121084603F04AFF0121080203F0A0FFCD
:1039900080200B9003208DF8300000208DF833003C
:1039A0000BA94B4803F0A8FC0121080203F0E5FF36
:1039B00000214FF4807003F0E0FF002007900A9090
:1039C00009904FF48030089007A805F09FFD002073
:1039D00001908DF808008DF80900039005900120F2
:1039E0008DF8180001A93B4805F061FD0121394817
:1039F00005F0A8FD0DB000BD00B58DB00121084651
:103A000003F00CFF0121080203F062FF4FF4807005
:103A10000B9003208DF8300000208DF833000BA9A7
:103A20002B4803F069FC0121080203F0A6FF0021E6
:103A30004FF4807003F0A1FF002007900A900990D6
:103A40004FF48030089007A805F060FD0020019039
:103A50008DF808008DF809000390059001208DF87D
:103A6000180001A91B4805F022FD0121194805F0A5
:103A700069FD0DB000BD10B50446072301222146A3
:103A8000144805F09FFD134805F0F8FD00BF022122
:103A9000104805F0FEFE0028F9D00E4805F02AFE79
:103AA00010BD2DE9F04107460C460025002608E030
:103AB0003846FFF7E0FF0544052007F018F9701CB1
:103AC000C6B2A642F4DBB5FBF4F080B2BDE8F081EB
:103AD000000002400020014010B588B004460121DA
:103AE000084603F09BFE0121102003F0F1FE07229F
:103AF0000921EA4803F083FC07220A21E74803F082
:103B00007EFC4FF4C060069002208DF81C008DF8FA
:103B10001D0000208DF81E0001208DF81F0006A951
:103B2000DE4803F0E9FB02940020ADF80C00ADF88C
:103B30000E00ADF81000ADF814000C20ADF8120026
:103B400002A9D74804F025F80121D54804F0A9F8C6
:103B50004021D34804F08DF9012240F22551D0488C
:103B600004F055F925208DF8040003208DF8050098
:103B70008DF8060001208DF8070001A803F0C9FAAE
:103B800008B010BD00BFC649098811F0400FFAD037
:103B9000C3498880704710B503460C46002200BF19
:103BA000985CFFF7EFFF501C82B2A242F8DB10BD19
:103BB000F0B595B00027002440F22551B84804F034
:103BC00061F9002814D0B748006808B9012000E066
:103BD0000020B4490860B24804F092F8C5B27B2DC9
:103BE00007D1B148B149098845540120AF4908803F
:103BF00052E17D2D74D1AE48006808B9012000E083
:103C00000020AB4908604FF020010DA807F099FB98
:103C10004F208DF834004B208DF835000D208DF8A5
:103C200036000A208DF837000DA807F0A9FA0746DC
:103C3000B9B20DA8FFF7AFFF002000F097FA9D4939
:103C4000087008460078FF2804DB00200870012077
:103C50009949087097480078401C964908700846B2
:103C60000178002000F0A0FA92480078FFF78AFF60
:103C70008D488E49098845548C480088401C8B49E2
:103C8000088000F07AFE8D49086000F082FE8C49C1
:103C90000860854801F00FFA884908600846006806
:103CA00090ED040A8648006880ED030A0846006823
:103CB00090ED020A8248006880ED010A084600681B
:103CC00090ED030A7E48006880ED020A084600680D
:103CD00090ED010A7A48006880ED000A00240FE0A8
:103CE000C8E076480068203000EB840090ED000AC0
:103CF00073480068103000EB840080ED000A641CFB
:103D0000032CEEDB00240EE06C480068143000EB5E
:103D1000840090ED000A6A4800681C3000EB8400C3
:103D200080ED000A641C032CEEDB664890ED000A6F
:103D30006348006880ED0A0A00240CE0624800EB4A
:103D4000840090ED000A5E4800682C3000EB84008F
:103D500080ED000A641C032CF0DB00240CE05B48BF
:103D600000EB840090ED000A55480068383000EB05
:103D7000840080ED000A641C032CF0DB00240CE0BE
:103D8000534800EB840090ED000A4D480068443031
:103D900000EB840080ED000A641C032CF0DB00249F
:103DA0000CE04C4800EB840090ED000A44480068A9
:103DB000503000EB840080ED000A641C032CF0DB23
:103DC0000020FDF787FF4448807843494978424AFC
:103DD0001278424B9B78CDE90032CDE902103F4882
:103DE0004378C2783EA105A806F0D2FF05A807F0E7
:103DF000C7F907461E21002003F095F830490968ED
:103E000008662F4909683A46086E05A907F0C0FA06
:103E100025493B4807F090F9394807F0B1F986B2D7
:103E200030128DF810009DF81000A6EB0020C0B2F3
:103E30008DF811001F480078401E0103022204A8DB
:103E400000F08BFC1B480078401E022202EB003180
:103E500032462B4800F081FC002403E00020124988
:103E60000855641C114800888442F7DB00200F4984
:103E7000088011E00D48008800280DDD0B480088FF
:103E8000B0F5FA7F08DC0848084909884554074816
:103E90000088401C0549088015B0F0BD00000240B4
:103EA00000100140B8024342380C0020700000208E
:103EB000BC02434272000020730000207400002006
:103EC000780000201C0000202C0300203803002074
:103ED0004403002020CB01204C0000205000002093
:103EE0003230253032642F253032642F2530326451
:103EF00020253032643A253032643A25303264006D
:103F00002C0E00201CB50121022003F087FC4FF489
:103F10004070009001208DF8040000208DF806000C
:103F200003208DF8050001208DF807006946DA4866
:103F300003F0E2F90120D9490860D949C1F8A40287
:103F40001CBD10B5D448006820F44020D249086058
:103F50000846006840F4802008600120D1490860CC
:103F6000CF49C1F8A0024FF0040006F07AFE00200D
:103F7000CC4908604FF0040006F073FE0020C849E9
:103F8000C1F8A00210BD10B5C348006820F440205D
:103F9000C14908600846006840F48020086000209D
:103FA000BE490860BE49C1F8A4024FF0040006F003
:103FB00058FE0120B9490860B949C1F8A4024FF080
:103FC000040006F04EFE10BD10B50024B248006893
:103FD00020F44020B04908600846006808600120CD
:103FE000B049086006F03DFE0120AD49C1F8A002CD
:103FF00006F037FE07E0601CC4B2FA2C03DDFFF7C1
:10400000C2FF012010BDA84800680028F3D1A349D1
:10401000086000BFF6E710B50020A04908609E4880
:10402000006820F440209C4908600846006840F47D
:10403000802008604FF000009949C1F8A4024FF0B9
:10404000020006F00EFE0120944908604FF00200C5
:1040500006F007FE00209249C1F8A00210BD10B57D
:1040600000208E4908608C48006820F440208A496E
:1040700008600846006840F4802008604FF00100A6
:104080008749C1F8A4024FF0020006F0EAFD0120C2
:10409000824908604FF0020006F0E3FD00208049ED
:1040A000C1F8A00210BD70B504467B48006820F43A
:1040B0004020794908600846006840F48020086084
:1040C00000207649086005461AE0E0097549086055
:1040D0004FEA44604FEA10644FF0020006F0C1FD61
:1040E00001206F49C1F8A002022006F0BAFD0020AD
:1040F0006A4908604FF0020006F0B3FD681CC5B2C3
:10410000082DE2DB70BD70B50546002462480068EA
:1041100020F44020604908600846006808600026D6
:1041200016E000205D4908604FF0020006F099FD9E
:1041300001205B49C1F8A0026006040E5A480068DD
:1041400008B1601CC4B2012006F08BFD701CC6B221
:10415000082EE6DB15B9FFF782FF01E0FFF75BFFF2
:10416000204670BD10B5FFF7CDFE10BD70B50446FA
:104170000025FFF7E6FEA020FFF795FFFFF724FFDD
:104180002046FFF790FFFFF71FFFFFF7DAFEA120A1
:10419000FFF789FFFFF718FF0020FFF7B4FF054680
:1041A000FFF7F1FE284670BD70B505460C46FFF7D7
:1041B000C8FEA020FFF777FFFFF706FF2846FFF7AE
:1041C00072FFFFF701FF2046FFF76DFFFFF7FCFED0
:1041D000FFF7D9FE0A2006F08AFD70BD10B5FF205A
:1041E000FFF7C4FF0446AB2C01D1002010BDAB216A
:1041F000FF20FFF7D9FFFF20FFF7B8FF0446AB2CE5
:1042000001D10020F2E70120F0E7F0B504460E46A8
:104210001D46002365B1002106E0C80026FA00F023
:1042200004F8010B481CC1B29142F6DB0020F0BD3E
:104230000026501E0444002105E01B0214F80179F9
:104240003B44481CC1B29142F7DB1846EFE770B51A
:1042500005460C46164606E028466A1CD5B2FFF70E
:1042600085FF04F8010B3000A6F10101CEB2F3D1B5
:1042700070BD70B505460C46164606E02178284606
:10428000FFF792FF681CC5B2641C3000A6F1010163
:10429000CEB2F3D170BD000000040240A0824042C3
:1042A00000804042A48240422482404270B50546CC
:1042B000002400BF0221484805F02CFD0028F9D059
:1042C000601CC4B2C82C01DD002070BD29464248E4
:1042D00005F0D7FC00BF01213F4805F01BFD002879
:1042E000F9D0601CC4B2C82C01DD0020EDE73A48CB
:1042F00005F0C4FCC0B2E8E700B587B00121022098
:1043000003F08CFA0121080303F0E2FA382005904B
:1043100002208DF8180000208DF81A0003208DF877
:10432000190001208DF81B0005A92C4802F0E4FFBC
:1043300005220321294803F062F8052204212748B9
:1043400003F05DF805221146244803F058F80121D6
:10435000080303F012FB00214FF4805003F00DFB23
:104360000020ADF800004FF48270ADF8020000208C
:10437000ADF804000220ADF806000120ADF80800F9
:104380004002ADF80A003820ADF80C000020ADF86E
:104390000E000720ADF8100069460F4805F0F8FA46
:1043A00001210D4805F0ECFBFF20FFF77FFF07B070
:1043B00000BD10B50446084800884FF6C771084094
:1043C00005490880084600882043088001210248EA
:1043D00005F0D6FB10BD0000003001400004024093
:1043E00010B500240020FD4908604FF09000FFF751
:1043F0005DFF0020FFF75AFF0020FFF757FF002066
:10440000FFF754FFFF20FFF751FF44EA0024FF208D
:10441000FFF74CFF04430120F149C1F8A0022046F8
:1044200010BD1CB50121402003F0F8F94FF4807055
:10443000009001208DF8040000208DF80600032074
:104440008DF8050001208DF807006946E54802F067
:1044500053FF0120E1490860FFF74EFF0020FFF7FE
:10446000A8FFFFF7BDFFE04908801CBD10B5002480
:104470000020DA4908604FF00500FFF717FFFF2022
:10448000FFF714FF04460120D549C1F8A0022046D9
:1044900010BD10B504460020D04908604FF001005F
:1044A000FFF704FF2046FFF701FF0120CC49C1F8C8
:1044B000A00210BD10B50020C84908604FF00600EA
:1044C000FFF7F4FE0120C649C1F8A00210BD10B5E7
:1044D00000BFFFF7CBFF10F0010FFAD110BD10B5F0
:1044E0000020BE4908604FF00400FFF7DFFE012006
:1044F000BB49C1F8A00210BD10B5FFF7DBFFFFF705
:10450000E6FF0020B54908604FF0C700FFF7CEFE78
:104510000120B349C1F8A002FFF7D9FF10BD10B5C3
:1045200004462403FFF7C6FFFFF7D1FF0020AB4985
:1045300008604FF02000FFF7B9FEC4F30740FFF713
:10454000B5FEC4F30720FFF7B1FEE0B2FFF7AEFE01
:104550000120A349C1F8A002FFF7B9FF10BD10B5B3
:1045600000209E4908604FF0B900FFF79FFE012030
:104570009B49C1F8A002032006F073FB10BD10B5E3
:104580000020964908604FF0AB00FFF78FFE012036
:104590009349C1F8A002032006F063FB10BD70B57B
:1045A00005460C46164600208C4908604FF0030073
:1045B000FFF77CFEC4F30740FFF778FEC4F3072043
:1045C000FFF774FEE0B2FFF771FE04E0FF20FFF793
:1045D0006DFE28706D1C3000A6F101018EB2F5D180
:1045E00001207E49086070BD70B505460C46164630
:1045F000FFF760FF0020794908604FF00200FFF7E5
:1046000055FEC4F30740FFF751FEC4F30720FFF740
:104610004DFEE0B2FFF74AFE03E02878FFF746FEC2
:104620006D1C3000A6F101018EB2F6D101206B495C
:104630000860FFF74CFF70BD2DE9F05F07460E469E
:1046400014464FF00008C146C2460025AB4606F0AE
:10465000FF0ACAF10000C5B22046E11704EB116160
:10466000C1F30728E11704EB11610912A4EB012142
:1046700001F0FF09BAF1000F20D1B8F1000F05D108
:10468000224631463846FFF7AFFF64E009E04FF4B9
:10469000807231463846FFF7A7FF06F5807607F5AA
:1046A00080775FEA0800A8F1010101F0FF08EED170
:1046B0004A4631463846FFF797FF4CE0B8F1000F05
:1046C00018D1A94510DDA9EB050000F0FF0B2A4623
:1046D00031463846FFF788FF2E442F445A4631466C
:1046E0003846FFF781FF36E0224631463846FFF76D
:1046F0007BFF30E0601B84B22046E11704EB1161C0
:10470000C1F30728E11704EB11610912A4EB0121A1
:1047100001F0FF092A4631463846FFF765FF2E446F
:104720002F4409E04FF4807231463846FFF75CFFB2
:1047300006F5807607F580775FEA0800A8F10101A9
:1047400001F0FF08EED1B9F1000F04D04A4631461E
:104750003846FFF749FFBDE8F09F2DE9F05F81463D
:104760000F4616460025DFF884B04FEA1738C7F326
:104770000B0ACAF58054A64200DC34464FE04FEAEB
:1047800008314FF480525846FFF709FF002504E036
:10479000681C85B2A54200D105E00AEB05001BF8B4
:1047A0000000FF28F4D000BFA54221DA4046FFF701
:1047B000B6FE002507E019F8050005EB0A010BF825
:1047C0000100681C85B2A542F5DB4FEA08314FF4C1
:1047D00080525846FFF730FF0FE00000A00243422E
:1047E00000004342001802407C0000201412002008
:1047F000224639464846FFF71FFFA64200D10FE088
:1048000008F101084FF0000AA1442744301B86B28A
:10481000B6F5805F02DD4FF4805400E03446AEE729
:1048200000BFBDE8F09F000000219FEDFE0A80ED73
:10483000040A9FEDFC0A80ED020A9FEDFA0A80ED62
:10484000030A9FEDF80A80ED010AF7A2026000BF9B
:1048500009E09FEDF40A00F1200202EB810282EDF3
:10486000000A4A1CD1B20329F3DB002109E09FEDC5
:10487000ED0A00F1140202EB810282ED000A4A1CEB
:10488000D1B20329F3DB7047014600209FEDE50A12
:1048900081ED030A9FEDE30A81ED010A9FEDE10A34
:1048A00081ED020A9FEDDF0A81ED000ADEA20A66B1
:1048B00000BF09E09FEDDB0A01F1100202EB80026C
:1048C00082ED000A421CD0B20328F3DB002009E08D
:1048D0009FEDD40A01F11C0202EB800282ED000A76
:1048E000421CD0B20328F3DB9FEDCE0A81ED0A0A09
:1048F000002009E09FEDCB0A01F12C0202EB8002BF
:1049000082ED000A421CD0B20328F3DB002009E04C
:104910009FEDC40A01F1380202EB800282ED000A29
:10492000421CD0B20328F3DB002009E09FEDBD0A52
:1049300001F1440202EB800282ED000A421CD0B277
:104940000328F3DB002009E09FEDB60A01F15002D5
:1049500002EB800282ED000A421CD0B20428F3DB95
:10496000704710B504462046FFF75EFF10BD10B536
:1049700004462046FFF788FF10BD10B52C2100200B
:1049800002F0D1FA044614B12046FFF74DFF20464D
:1049900010BD10B56421002002F0C5FA044614B120
:1049A0002046FFF771FF204610BD10B504461CB12C
:1049B0002146002002F0A7FA10BD10B504461CB134
:1049C0002146002002F09FFA10BD80ED010A7047D9
:1049D00080ED020A704780ED030A704780ED040AFB
:1049E0007047016070470246002000BF0BE001EBFA
:1049F000800393ED000A02F1200303EB800383EDB3
:104A0000000A431CD8B20328F1DB7047024600209D
:104A100000BF0BE001EB800393ED000A02F11403E9
:104A200003EB800383ED000A431CD8B20328F1DBBB
:104A3000704790ED010A704790ED020A704790EDC3
:104A4000030A704790ED040A7047014608687047F2
:104A50002DE9F0472DED028B05462C4602F02AF891
:104A6000814694ED010A10EE101A084609F080FD07
:104A700041EC100BB0EE408AF0EE608A01F0EBFFE3
:104A80000646324669A1484601F0B9FE94ED020A95
:104A900010EE101A084609F06BFD41EC100BB0EE59
:104AA000408AF0EE608A01F0D6FF0646324662A1E7
:104AB000484601F0A4FE94ED030A10EE101A0846D1
:104AC00009F056FD41EC100BB0EE408AF0EE608A22
:104AD00001F0C1FF064632465AA1484601F08FFE5A
:104AE00094ED040A10EE101A084609F041FD41EC5D
:104AF000100BB0EE408AF0EE608A01F0ACFF064683
:104B0000324652A1484601F07AFE002701F0C9FF63
:104B100006460EB319E038467F1C04F1200202EB72
:104B2000800090ED000A10EE101A084609F020FDF2
:104B300041EC100BB0EE408AF0EE608A01F08BFF82
:104B400080464146304601F045FE032FE3D332460E
:104B500041A1484601F053FE002701F0A2FF06469E
:104B60000EB319E038467F1C04F1140202EB8000FA
:104B700090ED000A10EE101A084609F0F9FC41EC1D
:104B8000100BB0EE408AF0EE608A01F064FF8046C0
:104B90004146304601F01EFE032FE3D3324630A1DA
:104BA000484601F02CFE206801F06DFF06463246B3
:104BB0002DA1484601F023FE4846BDEC028BBDE81E
:104BC000F0872DE9F0472DED028B05462C4601F0CC
:104BD00071FF074694ED000A10EE101A084609F01E
:104BE000C7FC41EC100BB0EE408AF0EE608A01F099
:104BF00032FF064632460DA1384601F000FE94ED24
:104C0000010A10EE101A084609F0B2FC41EC100B34
:104C1000B0EE408AF0EE608A01F01DFF0646324693
:104C200005A125E0000000000000000074656D7023
:104C3000657261747572650068756D69646974790F
:104C4000000000006C696768740000006469737498
:104C5000616E636500000000766F6C7461676500CB
:104C6000416D7065720000006461746500000000B1
:104C7000384601F0C4FD94ED020A10EE101A084601
:104C800009F076FC41EC100BB0EE408AF0EE608A41
:104C900001F0E1FE06463246AFF25801384601F017
:104CA000AEFD94ED030A10EE101A084609F060FC00
:104CB00041EC100BB0EE408AF0EE608A01F0CBFEC2
:104CC00006463246AFF27C01384601F098FD4FF0BF
:104CD000000801F0E6FE064626B31AE0404608F159
:104CE000010804F1100202EB800090ED000A10EEC2
:104CF000101A084609F03CFC41EC100BB0EE408A5B
:104D0000F0EE608A01F0A7FE81464946304601F088
:104D100061FDB8F1030FE1D33246AFF2C40138466A
:104D200001F06DFD4FF0000801F0BBFE064626B312
:104D30001AE0404608F1010804F11C0202EB800071
:104D400090ED000A10EE101A084609F011FC41EC33
:104D5000100BB0EE408AF0EE608A01F07CFE8146D6
:104D60004946304601F036FDB8F1030FE1D3324633
:104D7000AFF21411384601F042FD94ED0A0A10EE2C
:104D8000101A084609F0F4FB41EC100BB0EE408A13
:104D9000F0EE608A01F05FFE06463246D6A1384644
:104DA00001F02DFD4FF0000801F07BFE06461EB31A
:104DB0001AE0404608F1010804F12C0202EB8000E1
:104DC00090ED000A10EE101A084609F0D1FB41ECF4
:104DD000100BB0EE408AF0EE608A01F03CFE814696
:104DE0004946304601F0F6FCB8F1030FE1D33246F4
:104DF000C3A1384601F003FD4FF0000801F051FE59
:104E000006461EB31AE0404608F1010804F13802D4
:104E100002EB800090ED000A10EE101A084609F02F
:104E2000A7FB41EC100BB0EE408AF0EE608A01F077
:104E300012FE81464946304601F0CCFCB8F1030F22
:104E4000E1D33246AFA1384601F0D9FC4FF000085B
:104E500001F027FE06461EB31AE0404608F101089D
:104E600004F1440202EB800090ED000A10EE101AEB
:104E7000084609F07DFB41EC100BB0EE408AF0EEE5
:104E8000608A01F0E8FD81464946304601F0A2FC07
:104E9000B8F1030FE1D332469BA1384601F0AFFCD5
:104EA0004FF0000801F0FDFD06461EB31AE0404633
:104EB00008F1010804F1500202EB800090ED000AB5
:104EC00010EE101A084609F053FB41EC100BB0EE3F
:104ED000408AF0EE608A01F0BEFD814649463046C8
:104EE00001F078FCB8F1040FE1D3324688A13846CE
:104EF00001F085FC206E01F0C6FD06463246AFF299
:104F00009821384601F07BFC3846BDEC028BBDE8A9
:104F1000F0872DE9F04781467E482C210268002069
:104F2000904705461DB12C21284606F00AFAAFF23B
:104F30000431484601F013FC044654B194ED061BBD
:104F4000B0EE410AF0EE610A51EC100B08F016FDCC
:104F50006860AFF21C31484601F001FC044654B1D0
:104F600094ED061BB0EE410AF0EE610A51EC100B15
:104F700008F004FDA860AFF23431484601F0EFFBC1
:104F8000044654B194ED061BB0EE410AF0EE610AFE
:104F900051EC100B08F0F2FCE860AFF250314846DB
:104FA00001F0DDFB044654B194ED061BB0EE410A5E
:104FB000F0EE610A51EC100B08F0E0FC28610027CC
:104FC000BA46AFF26C31484601F0C9FB8046B8F1F1
:104FD000000F1CD0404601F0B0FB824615E0394678
:104FE000404601F0B3FB06467EB196ED061BB0EEDF
:104FF000410AF0EE610A51EC100B08F0BFFC394693
:105000007F1C05F1200242F821005745E7D3002715
:10501000BA46AFF2B431484601F0A1FB8046B8F180
:10502000000F1CD0404601F088FB824615E039464F
:10503000404601F08BFB06467EB196ED061BB0EEB6
:10504000410AF0EE610A51EC100B08F097FC39466A
:105050007F1C05F1140242F821005745E7D3AFF257
:10506000F831484601F07BFB04461CB121692868F1
:1050700006F062F82846BDE8F08770B50446204681
:10508000FFF7E6FC0646304601F03AFB054630469F
:1050900000F095F8284670BD70B504462046FFF72D
:1050A00090FD0646304601F02BFB0546304600F0E9
:1050B00086F8284670BD70B50546284600F026FFE4
:1050C000044634B12046FFF724FF0646204600F090
:1050D00076F8304670BD70B50546284600F016FFDC
:1050E000044634B12046FFF714FF0646204600F080
:1050F00066F8304670BD0000766F69636500000099
:105100006163630070616C00616E676C6500000034
:1051100064697300B0000020FC480068704770B5F7
:1051200004460D462CB9AC4201D0012070BD0020D0
:10513000FCE70DB90120F9E705E0207808B9002067
:10514000F4E7641C6D1C207805F002FE0646287802
:1051500005F0FEFD8642F0D0207805F0F9FD064608
:10516000287805F0F5FD301AE0E770B504462046D2
:1051700006F006F8451C29460020E54A12689047CB
:10518000060000D170BD2A462146304606F062F87E
:105190003046F7E7DF49DE4A1160DF49DF4A116038
:1051A000704710B528210020D94A1268904704465C
:1051B0001CB12821204606F0C4F8204610BD70B569
:1051C000044625E02568A08910F4807F04D1A068FA
:1051D00010B1A068FFF7F3FFA08910F4807F06D11B
:1051E000206920B10020CD4A216912689047A0892A
:1051F00010F4007F06D1206A20B10020C74A216A3E
:105200001268904721460020C44A126890472C46F5
:10521000002CD7D170BD2DE9F0412DED0E8B054648
:105220000C469FEDBF0BB0EE408AF0EE608A9FED1A
:10523000BE0BB0EE40AAF0EE60AA9FEDB90BB0EE47
:10524000409AF0EE609A0026012720782D2806D19A
:105250009FEDB70BB0EE40AAF0EE60AA641C207878
:10526000302800D1641C207831282FDB20783928A1
:105270002CDC00BF14F8011BA1F1300008F02FFE58
:1052800041EC100BB0EE40BAF0EE60BA9FEDAA0B05
:1052900053EC102B51EC180B08F074FE41EC100B82
:1052A000B0EE40CAF0EE60CA53EC1B2B51EC1C0B65
:1052B00008F096FB41EC100BB0EE408AF0EE608AED
:1052C0002078302802DB20783928D3DD20782E287A
:1052D00041D1607830283EDB607839283BDC641CA3
:1052E00000BF14F8011BA1F1300008F0F8FD41ECFB
:1052F000100BB0EE40BAF0EE60BA9FED8F0B53EC9E
:10530000102B51EC180B08F03DFE41EC100BB0EEE9
:1053100040CAF0EE60CA53EC1B2B51EC1C0B08F09A
:105320005FFB41EC100BB0EE408AF0EE608A9FED1F
:105330007E0B53EC102B51EC190B09F02FF841ECBC
:10534000100BB0EE409AF0EE609A2078302802DB25
:1053500020783928C5DD2078652802D020784528B6
:1053600019D1641C20782B2801D1641C05E0207819
:105370002D2802D14FF0FF37641C06E014F8010B12
:10538000303806EB860100EB41062078302802DB3E
:1053900020783928F2DD06FB07F008F0A0FD41EC8B
:1053A000100BB0EE40EAF0EE60EA53EC192B51EC32
:1053B0001E0B08F015FB41EC100BB0EE40DAF0EEDE
:1053C00060DAB0EE4D1AF0EE6D1A9FED5B0B07F050
:1053D0007BFBB0EE40BAF0EE60BA53EC182B51EC08
:1053E0001A0B08F0CFFD41EC100BB0EE40CAF0EE06
:1053F00060CA53EC1B2B51EC1C0B08F0C3FD41ECB5
:10540000100BB0EE408AF0EE608A85ED068B51EC11
:10541000180B08F035FD68610320E8602046BDECFC
:105420000E8BBDE8F0810146491E41EA610141EA67
:10543000A10141EA211141EA212141EA2141481C0F
:1054400070472DE9F04104460E460CB1206810B9B2
:105450000020BDE8F081A06806446068B04203DB2C
:10546000A16820680844F4E73046FFF7DCFF0746F0
:1054700039460020264A12689047054645B9002063
:10548000264A216812689047002060602060E0E7AB
:1054900025B12846D4E9001205F0DCFE00201F4AA1
:1054A00021681268904767602560A0682844D0E7AB
:1054B00070B504460CB1206808B9002070BDA16821
:1054C00020684518284605F05BFEA1680844F5E70A
:1054D00070B52DED088B82B006460C46002596ED82
:1054E000060BB0EE408AF0EE608A9FED0D0B53EC98
:1054F000102B51EC180B08F087FC2DD12CB1022198
:105500002046FFF79EFF054620E019E080000020BE
:1055100084000020276F0008076F00088800002023
:105520000000000000000000000000000000F03F4C
:10553000000000000000F0BF000000000000244058
:1055400002210020F84A126890470546002D02D03B
:10555000F6A000882880E3E0706908F0C0FC41EC08
:10556000100BB0EE40BAF0EE60BA53EC182B51ECD1
:105570001B0B08F013FF41EC100BB0EE40AAF0EE4D
:1055800060AA07F009FAB0EE409AF0EE609A9FED3B
:10559000E80B53EC102B51EC190B08F0B7FC26D894
:1055A0009FEDE50B53EC102B51EC180B08F0AEFC03
:1055B0001DD89FEDE30B53EC102B51EC180B08F0AA
:1055C000DFFD14D82CB115212046FFF73AFF054620
:1055D00005E015210020D44A126890470546002DA9
:1055E000B9D0D9A12846726905F0D2FB98E02CB158
:1055F00040212046FFF725FF054605E04021002019
:10560000C94A126890470546002D16D051EC180B78
:1056100007F0AAF990B18DED008B0199C1F30A5002
:10562000A0F5E061FF3902D008B1012100E00021BE
:1056300021B9C6A1284605F0ABFB71E0B0EE480ADF
:10564000F0EE680A07F0B4F9B0EE40BAF0EE60BAD6
:1056500053EC182B51EC1B0B08F0A0FE41EC100B87
:10566000B0EE409AF0EE609A07F096F9B0EE40AADC
:10567000F0EE60AA9FEDAE0B53EC102B51EC1A0B21
:1056800008F044FC19D8B0EE480AF0EE680A07F0BA
:1056900083F9B0EE409AF0EE609A9FEDAE0B53ECBA
:1056A000102B51EC190B08F031FC06D253EC182BDF
:1056B000AAA1284605F06CFB32E0B0EE480AF0EEF5
:1056C000680A07F069F9B0EE409AF0EE609A9FED33
:1056D000A50B53EC102B51EC190B08F017FC12D34F
:1056E000B0EE480AF0EE680A07F056F9B0EE409ABC
:1056F000F0EE609A9FED9D0B53EC102B51EC190BC3
:1057000008F03EFD06D253EC182B9AA1284605F06E
:105710003FFB05E053EC182B97A1284605F038FB1A
:10572000284602B0BDEC088B70BD01460022087807
:10573000302806DB0878392803DC08783038024442
:1057400015E00878412806DB0878462803DC08784D
:10575000373802440BE00878612806DB08786628B1
:1057600003DC08785738024401E00020704712013A
:10577000491C0878302806DB0878392803DC0878CB
:105780003038024415E00878412806DB08784628BE
:1057900003DC0878373802440BE00878612806DB20
:1057A0000878662803DC08785738024401E00020B6
:1057B000DCE71201491C0878302806DB0878392814
:1057C00003DC08783038024415E00878412806DB0D
:1057D0000878462803DC0878373802440BE008785C
:1057E000612806DB0878662803DC0878573802440D
:1057F00001E00020BAE71201491C0878302806DBD6
:105800000878392803DC08783038024415E0087835
:10581000412806DB0878462803DC0878373802443C
:105820000BE00878612806DB0878662803DC087836
:105830005738024401E0002098E7104696E72DE92A
:10584000F05F8346884608F10104002798F80000BD
:10585000222805D04948C0F800800020BDE8F09F0C
:1058600004E014F8011B5C2900D1641C2078222874
:1058700004D0207810B1781C0700F2D1791C0020E8
:10588000294A126890478146B9F1000F01D10020E2
:10589000E4E708F101044D46C9E020785C2804D013
:1058A00014F8010B05F8010BC1E0641C2078722884
:1058B00018D006DC622809D066280BD06E2877D174
:1058C0000CE0742812D07528F9D113E0082005F8EF
:1058D000010BAAE00C2005F8010BA6E00A2005F850
:1058E000010BA2E00D2005F8010B9EE0092005F850
:1058F000010B9AE0601CFFF718FF0646241DB6F561
:105900005C4F02D3B6F5604F00D306B98DE0B6F513
:10591000584F48D3B6F55C4F45D260785C2802D129
:10592000A07875282CD080E0840000203000000092
:10593000000000000000B03C0000C0FFFFFFDF419E
:10594000000000000000E0C1256400006E756C6C72
:105950000000000044F3C2E4E4E9634C252E306605
:10596000000000008DEDB5A0F7C6B03E00000000BD
:1059700065CDCD4125650000256600008000002032
:10598000E01CFFF7D2FE8246A41DBAF55C4F02D39D
:10599000BAF5604F00D348E0C6F30901504661F301
:1059A0009F2000F580360427802E02D2012709E0CF
:1059B00037E0B6F5006F01D2022703E0B6F5803F6D
:1059C00000D203273D44012F20D0022F15D0032FF2
:1059D0000AD0042F22D106F0BF0040F08001681EDB
:1059E00005460170B60900BF06F0BF0040F0800117
:1059F000681E05460170B60900BF06F0BF0040F002
:105A00008001681E05460170B60900BFF748C05DF9
:105A10003043C1B2681E0546017000BF00BF3D445F
:105A200003E0207805F8010B00BF00BF641C20785C
:105A3000222803D0207800287FF42FAF0020287080
:105A40002078222800D1641CCBF810900420CBF8D9
:105A50000C00204602E72DE9F05F804689460027CA
:105A6000BB46454611E02878002802DD287820282A
:105A700005DB2878222802D028785C2801D1012073
:105A800000E0002040EA0B0B6D1C28780028EAD1CA
:105A9000BBF1000F23D1A5EB0807B9F1000F05D02A
:105AA000F91C4846FFF7CDFC064605E0F91C00202E
:105AB000CF4A12689047064616B90020BDE8F09F0D
:105AC0003446222004F8010B4146204605F034FB01
:105AD0002220E0550021781C21543046EEE7B8F131
